{
  "address": "0xD1BA88d1B4a4163C02bBdE7971A0Bb9a0D2f04f3",
  "abi": [
    {
      "inputs": [
        {
          "internalType": "address",
          "name": "target",
          "type": "address"
        }
      ],
      "name": "AddressEmptyCode",
      "type": "error"
    },
    {
      "inputs": [],
      "name": "AddressIsNull",
      "type": "error"
    },
    {
      "inputs": [],
      "name": "CanNotSweepToken",
      "type": "error"
    },
    {
      "inputs": [
        {
          "internalType": "address",
          "name": "implementation",
          "type": "address"
        }
      ],
      "name": "ERC1967InvalidImplementation",
      "type": "error"
    },
    {
      "inputs": [],
      "name": "ERC1967NonPayable",
      "type": "error"
    },
    {
      "inputs": [],
      "name": "FailedCall",
      "type": "error"
    },
    {
      "inputs": [],
      "name": "FeeCollectorNotSet",
      "type": "error"
    },
    {
      "inputs": [
        {
          "internalType": "uint256",
          "name": "balance",
          "type": "uint256"
        },
        {
          "internalType": "uint256",
          "name": "needed",
          "type": "uint256"
        }
      ],
      "name": "InsufficientBalance",
      "type": "error"
    },
    {
      "inputs": [],
      "name": "InvalidInitialization",
      "type": "error"
    },
    {
      "inputs": [],
      "name": "InvalidStrategy",
      "type": "error"
    },
    {
      "inputs": [],
      "name": "NotEnoughAmountOut",
      "type": "error"
    },
    {
      "inputs": [
        {
          "internalType": "uint256",
          "name": "",
          "type": "uint256"
        }
      ],
      "name": "NotEnoughProfit",
      "type": "error"
    },
    {
      "inputs": [],
      "name": "NotInitializing",
      "type": "error"
    },
    {
      "inputs": [
        {
          "internalType": "address",
          "name": "token",
          "type": "address"
        }
      ],
      "name": "SafeERC20FailedOperation",
      "type": "error"
    },
    {
      "inputs": [
        {
          "internalType": "uint256",
          "name": "",
          "type": "uint256"
        }
      ],
      "name": "TooMuchLoss",
      "type": "error"
    },
    {
      "inputs": [],
      "name": "UUPSUnauthorizedCallContext",
      "type": "error"
    },
    {
      "inputs": [
        {
          "internalType": "bytes32",
          "name": "slot",
          "type": "bytes32"
        }
      ],
      "name": "UUPSUnsupportedProxiableUUID",
      "type": "error"
    },
    {
      "inputs": [],
      "name": "Unauthorized",
      "type": "error"
    },
    {
      "anonymous": false,
      "inputs": [
        {
          "indexed": false,
          "internalType": "uint64",
          "name": "version",
          "type": "uint64"
        }
      ],
      "name": "Initialized",
      "type": "event"
    },
    {
      "anonymous": false,
      "inputs": [
        {
          "indexed": false,
          "internalType": "address",
          "name": "oldFeeCollector",
          "type": "address"
        },
        {
          "indexed": false,
          "internalType": "address",
          "name": "newFeeCollector",
          "type": "address"
        }
      ],
      "name": "UpdatedFeeCollector",
      "type": "event"
    },
    {
      "anonymous": false,
      "inputs": [
        {
          "indexed": false,
          "internalType": "contract ISwapper",
          "name": "oldSwapper",
          "type": "address"
        },
        {
          "indexed": false,
          "internalType": "contract ISwapper",
          "name": "newSwapper",
          "type": "address"
        }
      ],
      "name": "UpdatedSwapper",
      "type": "event"
    },
    {
      "anonymous": false,
      "inputs": [
        {
          "indexed": true,
          "internalType": "address",
          "name": "implementation",
          "type": "address"
        }
      ],
      "name": "Upgraded",
      "type": "event"
    },
    {
      "inputs": [],
      "name": "NAME",
      "outputs": [
        {
          "internalType": "string",
          "name": "",
          "type": "string"
        }
      ],
      "stateMutability": "view",
      "type": "function"
    },
    {
      "inputs": [],
      "name": "UPGRADE_INTERFACE_VERSION",
      "outputs": [
        {
          "internalType": "string",
          "name": "",
          "type": "string"
        }
      ],
      "stateMutability": "view",
      "type": "function"
    },
    {
      "inputs": [],
      "name": "VERSION",
      "outputs": [
        {
          "internalType": "string",
          "name": "",
          "type": "string"
        }
      ],
      "stateMutability": "pure",
      "type": "function"
    },
    {
      "inputs": [
        {
          "internalType": "address",
          "name": "keeperAddress_",
          "type": "address"
        }
      ],
      "name": "addKeeper",
      "outputs": [],
      "stateMutability": "nonpayable",
      "type": "function"
    },
    {
      "inputs": [
        {
          "internalType": "uint256",
          "name": "approvalAmount_",
          "type": "uint256"
        }
      ],
      "name": "approveToken",
      "outputs": [],
      "stateMutability": "nonpayable",
      "type": "function"
    },
    {
      "inputs": [
        {
          "internalType": "uint256",
          "name": "minAmountOut_",
          "type": "uint256"
        }
      ],
      "name": "claimAndSwapRewards",
      "outputs": [
        {
          "internalType": "uint256",
          "name": "_amountOut",
          "type": "uint256"
        }
      ],
      "stateMutability": "nonpayable",
      "type": "function"
    },
    {
      "inputs": [],
      "name": "collateralToken",
      "outputs": [
        {
          "internalType": "contract IERC20",
          "name": "",
          "type": "address"
        }
      ],
      "stateMutability": "view",
      "type": "function"
    },
    {
      "inputs": [],
      "name": "comet",
      "outputs": [
        {
          "internalType": "contract IComet",
          "name": "",
          "type": "address"
        }
      ],
      "stateMutability": "view",
      "type": "function"
    },
    {
      "inputs": [],
      "name": "compRewards",
      "outputs": [
        {
          "internalType": "contract IRewards",
          "name": "",
          "type": "address"
        }
      ],
      "stateMutability": "view",
      "type": "function"
    },
    {
      "inputs": [],
      "name": "feeCollector",
      "outputs": [
        {
          "internalType": "address",
          "name": "",
          "type": "address"
        }
      ],
      "stateMutability": "view",
      "type": "function"
    },
    {
      "inputs": [],
      "name": "governor",
      "outputs": [
        {
          "internalType": "address",
          "name": "",
          "type": "address"
        }
      ],
      "stateMutability": "view",
      "type": "function"
    },
    {
      "inputs": [
        {
          "internalType": "address",
          "name": "pool_",
          "type": "address"
        },
        {
          "internalType": "address",
          "name": "swapper_",
          "type": "address"
        },
        {
          "internalType": "address",
          "name": "compRewards_",
          "type": "address"
        },
        {
          "internalType": "address",
          "name": "rewardToken_",
          "type": "address"
        },
        {
          "internalType": "address",
          "name": "comet_",
          "type": "address"
        },
        {
          "internalType": "string",
          "name": "name_",
          "type": "string"
        }
      ],
      "name": "initialize",
      "outputs": [],
      "stateMutability": "nonpayable",
      "type": "function"
    },
    {
      "inputs": [],
      "name": "isActive",
      "outputs": [
        {
          "internalType": "bool",
          "name": "",
          "type": "bool"
        }
      ],
      "stateMutability": "view",
      "type": "function"
    },
    {
      "inputs": [
        {
          "internalType": "address",
          "name": "token_",
          "type": "address"
        }
      ],
      "name": "isReservedToken",
      "outputs": [
        {
          "internalType": "bool",
          "name": "",
          "type": "bool"
        }
      ],
      "stateMutability": "view",
      "type": "function"
    },
    {
      "inputs": [],
      "name": "keepers",
      "outputs": [
        {
          "internalType": "address[]",
          "name": "",
          "type": "address[]"
        }
      ],
      "stateMutability": "view",
      "type": "function"
    },
    {
      "inputs": [],
      "name": "pool",
      "outputs": [
        {
          "internalType": "contract IVesperPool",
          "name": "",
          "type": "address"
        }
      ],
      "stateMutability": "view",
      "type": "function"
    },
    {
      "inputs": [],
      "name": "poolAccountant",
      "outputs": [
        {
          "internalType": "address",
          "name": "",
          "type": "address"
        }
      ],
      "stateMutability": "view",
      "type": "function"
    },
    {
      "inputs": [],
      "name": "proxiableUUID",
      "outputs": [
        {
          "internalType": "bytes32",
          "name": "",
          "type": "bytes32"
        }
      ],
      "stateMutability": "view",
      "type": "function"
    },
    {
      "inputs": [
        {
          "internalType": "uint256",
          "name": "minProfit_",
          "type": "uint256"
        },
        {
          "internalType": "uint256",
          "name": "maxLoss_",
          "type": "uint256"
        }
      ],
      "name": "rebalance",
      "outputs": [
        {
          "internalType": "uint256",
          "name": "_profit",
          "type": "uint256"
        },
        {
          "internalType": "uint256",
          "name": "_loss",
          "type": "uint256"
        },
        {
          "internalType": "uint256",
          "name": "_payback",
          "type": "uint256"
        }
      ],
      "stateMutability": "nonpayable",
      "type": "function"
    },
    {
      "inputs": [],
      "name": "receiptToken",
      "outputs": [
        {
          "internalType": "address",
          "name": "",
          "type": "address"
        }
      ],
      "stateMutability": "view",
      "type": "function"
    },
    {
      "inputs": [
        {
          "internalType": "address",
          "name": "keeperAddress_",
          "type": "address"
        }
      ],
      "name": "removeKeeper",
      "outputs": [],
      "stateMutability": "nonpayable",
      "type": "function"
    },
    {
      "inputs": [],
      "name": "rewardToken",
      "outputs": [
        {
          "internalType": "address",
          "name": "",
          "type": "address"
        }
      ],
      "stateMutability": "view",
      "type": "function"
    },
    {
      "inputs": [
        {
          "internalType": "contract IERC20",
          "name": "tokenIn_",
          "type": "address"
        },
        {
          "internalType": "uint256",
          "name": "minAmountOut_",
          "type": "uint256"
        }
      ],
      "name": "swapToCollateral",
      "outputs": [
        {
          "internalType": "uint256",
          "name": "_amountOut",
          "type": "uint256"
        }
      ],
      "stateMutability": "nonpayable",
      "type": "function"
    },
    {
      "inputs": [],
      "name": "swapper",
      "outputs": [
        {
          "internalType": "contract ISwapper",
          "name": "",
          "type": "address"
        }
      ],
      "stateMutability": "view",
      "type": "function"
    },
    {
      "inputs": [
        {
          "internalType": "address",
          "name": "fromToken_",
          "type": "address"
        }
      ],
      "name": "sweep",
      "outputs": [],
      "stateMutability": "nonpayable",
      "type": "function"
    },
    {
      "inputs": [],
      "name": "tvl",
      "outputs": [
        {
          "internalType": "uint256",
          "name": "",
          "type": "uint256"
        }
      ],
      "stateMutability": "view",
      "type": "function"
    },
    {
      "inputs": [
        {
          "internalType": "address",
          "name": "feeCollector_",
          "type": "address"
        }
      ],
      "name": "updateFeeCollector",
      "outputs": [],
      "stateMutability": "nonpayable",
      "type": "function"
    },
    {
      "inputs": [
        {
          "internalType": "contract ISwapper",
          "name": "swapper_",
          "type": "address"
        }
      ],
      "name": "updateSwapper",
      "outputs": [],
      "stateMutability": "nonpayable",
      "type": "function"
    },
    {
      "inputs": [
        {
          "internalType": "address",
          "name": "newImplementation",
          "type": "address"
        },
        {
          "internalType": "bytes",
          "name": "data",
          "type": "bytes"
        }
      ],
      "name": "upgradeToAndCall",
      "outputs": [],
      "stateMutability": "payable",
      "type": "function"
    },
    {
      "inputs": [
        {
          "internalType": "uint256",
          "name": "amount_",
          "type": "uint256"
        }
      ],
      "name": "withdraw",
      "outputs": [],
      "stateMutability": "nonpayable",
      "type": "function"
    }
  ],
  "transactionHash": "0x870a318b27ba0b9358e05c1a905dc7296f80bfb4991b907c29239c75dbc43412",
  "args": [],
  "numDeployments": 1,
  "solcInputHash": "63ed26d812858149d133de3de58b3df0",
  "bytecode": "0x60a0806040523460c857306080527ff0c57e16840df040f15088dc2f81fe391c3923bec73e23a9662efc9c229c6a009081549060ff8260401c1660b957506001600160401b036002600160401b0319828216016075575b604051612b0290816100ce823960805181818161160c01526116d70152f35b6001600160401b031990911681179091556040519081527fc7f505b2f371ae2175ee4913f4499e1f2633a7b5936321eed1cdaeb6115181d290602090a13880806056565b63f92ee8a960e01b8152600490fd5b600080fdfe6080604052600436101561001257600080fd5b6000803560e01c806301681a6214611f405780630c340a2414611f145780631026013a14611ccb57806314ae9f2e14611c8157806316f0115b14611c5c57806322f3e2d414611ba75780632b3297f914611b825780632e1a7d4d14611a105780632f9cb53e146119eb5780633ac9fc111461195b5780634032b72b14611911578063440d7248146118e35780634f1ef2861461168657806352d1902d146115f15780635d130ec614611080578063951dc22c14610fd8578063a3f4df7e14610f11578063ad3cb1cc14610ebb578063b2016bd414610e8e578063ba3e9c1214610657578063c12d636b14610dee578063c415b95c14610dc9578063d2c35ce814610d2c578063d3033c3914610c74578063df8879b814610777578063e5328e061461067c578063ec78e83214610657578063ee330ee3146101f3578063f7c618c1146101c35763ffa1ad741461016757600080fd5b346101c057806003193601126101c0576101bc60405161018681612108565b600581527f362e302e310000000000000000000000000000000000000000000000000000006020820152604051918291826121b5565b0390f35b80fd5b50346101c057806003193601126101c05760206001600160a01b0360026101e861261a565b015416604051908152f35b50346101c05760403660031901126101c0576001600160a01b039060043582811680820361065357602492610243600561022b612327565b01339060019160005201602052604060002054151590565b1561062957610250612327565b92856004818654169501541690848414801561061a575b6105f057604051936370a0823160e01b9283865230600487015260209889878a818b5afa9687156105e55786976105b6575b50604051918583523060048401528a838b81875afa9283156105ab57908b969594939291889361057a575b5082610373575b5050505050856040518096819382523060048301525afa9081156103675790610333575b6102f99250612283565b9035811061030957604051908152f35b60046040517f8edbf6d8000000000000000000000000000000000000000000000000000000008152fd5b508382813d8311610360575b6103498183612140565b8101031261035b576102f991516102ef565b600080fd5b503d61033f565b604051903d90823e3d90fd5b6040517fdd62ed3e0000000000000000000000000000000000000000000000000000000081523060048201526001600160a01b03821660248201529596509394929391929091908b81604481885afa90811561056f57908c9594939291899161053c575b5095610441968411610493575b505060046103f0612327565b0154604051636ccb2b0160e01b81526001600160a01b039485166004820152938a166024850152604484019290925260016064840152306084840152919384929091169082908790829060a4820190565b03925af180156104885790879161045f575b808080809594956102cb565b813d8311610481575b6104728183612140565b8101031261035b578538610453565b503d610468565b6040513d85823e3d90fd5b604051908c87830188600063095ea7b360e01b92838152878588015281196044880152604487526104c387612124565b86519082875af16000513d82610520575b5050156104e4575b5050506103e4565b6105169461051192604051928b840152820152600060448201526044815261050b81612124565b8261271d565b61271d565b3880808c816104dc565b9091506105345750873b15155b38806104d4565b60011461052d565b86819792503d8311610568575b6105538183612140565b8101031261035b5793518b94906104416103d7565b503d610549565b6040513d8a823e3d90fd5b8781989294503d83116105a4575b6105928183612140565b8101031261035b578a955191386102c4565b503d610588565b6040513d89823e3d90fd5b9096508981813d83116105de575b6105ce8183612140565b8101031261035b57519538610299565b503d6105c4565b6040513d88823e3d90fd5b60046040517fb92ab523000000000000000000000000000000000000000000000000000000008152fd5b50610624846122a6565b610267565b60046040517f82b42900000000000000000000000000000000000000000000000000000000008152fd5b8280fd5b50346101c057806003193601126101c05760206001600160a01b0360026101e8612327565b50346101c057806003193601126101c0576001600160a01b03908160026106a1612327565b0154169060405180936370a0823160e01b9384835230600484015282602460209788935afa918215610488579085918493610746575b506106e0612327565b54169360246040518096819382523060048301525afa9182156103675791610715575b61070d925061231a565b604051908152f35b90508282813d831161073f575b61072c8183612140565b8101031261035b5761070d915190610703565b503d610722565b8281939294503d8311610770575b61075e8183612140565b8101031261035b5784905191386106d7565b503d610754565b50346101c05760403660031901126101c057602490610799600561022b612327565b15610629578081926001600160a01b03928360016107b5612327565b01541693604051907fd53ddc26000000000000000000000000000000000000000000000000000000008252306004830152602091828186818a5afa908115610af2578491610c47575b506040517f9f2b2833000000000000000000000000000000000000000000000000000000008152306004820152838187818b5afa908115610c3c578591610c0f575b508261084a612327565b541691604051906370a0823160e01b9283835230600484015286838a81885afa92831561056f578893610be0575b5082998988886002610888612327565b015416604051928380928a82523060048301525afa8015610bd5578a90610ba6575b6108b591508561231a565b9082821115610b945750906108c991612283565b915b6108d5828461231a565b818111610b28575b5050888118818a100218978880821115610b1e576108fa91612283565b8180821091180218975b803b15610b1a576040517f05bed046000000000000000000000000000000000000000000000000000000008152600481018a9052602481018b9052604481018990529086908290606490829084905af180156105e5578592918791610afd575b5050866040518094819382523060048301525afa928315610af2578493610ac2575b505081610a22575b50505060043583106109f357803584116109c457506101bc90604051938493846040919493926060820195825260208201520152565b83604051907fbfa80dbe0000000000000000000000000000000000000000000000000000000082526004820152fd5b82604051907fcc71aff40000000000000000000000000000000000000000000000000000000082526004820152fd5b806002610a2d612327565b01541690610a39612327565b5416813b15610abe576040517ff2b9fdb80000000000000000000000000000000000000000000000000000000081526001600160a01b03919091166004820152602481019290925282908290604490829084905af18015610ab357610a9f575b8061098e565b610aa982916120de565b6101c05780610a99565b6040513d84823e3d90fd5b8380fd5b9080929350813d8311610aeb575b610ada8183612140565b8101031261035b5751903880610986565b503d610ad0565b6040513d86823e3d90fd5b610b09919293506120de565b610b165783908538610964565b8480fd5b8580fd5b5050508497610904565b610b3d929a5090610b3891612283565b6123f0565b60405182815230600482015285818981875afa9081156105ab578791610b67575b509738806108dd565b90508581813d8311610b8d575b610b7e8183612140565b8101031261035b575138610b5e565b503d610b74565b939c50610ba091612283565b9a6108cb565b508881813d8311610bce575b610bbc8183612140565b8101031261035b576108b590516108aa565b503d610bb2565b6040513d8c823e3d90fd5b9092508681813d8311610c08575b610bf88183612140565b8101031261035b57519138610878565b503d610bee565b90508381813d8311610c35575b610c268183612140565b8101031261035b575138610840565b503d610c1c565b6040513d87823e3d90fd5b90508281813d8311610c6d575b610c5e8183612140565b8101031261035b5751386107fe565b503d610c54565b50346101c05760203660031901126101c0576004356001600160a01b03908181168091036106535781610ca561221d565b163303610629578015610d02576001600160a01b03196004610cc5612327565b01927f6c953b7ec311055c20b96a42cea31e89528e375b1bf953a503db40854b3188fe604085549281519084168152856020820152a11617905580f35b60046040517ffb7566d7000000000000000000000000000000000000000000000000000000008152fd5b50346101c05760203660031901126101c057610d466120c8565b6001600160a01b0380610d5761221d565b16330361062957808216908115610d02576001600160a01b0319907f0f06062680f9bd68e786e9980d9bb03d73d5620fc3b345e417b6eacb310b97066003610d9d612327565b018054604080519482166001600160a01b03908116865297909716602085015290959092a11617905580f35b50346101c057806003193601126101c05760206001600160a01b0360036101e8612327565b50346101c057806003193601126101c05760046001600160a01b036020816001610e16612327565b015416604051938480927fc12d636b0000000000000000000000000000000000000000000000000000000082525afa9182156104885760209392610e5f575b5060405191168152f35b610e80919250833d8511610e87575b610e788183612140565b8101906121fe565b9038610e55565b503d610e6e565b50346101c057806003193601126101c05760206001600160a01b03610eb1612327565b5416604051908152f35b50346101c057806003193601126101c0576101bc604051610edb81612108565b600581527f352e302e300000000000000000000000000000000000000000000000000000006020820152604051918291826121b5565b50346101c057806003193601126101c0576007610f2c612327565b0160405190828154610f3d816122e0565b91828552602093600192600181169081600014610fb45750600114610f79575b6101bc86610f6d818a0382612140565b604051918291826121b5565b9080949650528483205b828410610fa157505050816101bc93610f6d92820101933880610f5d565b8054858501870152928501928101610f83565b60ff19168787015250505050151560051b8201019150610f6d816101bc3880610f5d565b50346101c057806003193601126101c0576005610ff3612327565b0160405190819281548084526020809401908193835284832090835b81811061106c5750505084611025910385612140565b60405193838594850191818652518092526040850193925b82811061104c57505050500390f35b83516001600160a01b03168552869550938101939281019260010161103d565b82548452928601926001928301920161100f565b50346101c05760c03660031901126101c05761109a6120c8565b6024356001600160a01b038116810361035b57604435916001600160a01b038316830361035b57606435906001600160a01b038216820361035b57608435906001600160a01b038216820361035b5760a43567ffffffffffffffff81116115ed57366023820112156115ed5761111a90369060248160040135910161217e565b7ff0c57e16840df040f15088dc2f81fe391c3923bec73e23a9662efc9c229c6a00549467ffffffffffffffff8616801590816115dd575b60011490816115d3575b1590816115ca575b506115a057600167ffffffffffffffff198716177ff0c57e16840df040f15088dc2f81fe391c3923bec73e23a9662efc9c229c6a005560ff8660401c1615611561575b6111ae612a14565b6111b6612a14565b6001600160a01b038316158015611550575b801561153f575b610d02576111db612327565b92600184016001600160a01b0382166001600160a01b031982541617905560405190637e062a3560e11b82526020826004816001600160a01b0385165afa908115610bd5576001600160a01b0360209281948d91611522575b50166001600160a01b0319875416178655600286018388166001600160a01b031982541617905560046040518094819363030d028960e21b8352165afa9081156115175789916114f8575b506001600160a01b036003850191166001600160a01b03198254161790556001600160a01b036004840191166001600160a01b031982541617905580519067ffffffffffffffff82116114e4576112d960078401546122e0565b601f811161149f575b50602090601f831160011461142e57611321939291899183611423575b50508160011b916000199060031b1c19161760078201555b60053391016129b8565b506001600160a01b038416158015611412575b610d025760026001600160a01b039160ff958361134f61261a565b92166001600160a01b0319835416178255836001830191166001600160a01b03198254161790550191166001600160a01b031982541617905560401c16156113945780f35b68ff0000000000000000197ff0c57e16840df040f15088dc2f81fe391c3923bec73e23a9662efc9c229c6a0054167ff0c57e16840df040f15088dc2f81fe391c3923bec73e23a9662efc9c229c6a00557fc7f505b2f371ae2175ee4913f4499e1f2633a7b5936321eed1cdaeb6115181d2602060405160018152a180f35b506001600160a01b03821615611334565b0151905038806112ff565b906007840189526020892091895b601f198516811061148757509183916001936113219695601f1981161061146e575b505050811b016007820155611317565b015160001960f88460031b161c1916905538808061145e565b9192602060018192868501518155019401920161143c565b60078401895260208920601f840160051c8101602085106114dd575b601f830160051c820181106114d15750506112e2565b600081556001016114bb565b50806114bb565b602488634e487b7160e01b81526041600452fd5b611511915060203d602011610e8757610e788183612140565b3861127f565b6040513d8b823e3d90fd5b6115399150843d8611610e8757610e788183612140565b38611234565b506001600160a01b038416156111cf565b506001600160a01b038116156111c8565b68ffffffffffffffffff19861668010000000000000001177ff0c57e16840df040f15088dc2f81fe391c3923bec73e23a9662efc9c229c6a00556111a6565b60046040517ff92ee8a9000000000000000000000000000000000000000000000000000000008152fd5b90501538611163565b303b15915061115b565b604088901c60ff16159150611151565b8680fd5b50346101c057806003193601126101c0576001600160a01b037f000000000000000000000000000000000000000000000000000000000000000016300361165c5760206040517f360894a13ba1a3210667c828492db98dca3e2076cc3735a920a3ca505d382bbc8152f35b60046040517fe07c8dba000000000000000000000000000000000000000000000000000000008152fd5b5060403660031901126101c05761169b6120c8565b60243567ffffffffffffffff81116106535736602382011215610653576116cc90369060248160040135910161217e565b6001600160a01b03807f0000000000000000000000000000000000000000000000000000000000000000168030149081156118b5575b5061165c578061171061221d565b163303610629578216916040517f52d1902d000000000000000000000000000000000000000000000000000000008152602081600481875afa859181611881575b5061176e5760248460405190634c9c8ce360e01b82526004820152fd5b9284937f360894a13ba1a3210667c828492db98dca3e2076cc3735a920a3ca505d382bbc908181036118505750823b156118385780546001600160a01b0319168217905560405184917fbc7cd75a20ee27fd9adebab32041f755214dbc6bffa90cc0225b39da2e5c2d3b8380a28351156118035750808360206117ff95519101845af46117f96123c0565b91612a6d565b5080f35b9250505034611810575080f35b807fb398979f0000000000000000000000000000000000000000000000000000000060049252fd5b60248260405190634c9c8ce360e01b82526004820152fd5b602490604051907faa1d49a40000000000000000000000000000000000000000000000000000000082526004820152fd5b9091506020813d6020116118ad575b8161189d60209383612140565b81010312610b1a57519038611751565b3d9150611890565b9050817f360894a13ba1a3210667c828492db98dca3e2076cc3735a920a3ca505d382bbc5416141538611702565b50346101c05760203660031901126101c05760206119076119026120c8565b6122a6565b6040519015158152f35b50346101c05760203660031901126101c05761192b6120c8565b6001600160a01b03908161193d61221d565b163303610629576117ff916005611952612327565b019116906129b8565b50346101c05760203660031901126101c05760043561197d600561022b612327565b15610629576119e89061198e612327565b6119ac826001600160a01b0392836001818354169201541690612651565b6119cf82826119b9612327565b54168360026119c6612327565b01541690612651565b8060026119da61261a565b0154169060046119c6612327565b80f35b50346101c057806003193601126101c05760206001600160a01b0360016101e861261a565b50346101c057602080600319360112611b7e576004356001600160a01b03806001611a39612327565b015416330361062957806001611a4d612327565b0154169060405190637e062a3560e11b82528482600481865afa9182156105e5578692611b5f575b508116604051946370a0823160e01b8087523060048801528187602481865afa96871561056f578897611b30575b50858710611ab8575050506119e89350612369565b611ac9610b38879498849698612283565b60246040518098819382523060048301525afa9182156105e5578692611afe575b506119e89450818082109118021891612369565b90915084813d8311611b29575b611b158183612140565b8101031261035b576119e893519038611aea565b503d611b0b565b9096508181813d8311611b58575b611b488183612140565b8101031261035b57519538611aa3565b503d611b3e565b611b77919250853d8711610e8757610e788183612140565b9038611a75565b5080fd5b50346101c057806003193601126101c05760206001600160a01b0360046101e8612327565b50346101c057806003193601126101c0576001600160a01b036001611bca612327565b01541660405180917f228bfd9f0000000000000000000000000000000000000000000000000000000082523060048301528160246101209485935afa918215610488578392611c21575b6020836040519015158152f35b90809250813d8311611c55575b611c388183612140565b81010312611b7e57518015158103611b7e57602091503880611c14565b503d611c2e565b50346101c057806003193601126101c05760206001600160a01b0360016101e8612327565b50346101c05760203660031901126101c057611c9b6120c8565b6001600160a01b039081611cad61221d565b163303610629576117ff916005611cc2612327565b019116906128b1565b50346101c057602090816003193601126101c057611cec600561022b612327565b15610629576001600160a01b0380611d02612327565b541691604051916370a0823160e01b908184523060048501528584602481885afa938415610488578394611ee5575b50611d3a61261a565b6040516060810181811067ffffffffffffffff821117611ed1579060409291835283825416908181528460028160018601541694858d8501520154169384910152813b15610b1a5785916064839260405194859384927fb7034f7e0000000000000000000000000000000000000000000000000000000084526004840152306024840152600160448401525af18015610c3c57611ebe575b50604051908382523060048301528782602481845afa918215610c3c579088949392918692611e8d575b5081611e70575b50505060246040518096819382523060048301525afa9081156103675790611e41575b611e309250612283565b600435811061030957604051908152f35b508282813d8311611e69575b611e578183612140565b8101031261035b57611e309151611e26565b503d611e4d565b611e8492611e7c612327565b5416906127ca565b50388080611e03565b8581969293503d8311611eb7575b611ea58183612140565b8101031261035b578793519038611dfc565b503d611e9b565b611eca909491946120de565b9238611dd2565b602486634e487b7160e01b81526041600452fd5b9093508581813d8311611f0d575b611efd8183612140565b8101031261065357519238611d31565b503d611ef3565b50346101c057806003193601126101c0576020611f2f61221d565b6001600160a01b0360405191168152f35b50346101c05760203660031901126101c057611f5a6120c8565b611f67600561022b612327565b15610629576001600160a01b03806003611f7f612327565b01541691821561209e5781611f92612327565b541691811691821490811561208e575b506105f05773eeeeeeeeeeeeeeeeeeeeeeeeeeeeeeeeeeeeeeee810361202357504790814710611feb578280809381935af1611fdc6123c0565b9015611fe6575080f35b612791565b6044824790604051917fcf47918100000000000000000000000000000000000000000000000000000000835260048301526024820152fd5b604051916370a0823160e01b8352306004840152602083602481855afa918215610af2578492612058575b6119e89350612369565b91506020833d602011612086575b8161207360209383612140565b81010312610abe576119e892519161204e565b3d9150612066565b61209891506122a6565b38611fa2565b60046040517fb4b53f42000000000000000000000000000000000000000000000000000000008152fd5b600435906001600160a01b038216820361035b57565b67ffffffffffffffff81116120f257604052565b634e487b7160e01b600052604160045260246000fd5b6040810190811067ffffffffffffffff8211176120f257604052565b6080810190811067ffffffffffffffff8211176120f257604052565b90601f8019910116810190811067ffffffffffffffff8211176120f257604052565b67ffffffffffffffff81116120f257601f01601f191660200190565b92919261218a82612162565b916121986040519384612140565b82948184528183011161035b578281602093846000960137010152565b6020808252825181830181905290939260005b8281106121ea57505060409293506000838284010152601f8019910116010190565b8181018601518482016040015285016121c8565b9081602091031261035b57516001600160a01b038116810361035b5790565b600460206001600160a01b036001612233612327565b0154166040519283809263030d028960e21b82525afa9081156122775760009161225b575090565b612274915060203d602011610e8757610e788183612140565b90565b6040513d6000823e3d90fd5b9190820391821161229057565b634e487b7160e01b600052601160045260246000fd5b6001600160a01b0390818060026122bb612327565b01541691169081149182156122cf57505090565b9091506122da612327565b54161490565b90600182811c92168015612310575b60208310146122fa57565b634e487b7160e01b600052602260045260246000fd5b91607f16916122ef565b9190820180921161229057565b604051602081017f2406840ad5584694fd0fd68ca814242285d2c2d94aaaee51ccea0b7e08ea3d5b81526020825261235e82612108565b9051902060ff191690565b6040517fa9059cbb0000000000000000000000000000000000000000000000000000000060208201526001600160a01b039290921660248301526044808301939093529181526123be91610511606483612140565b565b3d156123eb573d906123d182612162565b916123df6040519384612140565b82523d6000602084013e565b606090565b6001600160a01b0390816002612404612327565b0154169060409182516370a0823160e01b815230600482015260208082602481865afa91821561260f576000926125e0575b50856002612442612327565b015416908551917f18160ddd0000000000000000000000000000000000000000000000000000000083528183600481845afa9283156125a6576000936125b1575b50816004918851928380927f8285ef400000000000000000000000000000000000000000000000000000000082525afa9182156125a657600092612578575b5050600091818111600014612570576124db9250612283565b905b8180821091180218936124ee612327565b541690803b1561035b5783517ff3fef3a30000000000000000000000000000000000000000000000000000000081526001600160a01b039290921660048301528285119285189290920290931860248401526000908390604490829084905af1908115612566575061255d5750565b6123be906120de565b513d6000823e3d90fd5b5050906124dd565b90809250813d831161259f575b61258f8183612140565b8101031261035b575138806124c2565b503d612585565b87513d6000823e3d90fd5b9092508181813d83116125d9575b6125c98183612140565b8101031261035b57519181612483565b503d6125bf565b9080925081813d8311612608575b6125f88183612140565b8101031261035b57519038612436565b503d6125ee565b85513d6000823e3d90fd5b604051602081017fb53aa5a381c7e4e260d08c43c3f49caa1e0aa1628b409cfdaeccc3ab823a87a981526020825261235e82612108565b604051916020600081850161269d8661268f63095ea7b360e01b998a85528760248401602090939291936001600160a01b0360408201951681520152565b03601f198101885287612140565b85519082865af16000513d826126f8575b5050156126bc575b50505050565b6126ef936001600160a01b0361051192604051926020840152166024820152600060448201526044815261050b81612124565b388080806126b6565b90915061271557506001600160a01b0382163b15155b38806126ae565b60011461270e565b906000602091828151910182855af115612277576000513d61278857506001600160a01b0381163b155b61274e5750565b6024906001600160a01b03604051917f5274afe7000000000000000000000000000000000000000000000000000000008352166004820152fd5b60011415612747565b8051156127a057805190602001fd5b60046040517fd6bda275000000000000000000000000000000000000000000000000000000008152fd5b6020916128379360006001600160a01b0360046127e5612327565b0154169260405196879586948593636ccb2b0160e01b8552309260048601929360809291959460a08501966001600160a01b039384809216875216602086015260408501526001606085015216910152565b03925af16000918161284f575b506122745750600090565b9091506020813d60201161287b575b8161286b60209383612140565b8101031261035b57519038612844565b3d915061285e565b805482101561289b5760005260206000200190600090565b634e487b7160e01b600052603260045260246000fd5b906001820190600092818452826020526040842054908115156000146129b1576000199180830181811161299d578254908482019182116129895781810361293d575b505050805480156129295782019161290c8383612883565b909182549160031b1b191690555582526020526040812055600190565b602486634e487b7160e01b81526031600452fd5b61297461294d61295d9386612883565b90549060031b1c92839286612883565b819391549060031b91821b91600019901b19161790565b905586528460205260408620553880806128f4565b602488634e487b7160e01b81526011600452fd5b602487634e487b7160e01b81526011600452fd5b5050505090565b6000828152600182016020526040902054612a0d57805490680100000000000000008210156120f257826129f661295d846001809601855584612883565b905580549260005201602052604060002055600190565b5050600090565b60ff7ff0c57e16840df040f15088dc2f81fe391c3923bec73e23a9662efc9c229c6a005460401c1615612a4357565b60046040517fd7e6bcf8000000000000000000000000000000000000000000000000000000008152fd5b90612a785750612791565b81511580612ac3575b612a89575090565b6024906001600160a01b03604051917f9996b315000000000000000000000000000000000000000000000000000000008352166004820152fd5b50803b15612a8156fea264697066735822122078c2aa7d598a8afe9e39a64c729e819e117d7dff286e6b7822065e038250a0b564736f6c63430008190033",
  "devdoc": {
    "errors": {
      "AddressEmptyCode(address)": [
        {
          "details": "There's no code at `target` (it is not a contract)."
        }
      ],
      "ERC1967InvalidImplementation(address)": [
        {
          "details": "The `implementation` of the proxy is invalid."
        }
      ],
      "ERC1967NonPayable()": [
        {
          "details": "An upgrade function sees `msg.value > 0` that may be lost."
        }
      ],
      "FailedCall()": [
        {
          "details": "A call to an address target failed. The target may have reverted."
        }
      ],
      "InsufficientBalance(uint256,uint256)": [
        {
          "details": "The ETH balance of the account is not enough to perform the operation."
        }
      ],
      "InvalidInitialization()": [
        {
          "details": "The contract is already initialized."
        }
      ],
      "NotInitializing()": [
        {
          "details": "The contract is not initializing."
        }
      ],
      "SafeERC20FailedOperation(address)": [
        {
          "details": "An operation with an ERC-20 token failed."
        }
      ],
      "UUPSUnauthorizedCallContext()": [
        {
          "details": "The call is from an unauthorized context."
        }
      ],
      "UUPSUnsupportedProxiableUUID(bytes32)": [
        {
          "details": "The storage `slot` is unsupported as a UUID."
        }
      ]
    },
    "events": {
      "Initialized(uint64)": {
        "details": "Triggered when the contract has been initialized or reinitialized."
      },
      "Upgraded(address)": {
        "details": "Emitted when the implementation is upgraded."
      }
    },
    "kind": "dev",
    "methods": {
      "addKeeper(address)": {
        "params": {
          "keeperAddress_": "keeper address to add."
        }
      },
      "approveToken(uint256)": {
        "details": "OnlyKeeper: Approve all required tokens"
      },
      "claimAndSwapRewards(uint256)": {
        "details": "Claim rewardToken and convert rewardToken into collateral token."
      },
      "proxiableUUID()": {
        "details": "Implementation of the ERC-1822 {proxiableUUID} function. This returns the storage slot used by the implementation. It is used to validate the implementation's compatibility when performing an upgrade. IMPORTANT: A proxy pointing at a proxiable contract should not be considered proxiable itself, because this risks bricking a proxy that upgrades to it, by delegating to itself until out of gas. Thus it is critical that this function revert if invoked through a proxy. This is guaranteed by the `notDelegated` modifier."
      },
      "rebalance(uint256,uint256)": {
        "params": {
          "maxLoss_": "Maximum accepted loss for this call.",
          "minProfit_": "Minimum profit expected from this call."
        },
        "returns": {
          "_loss": "Realized loss, if any, in collateral.",
          "_payback": "If strategy has any excess debt, we have to liquidate asset to payback excess debt.",
          "_profit": "Realized profit in collateral."
        }
      },
      "removeKeeper(address)": {
        "params": {
          "keeperAddress_": "keeper address to remove."
        }
      },
      "sweep(address)": {
        "params": {
          "fromToken_": "token address to sweep"
        }
      },
      "updateFeeCollector(address)": {
        "params": {
          "feeCollector_": "fee collector address"
        }
      },
      "updateSwapper(address)": {
        "params": {
          "swapper_": "swapper address"
        }
      },
      "upgradeToAndCall(address,bytes)": {
        "custom:oz-upgrades-unsafe-allow-reachable": "delegatecall",
        "details": "Upgrade the implementation of the proxy to `newImplementation`, and subsequently execute the function call encoded in `data`. Calls {_authorizeUpgrade}. Emits an {Upgraded} event."
      },
      "withdraw(uint256)": {
        "params": {
          "amount_": "Amount of collateral token"
        }
      }
    },
    "title": "This strategy will deposit base asset i.e. USDC in Compound V3 and earn interest.",
    "version": 1
  },
  "userdoc": {
    "kind": "user",
    "methods": {
      "addKeeper(address)": {
        "notice": "onlyGovernor: Add given address in keepers list."
      },
      "claimAndSwapRewards(uint256)": {
        "notice": "OnlyKeeper: Claim rewards from protocol."
      },
      "isReservedToken(address)": {
        "notice": "Check whether given token is reserved or not. Reserved tokens are not allowed to sweep."
      },
      "keepers()": {
        "notice": "Return list of keepers"
      },
      "rebalance(uint256,uint256)": {
        "notice": "OnlyKeeper: Rebalance profit, loss and investment of this strategy.  Calculate profit, loss and payback of this strategy and realize profit/loss and  withdraw fund for payback, if any, and submit this report to pool."
      },
      "removeKeeper(address)": {
        "notice": "onlyGovernor: Remove given address from keepers list."
      },
      "swapToCollateral(address,uint256)": {
        "notice": "onlyKeeper: Swap given token into collateral token."
      },
      "sweep(address)": {
        "notice": "onlyKeeper: sweep given token to feeCollector of strategy"
      },
      "tvl()": {
        "notice": "Returns total collateral locked in the strategy"
      },
      "updateFeeCollector(address)": {
        "notice": "onlyGovernor: Update fee collector"
      },
      "updateSwapper(address)": {
        "notice": "onlyGovernor: Update swapper"
      },
      "withdraw(uint256)": {
        "notice": "onlyPool: Withdraw collateral token from end protocol."
      }
    },
    "version": 1
  },
  "storageLayout": {
    "storage": [],
    "types": null
  }
}