{
  "address": "0x0E4636400B5672c84512968D83103fABE07Bfc08",
  "abi": [
    {
      "inputs": [
        {
          "internalType": "address",
          "name": "target",
          "type": "address"
        }
      ],
      "name": "AddressEmptyCode",
      "type": "error"
    },
    {
      "inputs": [],
      "name": "AddressIsNull",
      "type": "error"
    },
    {
      "inputs": [],
      "name": "CanNotSweepToken",
      "type": "error"
    },
    {
      "inputs": [
        {
          "internalType": "address",
          "name": "implementation",
          "type": "address"
        }
      ],
      "name": "ERC1967InvalidImplementation",
      "type": "error"
    },
    {
      "inputs": [],
      "name": "ERC1967NonPayable",
      "type": "error"
    },
    {
      "inputs": [],
      "name": "FailedCall",
      "type": "error"
    },
    {
      "inputs": [],
      "name": "FeeCollectorNotSet",
      "type": "error"
    },
    {
      "inputs": [
        {
          "internalType": "uint256",
          "name": "balance",
          "type": "uint256"
        },
        {
          "internalType": "uint256",
          "name": "needed",
          "type": "uint256"
        }
      ],
      "name": "InsufficientBalance",
      "type": "error"
    },
    {
      "inputs": [],
      "name": "InvalidInitialization",
      "type": "error"
    },
    {
      "inputs": [],
      "name": "InvalidLendingPool",
      "type": "error"
    },
    {
      "inputs": [],
      "name": "InvalidReserve",
      "type": "error"
    },
    {
      "inputs": [],
      "name": "InvalidStrategy",
      "type": "error"
    },
    {
      "inputs": [],
      "name": "NotEnoughAmountOut",
      "type": "error"
    },
    {
      "inputs": [
        {
          "internalType": "uint256",
          "name": "",
          "type": "uint256"
        }
      ],
      "name": "NotEnoughProfit",
      "type": "error"
    },
    {
      "inputs": [],
      "name": "NotInitializing",
      "type": "error"
    },
    {
      "inputs": [
        {
          "internalType": "address",
          "name": "token",
          "type": "address"
        }
      ],
      "name": "SafeERC20FailedOperation",
      "type": "error"
    },
    {
      "inputs": [],
      "name": "SlippageTooHigh",
      "type": "error"
    },
    {
      "inputs": [
        {
          "internalType": "uint256",
          "name": "",
          "type": "uint256"
        }
      ],
      "name": "TooMuchLoss",
      "type": "error"
    },
    {
      "inputs": [],
      "name": "UUPSUnauthorizedCallContext",
      "type": "error"
    },
    {
      "inputs": [
        {
          "internalType": "bytes32",
          "name": "slot",
          "type": "bytes32"
        }
      ],
      "name": "UUPSUnsupportedProxiableUUID",
      "type": "error"
    },
    {
      "inputs": [],
      "name": "Unauthorized",
      "type": "error"
    },
    {
      "anonymous": false,
      "inputs": [
        {
          "indexed": false,
          "internalType": "uint64",
          "name": "version",
          "type": "uint64"
        }
      ],
      "name": "Initialized",
      "type": "event"
    },
    {
      "anonymous": false,
      "inputs": [
        {
          "indexed": false,
          "internalType": "address",
          "name": "oldFeeCollector",
          "type": "address"
        },
        {
          "indexed": false,
          "internalType": "address",
          "name": "newFeeCollector",
          "type": "address"
        }
      ],
      "name": "UpdatedFeeCollector",
      "type": "event"
    },
    {
      "anonymous": false,
      "inputs": [
        {
          "indexed": false,
          "internalType": "contract ISwapper",
          "name": "oldSwapper",
          "type": "address"
        },
        {
          "indexed": false,
          "internalType": "contract ISwapper",
          "name": "newSwapper",
          "type": "address"
        }
      ],
      "name": "UpdatedSwapper",
      "type": "event"
    },
    {
      "anonymous": false,
      "inputs": [
        {
          "indexed": true,
          "internalType": "address",
          "name": "implementation",
          "type": "address"
        }
      ],
      "name": "Upgraded",
      "type": "event"
    },
    {
      "inputs": [],
      "name": "NAME",
      "outputs": [
        {
          "internalType": "string",
          "name": "",
          "type": "string"
        }
      ],
      "stateMutability": "view",
      "type": "function"
    },
    {
      "inputs": [],
      "name": "UPGRADE_INTERFACE_VERSION",
      "outputs": [
        {
          "internalType": "string",
          "name": "",
          "type": "string"
        }
      ],
      "stateMutability": "view",
      "type": "function"
    },
    {
      "inputs": [],
      "name": "VERSION",
      "outputs": [
        {
          "internalType": "string",
          "name": "",
          "type": "string"
        }
      ],
      "stateMutability": "pure",
      "type": "function"
    },
    {
      "inputs": [
        {
          "internalType": "address",
          "name": "keeperAddress_",
          "type": "address"
        }
      ],
      "name": "addKeeper",
      "outputs": [],
      "stateMutability": "nonpayable",
      "type": "function"
    },
    {
      "inputs": [
        {
          "internalType": "uint256",
          "name": "approvalAmount_",
          "type": "uint256"
        }
      ],
      "name": "approveToken",
      "outputs": [],
      "stateMutability": "nonpayable",
      "type": "function"
    },
    {
      "inputs": [
        {
          "internalType": "uint256",
          "name": "minAmountOut_",
          "type": "uint256"
        }
      ],
      "name": "claimAndSwapRewards",
      "outputs": [
        {
          "internalType": "uint256",
          "name": "_amountOut",
          "type": "uint256"
        }
      ],
      "stateMutability": "nonpayable",
      "type": "function"
    },
    {
      "inputs": [],
      "name": "collateralToken",
      "outputs": [
        {
          "internalType": "contract IERC20",
          "name": "",
          "type": "address"
        }
      ],
      "stateMutability": "view",
      "type": "function"
    },
    {
      "inputs": [],
      "name": "eToken",
      "outputs": [
        {
          "internalType": "contract IEToken",
          "name": "",
          "type": "address"
        }
      ],
      "stateMutability": "view",
      "type": "function"
    },
    {
      "inputs": [],
      "name": "feeCollector",
      "outputs": [
        {
          "internalType": "address",
          "name": "",
          "type": "address"
        }
      ],
      "stateMutability": "view",
      "type": "function"
    },
    {
      "inputs": [],
      "name": "governor",
      "outputs": [
        {
          "internalType": "address",
          "name": "",
          "type": "address"
        }
      ],
      "stateMutability": "view",
      "type": "function"
    },
    {
      "inputs": [
        {
          "internalType": "address",
          "name": "pool_",
          "type": "address"
        },
        {
          "internalType": "address",
          "name": "swapper_",
          "type": "address"
        },
        {
          "internalType": "contract ILendingPool",
          "name": "lendingPool_",
          "type": "address"
        },
        {
          "internalType": "uint256",
          "name": "reserveId_",
          "type": "uint256"
        },
        {
          "internalType": "string",
          "name": "name_",
          "type": "string"
        }
      ],
      "name": "initialize",
      "outputs": [],
      "stateMutability": "nonpayable",
      "type": "function"
    },
    {
      "inputs": [],
      "name": "isActive",
      "outputs": [
        {
          "internalType": "bool",
          "name": "",
          "type": "bool"
        }
      ],
      "stateMutability": "view",
      "type": "function"
    },
    {
      "inputs": [
        {
          "internalType": "address",
          "name": "token_",
          "type": "address"
        }
      ],
      "name": "isReservedToken",
      "outputs": [
        {
          "internalType": "bool",
          "name": "",
          "type": "bool"
        }
      ],
      "stateMutability": "view",
      "type": "function"
    },
    {
      "inputs": [],
      "name": "keepers",
      "outputs": [
        {
          "internalType": "address[]",
          "name": "",
          "type": "address[]"
        }
      ],
      "stateMutability": "view",
      "type": "function"
    },
    {
      "inputs": [],
      "name": "lendingPool",
      "outputs": [
        {
          "internalType": "contract ILendingPool",
          "name": "",
          "type": "address"
        }
      ],
      "stateMutability": "view",
      "type": "function"
    },
    {
      "inputs": [
        {
          "internalType": "uint256",
          "name": "newReserveId_",
          "type": "uint256"
        },
        {
          "internalType": "uint256",
          "name": "claimAmountOutMin_",
          "type": "uint256"
        }
      ],
      "name": "migrateReserve",
      "outputs": [],
      "stateMutability": "nonpayable",
      "type": "function"
    },
    {
      "inputs": [],
      "name": "pool",
      "outputs": [
        {
          "internalType": "contract IVesperPool",
          "name": "",
          "type": "address"
        }
      ],
      "stateMutability": "view",
      "type": "function"
    },
    {
      "inputs": [],
      "name": "poolAccountant",
      "outputs": [
        {
          "internalType": "address",
          "name": "",
          "type": "address"
        }
      ],
      "stateMutability": "view",
      "type": "function"
    },
    {
      "inputs": [],
      "name": "proxiableUUID",
      "outputs": [
        {
          "internalType": "bytes32",
          "name": "",
          "type": "bytes32"
        }
      ],
      "stateMutability": "view",
      "type": "function"
    },
    {
      "inputs": [
        {
          "internalType": "uint256",
          "name": "minProfit_",
          "type": "uint256"
        },
        {
          "internalType": "uint256",
          "name": "maxLoss_",
          "type": "uint256"
        }
      ],
      "name": "rebalance",
      "outputs": [
        {
          "internalType": "uint256",
          "name": "_profit",
          "type": "uint256"
        },
        {
          "internalType": "uint256",
          "name": "_loss",
          "type": "uint256"
        },
        {
          "internalType": "uint256",
          "name": "_payback",
          "type": "uint256"
        }
      ],
      "stateMutability": "nonpayable",
      "type": "function"
    },
    {
      "inputs": [],
      "name": "receiptToken",
      "outputs": [
        {
          "internalType": "address",
          "name": "",
          "type": "address"
        }
      ],
      "stateMutability": "view",
      "type": "function"
    },
    {
      "inputs": [
        {
          "internalType": "uint256",
          "name": "claimAmountOutMin_",
          "type": "uint256"
        }
      ],
      "name": "refetchRewardTokens",
      "outputs": [],
      "stateMutability": "nonpayable",
      "type": "function"
    },
    {
      "inputs": [
        {
          "internalType": "address",
          "name": "keeperAddress_",
          "type": "address"
        }
      ],
      "name": "removeKeeper",
      "outputs": [],
      "stateMutability": "nonpayable",
      "type": "function"
    },
    {
      "inputs": [],
      "name": "reserveId",
      "outputs": [
        {
          "internalType": "uint256",
          "name": "",
          "type": "uint256"
        }
      ],
      "stateMutability": "view",
      "type": "function"
    },
    {
      "inputs": [],
      "name": "rewardTokens",
      "outputs": [
        {
          "internalType": "address[]",
          "name": "",
          "type": "address[]"
        }
      ],
      "stateMutability": "view",
      "type": "function"
    },
    {
      "inputs": [],
      "name": "staking",
      "outputs": [
        {
          "internalType": "contract IStakingRewards",
          "name": "",
          "type": "address"
        }
      ],
      "stateMutability": "view",
      "type": "function"
    },
    {
      "inputs": [
        {
          "internalType": "contract IERC20",
          "name": "tokenIn_",
          "type": "address"
        },
        {
          "internalType": "uint256",
          "name": "minAmountOut_",
          "type": "uint256"
        }
      ],
      "name": "swapToCollateral",
      "outputs": [
        {
          "internalType": "uint256",
          "name": "_amountOut",
          "type": "uint256"
        }
      ],
      "stateMutability": "nonpayable",
      "type": "function"
    },
    {
      "inputs": [],
      "name": "swapper",
      "outputs": [
        {
          "internalType": "contract ISwapper",
          "name": "",
          "type": "address"
        }
      ],
      "stateMutability": "view",
      "type": "function"
    },
    {
      "inputs": [
        {
          "internalType": "address",
          "name": "fromToken_",
          "type": "address"
        }
      ],
      "name": "sweep",
      "outputs": [],
      "stateMutability": "nonpayable",
      "type": "function"
    },
    {
      "inputs": [],
      "name": "tvl",
      "outputs": [
        {
          "internalType": "uint256",
          "name": "",
          "type": "uint256"
        }
      ],
      "stateMutability": "view",
      "type": "function"
    },
    {
      "inputs": [
        {
          "internalType": "address",
          "name": "feeCollector_",
          "type": "address"
        }
      ],
      "name": "updateFeeCollector",
      "outputs": [],
      "stateMutability": "nonpayable",
      "type": "function"
    },
    {
      "inputs": [
        {
          "internalType": "contract ISwapper",
          "name": "swapper_",
          "type": "address"
        }
      ],
      "name": "updateSwapper",
      "outputs": [],
      "stateMutability": "nonpayable",
      "type": "function"
    },
    {
      "inputs": [
        {
          "internalType": "address",
          "name": "newImplementation",
          "type": "address"
        },
        {
          "internalType": "bytes",
          "name": "data",
          "type": "bytes"
        }
      ],
      "name": "upgradeToAndCall",
      "outputs": [],
      "stateMutability": "payable",
      "type": "function"
    },
    {
      "inputs": [
        {
          "internalType": "uint256",
          "name": "amount_",
          "type": "uint256"
        }
      ],
      "name": "withdraw",
      "outputs": [],
      "stateMutability": "nonpayable",
      "type": "function"
    }
  ],
  "transactionHash": "0x9a8c37504b3d73ca6afbcd64750c0df9c941a785e4524435c7061b4b6311d277",
  "args": [],
  "numDeployments": 1,
  "solcInputHash": "63ed26d812858149d133de3de58b3df0",
  "bytecode": "0x60a0806040523460c857306080527ff0c57e16840df040f15088dc2f81fe391c3923bec73e23a9662efc9c229c6a009081549060ff8260401c1660b957506001600160401b036002600160401b0319828216016075575b604051613a0c90816100ce82396080518181816118c701526119920152f35b6001600160401b031990911681179091556040519081527fc7f505b2f371ae2175ee4913f4499e1f2633a7b5936321eed1cdaeb6115181d290602090a13880806056565b63f92ee8a960e01b8152600490fd5b600080fdfe6080604052600436101561001257600080fd5b6000803560e01c806301681a62146121535780630c340a24146121275780631026013a1461201657806314ae9f2e14611fcc57806316f0115b14611fa757806322f3e2d414611ef25780632b3297f914611ecd5780632e1a7d4d14611d5b5780633ac9fc1114611c3b5780634032b72b14611bf1578063440d724814611bc35780634cf088d914611b9e5780634f1ef2861461194157806352d1902d146118ac5780636557ef67146117025780636cfa2a8214611293578063951dc22c14611230578063953d9cf1146109ad578063a3f4df7e14611169578063a59a997314611146578063ad3cb1cc146110f0578063b2016bd4146110c3578063c12d636b14611023578063c2b18aa014610ff0578063c415b95c14610fcb578063d2c35ce814610f2e578063d3033c3914610e8f578063df8879b814610aa1578063e5328e0614610a04578063ea8d1f0a146109dd578063ec78e832146109ad578063ee330ee31461059d578063fa24c171146101ef5763ffa1ad741461019357600080fd5b346101ec57806003193601126101ec576101e86040516101b281612337565b600581527f362e302e31000000000000000000000000000000000000000000000000000000602082015260405191829182612429565b0390f35b80fd5b50346101ec576101fe36612472565b906001600160a01b03806102106124a7565b1633036105735780610220612624565b541692604051926370a0823160e01b9182855230600486015260209485816024818a5afa90811561043f578891610546575b5061025b612715565b6040519084825230600483015286826024818b5afa801561053b57899061050c575b610287925061250d565b106104e25785836001610298612ce3565b015416604051908482523060048301528682602481845afa9182156103ca5783926104b0575b508161044a575b505050826102d1612ce3565b541660248560036102e0612ce3565b01549560026102ed612ce3565b015416604051928380928882523060048301525afa801561043f578691899161040e575b50604051631a42a82760e31b815260048101969096526024860152306044860152600060648601528480608481015b03818a855af19384156104035785946103d5575b509061035f91612e86565b610367612bec565b60246040518095819382523060048301525afa9081156103ca578391610395575b8361039283613493565b80f35b905081813d83116103c3575b6103ab818361236f565b810103126103be57610392905138610388565b600080fd5b503d6103a1565b6040513d85823e3d90fd5b849192943d83116103fc575b6103eb818361236f565b810103126103be5791839238610354565b503d6103e1565b6040513d89823e3d90fd5b82819392503d8311610438575b610425818361236f565b810103126103be57518590610340610311565b503d61041b565b6040513d8a823e3d90fd5b803b156104ac57604051627b8a6760e11b8152600481019290925230602483015282908290604490829084905af180156104a157610489575b806102c5565b610492906122f1565b61049d578538610483565b8580fd5b6040513d84823e3d90fd5b8280fd5b925090508582813d81116104db575b6104c9818361236f565b810103126103be5787915190386102be565b503d6104bf565b60046040517f850c6f76000000000000000000000000000000000000000000000000000000008152fd5b508682813d8311610534575b610522818361236f565b810103126103be57610287915161027d565b503d610518565b6040513d8b823e3d90fd5b90508581813d831161056c575b61055d818361236f565b810103126103be575138610252565b503d610553565b60046040517f82b42900000000000000000000000000000000000000000000000000000000008152fd5b50346101ec5760403660031901126101ec576001600160a01b03906004358281168082036104ac576024926105ed60056105d5612624565b01339060019160005201602052604060002054151590565b15610573576105fa612624565b92856004818654169501541690848414801561099e575b61097457604051936370a0823160e01b9283865230600487015260209889878a818b5afa96871561096957869761093a575b50604051918583523060048401528a838b81875afa92831561040357908b9695949392918893610909575b5082610718575b5050505050856040518096819382523060048301525afa90811561070c57906106dd575b6106a3925061250d565b903581106106b357604051908152f35b60046040517f8edbf6d8000000000000000000000000000000000000000000000000000000008152fd5b508382813d8311610705575b6106f3818361236f565b810103126103be576106a39151610699565b503d6106e9565b604051903d90823e3d90fd5b6040517fdd62ed3e0000000000000000000000000000000000000000000000000000000081523060048201526001600160a01b03821660248201529596509394929391929091908b81604481885afa90811561043f57908c959493929189916108d6575b50956107e696841161082d575b50506004610795612624565b0154604051636ccb2b0160e01b81526001600160a01b039485166004820152938a166024850152604484019290925260016064840152306084840152919384929091169082908790829060a4820190565b03925af180156103ca57908791610804575b80808080959495610675565b813d8311610826575b610817818361236f565b810103126103be5785386107f8565b503d61080d565b604051908c87830188600063095ea7b360e01b928381528785880152811960448801526044875261085d87612353565b86519082875af16000513d826108ba575b50501561087e575b505050610789565b6108b0946108ab92604051928b84015282015260006044820152604481526108a581612353565b8261363d565b61363d565b3880808c81610876565b9091506108ce5750873b15155b388061086e565b6001146108c7565b86819792503d8311610902575b6108ed818361236f565b810103126103be5793518b94906107e661077c565b503d6108e3565b8781989294503d8311610933575b610921818361236f565b810103126103be578a9551913861066e565b503d610917565b9096508981813d8311610962575b610952818361236f565b810103126103be57519538610643565b503d610948565b6040513d88823e3d90fd5b60046040517fb92ab523000000000000000000000000000000000000000000000000000000008152fd5b506109a884612530565b610611565b50346101ec57806003193601126101ec5760206001600160a01b0360026109d2612ce3565b015416604051908152f35b50346101ec57806003193601126101ec57602060036109fa612ce3565b0154604051908152f35b50346101ec57806003193601126101ec57602460206001600160a01b03610a29612624565b5416604051928380926370a0823160e01b82523060048301525afa91821561070c5791610a6d575b6020610a6583610a5f613193565b90612617565b604051908152f35b90506020813d602011610a99575b81610a886020938361236f565b810103126103be5751610a65610a51565b3d9150610a7b565b50346101ec57610ab036612472565b9190610abf60056105d5612624565b1561057357819082936001600160a01b0391826001610adc612624565b01541694604051907fd53ddc260000000000000000000000000000000000000000000000000000000082523060048301526020602495818488818c5afa9384156103ca578394610e60575b50604051907f9f2b2833000000000000000000000000000000000000000000000000000000008252306004830152828289818d5afa918215610d5c578492610e31575b50610b73612624565b541693604051906370a0823160e01b9283835230600484015284838b818a5afa928315610969578693610e02575b50829a610bb5610baf613193565b85612617565b9082821115610df0575090610bc99161250d565b915b610bd58284612617565b818111610d75575b5050898118818b100218988980821115610d6b57610bfa9161250d565b8180821091180218985b803b15610d67576040517f05bed046000000000000000000000000000000000000000000000000000000008152600481018b9052602481018c9052604481018a90529084908290606490829084905af18015610d5c57610d49575b508190876040518096819382523060048301525afa91821561070c5791610d19575b50610c8c9150613493565b8410610ce9578411610cba57506101e890604051938493846040919493926060820195825260208201520152565b83604051907fbfa80dbe0000000000000000000000000000000000000000000000000000000082526004820152fd5b5082604051907fcc71aff40000000000000000000000000000000000000000000000000000000082526004820152fd5b905081813d8311610d42575b610d2f818361236f565b810103126103be57610c8c905138610c81565b503d610d25565b92610d558392946122f1565b9290610c5f565b6040513d86823e3d90fd5b8380fd5b5050508298610c04565b610d8a929b5090610d859161250d565b61287e565b60405182815230600482015283818a81895afa908115610de5578591610db4575b50983880610bdd565b90508381813d8311610dde575b610dcb818361236f565b81010312610dda575138610dab565b8480fd5b503d610dc1565b6040513d87823e3d90fd5b939d50610dfc9161250d565b9b610bcb565b9092508481813d8311610e2a575b610e1a818361236f565b8101031261049d57519138610ba1565b503d610e10565b9091508281813d8311610e59575b610e49818361236f565b81010312610d6757519038610b6a565b503d610e3f565b9093508181813d8311610e88575b610e78818361236f565b810103126104ac57519238610b27565b503d610e6e565b50346101ec5760203660031901126101ec576004356001600160a01b03908181168091036104ac5781610ec06124a7565b163303610573578015610f1d576001600160a01b03196004610ee0612624565b01927f6c953b7ec311055c20b96a42cea31e89528e375b1bf953a503db40854b3188fe604085549281519084168152856020820152a11617905580f35b600460405163fb7566d760e01b8152fd5b50346101ec5760203660031901126101ec57610f486122db565b6001600160a01b0380610f596124a7565b16330361057357808216908115610f1d576001600160a01b0319907f0f06062680f9bd68e786e9980d9bb03d73d5620fc3b345e417b6eacb310b97066003610f9f612624565b018054604080519482166001600160a01b03908116865297909716602085015290959092a11617905580f35b50346101ec57806003193601126101ec5760206001600160a01b0360036109d2612624565b50346101ec57806003193601126101ec576101e86110176004611011612ce3565b016125bb565b604051918291826123e4565b50346101ec57806003193601126101ec5760046001600160a01b03602081600161104b612624565b015416604051938480927fc12d636b0000000000000000000000000000000000000000000000000000000082525afa9182156103ca5760209392611094575b5060405191168152f35b6110b5919250833d85116110bc575b6110ad818361236f565b810190612488565b903861108a565b503d6110a3565b50346101ec57806003193601126101ec5760206001600160a01b036110e6612624565b5416604051908152f35b50346101ec57806003193601126101ec576101e860405161111081612337565b600581527f352e302e30000000000000000000000000000000000000000000000000000000602082015260405191829182612429565b50346101ec57806003193601126101ec5760206001600160a01b036110e6612ce3565b50346101ec57806003193601126101ec576007611184612624565b016040519082815461119581612581565b9182855260209360019260018116908160001461120c57506001146111d1575b6101e8866111c5818a038261236f565b60405191829182612429565b9080949650528483205b8284106111f957505050816101e8936111c5928201019338806111b5565b80548585018701529285019281016111db565b60ff19168787015250505050151560051b82010191506111c5816101e838806111b5565b50346101ec57806003193601126101ec57600561124b612624565b604051910180548083529083526020808420818401949092915b82821061127c576101e8856110178189038261236f565b835486529485019460019384019390910190611265565b50346101ec5760a03660031901126101ec576112ad6122db565b6024356001600160a01b03811681036104ac576001600160a01b0360443516604435036104ac5760843567ffffffffffffffff8111610d675736602382011215610d67576113059036906024816004013591016123ad565b917ff0c57e16840df040f15088dc2f81fe391c3923bec73e23a9662efc9c229c6a009283549267ffffffffffffffff8416801590816116f2575b60011490816116e8575b1590816116df575b506116b557600167ffffffffffffffff19851617855560ff8460401c1615611696575b61137c61391e565b61138461391e565b6001600160a01b038316158015611685575b801561167e575b610f1d576113a9612624565b92600184016001600160a01b0382166001600160a01b031982541617905560405190637e062a3560e11b82526020826004816001600160a01b0385165afa90811561043f576001600160a01b0360209281948b91611661575b50166001600160a01b03198754161786556002860160016001600160a01b031982541617905560046040518094819363030d028960e21b8352165afa908115610403578791611642575b506001600160a01b036003850191166001600160a01b03198254161790556001600160a01b036004840191166001600160a01b0319825416179055600782019080519067ffffffffffffffff821161162e576114a88354612581565b601f81116115f3575b50602090601f831160011461158a576114ee9493929188918361157f575b50508160011b916000199060031b1c19161790555b60053391016138c2565b506001600160a01b036044351615610f1d5760ff9061150b612ce3565b6001600160a01b03604435166001600160a01b0319825416179055611534606435604435612e86565b60401c1615611541575080f35b68ff00000000000000001981541690557fc7f505b2f371ae2175ee4913f4499e1f2633a7b5936321eed1cdaeb6115181d2602060405160018152a180f35b0151905038806114cf565b838852602088209190601f198416895b8181106115db57509160019391856114ee98979694106115c2575b505050811b0190556114e4565b015160001960f88460031b161c191690553880806115b5565b9293602060018192878601518155019501930161159a565b61161e9084895260208920601f850160051c81019160208610611624575b601f0160051c019061256a565b386114b1565b9091508190611611565b602487634e487b7160e01b81526041600452fd5b61165b915060203d6020116110bc576110ad818361236f565b3861144c565b6116789150843d86116110bc576110ad818361236f565b38611402565b508561139d565b506001600160a01b03811615611396565b68ffffffffffffffffff19841668010000000000000001178555611374565b60046040517ff92ee8a9000000000000000000000000000000000000000000000000000000008152fd5b90501538611351565b303b159150611349565b604086901c60ff1615915061133f565b50346101ec576020806003193601126118a8576001600160a01b0390816117276124a7565b1633036105735781611737612624565b54166040516370a0823160e01b908181523060048201528381602481865afa9182156109695784918793611877575b5061176f612715565b60246040518095819382523060048301525afa918215610de5578592611846575b5061179e906004359261250d565b106104e2576117ab612d32565b9160046117b6612ce3565b019183519367ffffffffffffffff8511611832576801000000000000000085116118325781908454868655808710611818575b500192855280852091855b8581106118045786610392612bec565b8451821684820155938201936001016117f4565b85885282882061182c91810190880161256a565b386117e9565b602486634e487b7160e01b81526041600452fd5b9091508281813d8311611870575b61185e818361236f565b81010312610dda57519061179e611790565b503d611854565b8281939294503d83116118a1575b61188f818361236f565b8101031261049d578390519138611766565b503d611885565b5080fd5b50346101ec57806003193601126101ec576001600160a01b037f00000000000000000000000000000000000000000000000000000000000000001630036119175760206040517f360894a13ba1a3210667c828492db98dca3e2076cc3735a920a3ca505d382bbc8152f35b60046040517fe07c8dba000000000000000000000000000000000000000000000000000000008152fd5b5060403660031901126101ec576119566122db565b60243567ffffffffffffffff81116104ac57366023820112156104ac576119879036906024816004013591016123ad565b6001600160a01b03807f000000000000000000000000000000000000000000000000000000000000000016803014908115611b70575b5061191757806119cb6124a7565b163303610573578216916040517f52d1902d000000000000000000000000000000000000000000000000000000008152602081600481875afa859181611b3c575b50611a295760248460405190634c9c8ce360e01b82526004820152fd5b9284937f360894a13ba1a3210667c828492db98dca3e2076cc3735a920a3ca505d382bbc90818103611b0b5750823b15611af35780546001600160a01b0319168217905560405184917fbc7cd75a20ee27fd9adebab32041f755214dbc6bffa90cc0225b39da2e5c2d3b8380a2835115611abe575080836020611aba95519101845af4611ab46126bb565b91613977565b5080f35b9250505034611acb575080f35b807fb398979f0000000000000000000000000000000000000000000000000000000060049252fd5b60248260405190634c9c8ce360e01b82526004820152fd5b602490604051907faa1d49a40000000000000000000000000000000000000000000000000000000082526004820152fd5b9091506020813d602011611b68575b81611b586020938361236f565b8101031261049d57519038611a0c565b3d9150611b4b565b9050817f360894a13ba1a3210667c828492db98dca3e2076cc3735a920a3ca505d382bbc54161415386119bd565b50346101ec57806003193601126101ec5760206001600160a01b0360016109d2612ce3565b50346101ec5760203660031901126101ec576020611be7611be26122db565b612530565b6040519015158152f35b50346101ec5760203660031901126101ec57611c0b6122db565b6001600160a01b039081611c1d6124a7565b16330361057357611aba916005611c32612624565b019116906138c2565b50346101ec5760203660031901126101ec57600435611c5d60056105d5612624565b1561057357611c6a612624565b906001600160a01b0390611c8a81838554168460018097015416906133d1565b611c92612ce3565b611d1b82604051611ca28161231b565b8584541681528580806001870154169560208401968752611d1085611ce16004856002860154169460408901958652600381015460608a0152016125bb565b9860808701998a52611d028286611cf6612624565b5416878a5116906133d1565b8480855116915116906133d1565b5116915116906133d1565b826004611d26612624565b015416905192835193865b858110611d3c578780f35b80611d55868686611d4e8c96886126eb565b51166133d1565b01611d31565b50346101ec576020806003193601126118a8576004356001600160a01b03806001611d84612624565b015416330361057357806001611d98612624565b0154169060405190637e062a3560e11b82528482600481865afa918215610969578692611eae575b508116604051946370a0823160e01b8087523060048801528187602481865afa96871561043f578897611e7b575b50858710611e03575050506103929350612666565b611e14610d8587949884969861250d565b60246040518098819382523060048301525afa918215610969578692611e49575b506103929450818082109118021891612666565b90915084813d8311611e74575b611e60818361236f565b81010312610dda5761039293519038611e35565b503d611e56565b9096508181813d8311611ea7575b611e93818361236f565b81010312611ea357519538611dee565b8780fd5b503d611e89565b611ec6919250853d87116110bc576110ad818361236f565b9038611dc0565b50346101ec57806003193601126101ec5760206001600160a01b0360046109d2612624565b50346101ec57806003193601126101ec576001600160a01b036001611f15612624565b01541660405180917f228bfd9f0000000000000000000000000000000000000000000000000000000082523060048301528160246101209485935afa9182156103ca578392611f6c575b6020836040519015158152f35b90809250813d8311611fa0575b611f83818361236f565b810103126118a8575180151581036118a857602091503880611f5f565b503d611f79565b50346101ec57806003193601126101ec5760206001600160a01b0360016109d2612624565b50346101ec5760203660031901126101ec57611fe66122db565b6001600160a01b039081611ff86124a7565b16330361057357611aba91600561200d612624565b019116906137bb565b50346101ec576020806003193601126118a85761203660056105d5612624565b15610573576001600160a01b0361204b612624565b5416604051906370a0823160e01b918281523060048201528381602481855afa928315610de557849186946120f6575b50612084612715565b60246040518094819382523060048301525afa908115610d5c5784916120c2575b506120b192935061250d565b60043581106106b357604051908152f35b90508281813d83116120ef575b6120d9818361236f565b81010312610d67576120b19293505183926120a5565b503d6120cf565b8281939295503d8311612120575b61210e818361236f565b81010312610dda57839051923861207b565b503d612104565b50346101ec57806003193601126101ec5760206121426124a7565b6001600160a01b0360405191168152f35b50346101ec5760203660031901126101ec5761216d6122db565b61217a60056105d5612624565b15610573576001600160a01b03806003612192612624565b0154169182156122b157816121a5612624565b54169181169182149081156122a1575b506109745773eeeeeeeeeeeeeeeeeeeeeeeeeeeeeeeeeeeeeeee8103612236575047908147106121fe578280809381935af16121ef6126bb565b90156121f9575080f35b6136b1565b6044824790604051917fcf47918100000000000000000000000000000000000000000000000000000000835260048301526024820152fd5b604051916370a0823160e01b8352306004840152602083602481855afa918215610d5c57849261226b575b6103929350612666565b91506020833d602011612299575b816122866020938361236f565b81010312610d6757610392925191612261565b3d9150612279565b6122ab9150612530565b386121b5565b60046040517fb4b53f42000000000000000000000000000000000000000000000000000000008152fd5b600435906001600160a01b03821682036103be57565b67ffffffffffffffff811161230557604052565b634e487b7160e01b600052604160045260246000fd5b60a0810190811067ffffffffffffffff82111761230557604052565b6040810190811067ffffffffffffffff82111761230557604052565b6080810190811067ffffffffffffffff82111761230557604052565b90601f8019910116810190811067ffffffffffffffff82111761230557604052565b67ffffffffffffffff811161230557601f01601f191660200190565b9291926123b982612391565b916123c7604051938461236f565b8294818452818301116103be578281602093846000960137010152565b602090602060408183019282815285518094520193019160005b82811061240c575050505090565b83516001600160a01b0316855293810193928101926001016123fe565b6020808252825181830181905290939260005b82811061245e57505060409293506000838284010152601f8019910116010190565b81810186015184820160400152850161243c565b60409060031901126103be576004359060243590565b908160209103126103be57516001600160a01b03811681036103be5790565b600460206001600160a01b0360016124bd612624565b0154166040519283809263030d028960e21b82525afa908115612501576000916124e5575090565b6124fe915060203d6020116110bc576110ad818361236f565b90565b6040513d6000823e3d90fd5b9190820391821161251a57565b634e487b7160e01b600052601160045260246000fd5b6001600160a01b039081806002612545612ce3565b015416911690811491821561255957505090565b909150612564612624565b54161490565b818110612575575050565b6000815560010161256a565b90600182811c921680156125b1575b602083101461259b57565b634e487b7160e01b600052602260045260246000fd5b91607f1691612590565b90604051918281549182825260209260208301916000526020600020936000905b8282106125f4575050506125f29250038361236f565b565b85546001600160a01b0316845260019586019588955093810193909101906125dc565b9190820180921161251a57565b604051602081017f2406840ad5584694fd0fd68ca814242285d2c2d94aaaee51ccea0b7e08ea3d5b81526020825261265b82612337565b9051902060ff191690565b6040517fa9059cbb0000000000000000000000000000000000000000000000000000000060208201526001600160a01b039290921660248301526044808301939093529181526125f2916108ab60648361236f565b3d156126e6573d906126cc82612391565b916126da604051938461236f565b82523d6000602084013e565b606090565b80518210156126ff5760209160051b010190565b634e487b7160e01b600052603260045260246000fd5b600180612720612ce3565b01906000916001600160a01b038091541690813b15610d67576040906040517f4e71d92d00000000000000000000000000000000000000000000000000000000815285816004818382985af180156109695761286b575b5080612781612624565b5416906127916004611011612ce3565b805194875b8681106127a857505050505050505050565b836127b382856126eb565b5116865180916370a0823160e01b8252308583015281602460209485935afa91821561286157908a9392918c92612830575b50508015158061281a575b6127fc575b5001612796565b61281390878761280c85896126eb565b51166136ea565b50386127f5565b50868661282784886126eb565b511614156127f0565b8194508092503d831161285a575b612848818361236f565b810103126103be5788915138806127e5565b503d61283e565b88513d8d823e3d90fd5b612877909591956122f1565b9338612777565b612886613193565b61288e612624565b9060006001600160a01b0380935416928060026128a9612ce3565b0154166040938451968780926370a0823160e01b988983526004958684015260209a8b9160249687915afa918215612be2578792612bb3575b50818082109118021890818082109118029081811891670de0b6b3a76400008084029384041491141715612ba15783612919612ce3565b541690886003612927612ce3565b0154848951809581936337e2beb760e21b8352898301525afa918215612b23578692612b72575b508115612b60570495819088856002612965612ce3565b01541688519485809285825230898301525afa928315612b23578693612b31575b5082808911612a47575b505050856129a2575b50505050505050565b86926129ac612ce3565b5416908460036129ba612ce3565b01548751631a42a82760e31b815294850190815288831898831198909802909118602088015230604088015260006060880152919586928391829060800103925af1918215612a3d575050612a14575b8080808080612999565b813d8311612a36575b612a27818361236f565b810103126103be573880612a0a565b503d612a1d565b51903d90823e3d90fd5b612a54919293508861250d565b846001612a5f612ce3565b01541690813b15612b2d578751627b8a6760e11b815285810191825230602083015291879183919082908490829060400103925af18015612b235790899291612b10575b50846002612aaf612ce3565b01541692875180948193825230878301525afa908115612b06578491612ad9575b50388080612990565b90508681813d8311612aff575b612af0818361236f565b810103126103be575138612ad0565b503d612ae6565b85513d86823e3d90fd5b612b1c909691966122f1565b9438612aa3565b87513d88823e3d90fd5b8680fd5b9092508881813d8311612b59575b612b49818361236f565b8101031261049d57519138612986565b503d612b3f565b8286601286634e487b7160e01b835252fd5b9091508881813d8311612b9a575b612b8a818361236f565b8101031261049d5751903861294e565b503d612b80565b5083601183634e487b7160e01b835252fd5b9091508981813d8311612bdb575b612bcb818361236f565b81010312612b2d575190386128e2565b503d612bc1565b88513d89823e3d90fd5b612bf4612624565b6001600160a01b03612c118183541682600180950154169061331d565b612c19612ce3565b612c9f604051612c288161231b565b8383541681528380806001860154169460208401958652612c94612c66600484600285015416936040880194855260038101546060890152016125bb565b9660808601978852612c8684612c7a612624565b5416858851169061331d565b83808451169151169061331d565b51169151169061331d565b816004612caa612624565b01541690519182519260005b848110612cc557505050505050565b80612cdd8585612cd68a95876126eb565b511661331d565b01612cb6565b604051602081017f4d9eed546e4705919557215ec319fca3fd5305ca57b19dffaf31b2484c6f5f6a81526020825261265b82612337565b67ffffffffffffffff81116123055760051b60200190565b6001600160a01b03906001826001612d48612ce3565b0154169260408051917f8de4e99000000000000000000000000000000000000000000000000000000000835260206004968185600481845afa94851561250157600095612e57575b50612d9a85612d1a565b91612da8604051938461236f565b858352601f19612db787612d1a565b013682850137829860005b878110612dd457505050505050505050565b86517f7bb7bed100000000000000000000000000000000000000000000000000000000815281838201528381602481885afa908115612e4c57908a9291600091612e2f575b5087612e2583896126eb565b9116905201612dc2565b612e469150853d87116110bc576110ad818361236f565b38612e19565b88513d6000823e3d90fd5b90948282813d8311612e7f575b612e6e818361236f565b810103126101ec5750519338612d90565b503d612e64565b906001600160a01b038092169060409283517fdd57691100000000000000000000000000000000000000000000000000000000815260049383858301526020918281602481855afa9081156130d257600091613176575b508380612ee8612624565b541691160361314e5785517f5401889600000000000000000000000000000000000000000000000000000000815284868201528281602481855afa9081156130d257908491600091613131575b50169081156131225786517fa59a997300000000000000000000000000000000000000000000000000000000815283818881865afa908115612e4c5782918691600091613105575b5016036130dd57826024918851928380927f5c6b6782000000000000000000000000000000000000000000000000000000008252898b8301525afa9081156130d2579084916000916130b5575b50169586156130a65750612fdc612ce3565b936003850155600284016001600160a01b0319918282541617905560019560018501918254161790558361300e612d32565b93019280519467ffffffffffffffff861161309157680100000000000000008611613091575081908454868655808710613074575b500192600052806000209160005b8581106130615750505050505050565b8451821684820155938201938601613051565b61308b90866000528784600020918201910161256a565b38613043565b604190634e487b7160e01b6000525260246000fd5b85905163fb7566d760e01b8152fd5b6130cc9150843d86116110bc576110ad818361236f565b38612fca565b87513d6000823e3d90fd5b8587517fd8cad676000000000000000000000000000000000000000000000000000000008152fd5b61311c9150863d88116110bc576110ad818361236f565b38612f7d565b85875163fb7566d760e01b8152fd5b6131489150843d86116110bc576110ad818361236f565b38612f35565b8486517fe46aea09000000000000000000000000000000000000000000000000000000008152fd5b61318d9150833d85116110bc576110ad818361236f565b38612edd565b6001600160a01b038060026131a6612ce3565b01541690604091825190816370a0823160e01b9182825230600483015281602460209586935afa9081156132e5576000916132f0575b50828460016131e9612ce3565b01541692602487518095819382523060048301525afa9081156132e5576000916132b4575b6132189250612617565b91613221612ce3565b54169080600361322f612ce3565b015460248651809581936337e2beb760e21b835260048301525afa9384156132aa575060009361327a575b505081810291818304149015171561251a57670de0b6b3a7640000900490565b9080929350813d83116132a3575b613292818361236f565b810103126103be575190388061325a565b503d613288565b513d6000823e3d90fd5b90508282813d83116132de575b6132cb818361236f565b810103126103be5761321891519061320e565b503d6132c1565b85513d6000823e3d90fd5b90508281813d8311613316575b613307818361236f565b810103126103be5751386131dc565b503d6132fd565b604051906020820163095ea7b360e01b93848252602060006001600160a01b0380931693846024880152811960448801526044875261335b87612353565b86519082875af1903d60005190836133b0575b5050501561337d575b50505050565b6133a7936108ab91604051916020830152602482015260006044820152604481526108a581612353565b38808080613377565b919250906133c7575082163b15155b38808061336e565b60019150146133bf565b604051916020600081850161341d8661340f63095ea7b360e01b998a85528760248401602090939291936001600160a01b0360408201951681520152565b03601f19810188528761236f565b85519082865af16000513d8261346e575b50501561343b5750505050565b6133a7936001600160a01b036108ab9260405192602084015216602482015260006044820152604481526108a581612353565b90915061348b57506001600160a01b0382163b15155b388061342e565b600114613484565b8061349b5750565b6001600160a01b0390816134ad612ce3565b541660036134b9612ce3565b0154926040928351947f1de8a7c20000000000000000000000000000000000000000000000000000000086526004860152602485015230604485015260009384928360648301528160848160209687945af1801561360a57908391613614575b50602490826002613528612ce3565b0154168551928380926370a0823160e01b82523060048301525afa92831561360a5785936135da575b50508161355e5750505050565b6001613568612ce3565b01541690813b15610d675782517f7acb77570000000000000000000000000000000000000000000000000000000081526004810191909152306024820152929081908490604490829084905af1918215612a3d5750506135cb575b808080613377565b6135d4906122f1565b386135c3565b9080929350813d8311613603575b6135f2818361236f565b81010312610d675751903880613551565b503d6135e8565b84513d87823e3d90fd5b813d8311613636575b613627818361236f565b81010312610d67578138613519565b503d61361d565b906000602091828151910182855af115612501576000513d6136a857506001600160a01b0381163b155b61366e5750565b6024906001600160a01b03604051917f5274afe7000000000000000000000000000000000000000000000000000000008352166004820152fd5b60011415613667565b8051156136c057805190602001fd5b60046040517fd6bda275000000000000000000000000000000000000000000000000000000008152fd5b6020916137579360006001600160a01b036004613705612624565b0154169260405196879586948593636ccb2b0160e01b8552309260048601929360809291959460a08501966001600160a01b039384809216875216602086015260408501526001606085015216910152565b03925af16000918161376f575b506124fe5750600090565b9091506020813d60201161379b575b8161378b6020938361236f565b810103126103be57519038613764565b3d915061377e565b80548210156126ff5760005260206000200190600090565b906001820190600092818452826020526040842054908115156000146138bb57600019918083018181116138a75782549084820191821161389357818103613847575b505050805480156138335782019161381683836137a3565b909182549160031b1b191690555582526020526040812055600190565b602486634e487b7160e01b81526031600452fd5b61387e61385761386793866137a3565b90549060031b1c928392866137a3565b819391549060031b91821b91600019901b19161790565b905586528460205260408620553880806137fe565b602488634e487b7160e01b81526011600452fd5b602487634e487b7160e01b81526011600452fd5b5050505090565b6000828152600182016020526040902054613917578054906801000000000000000082101561230557826139006138678460018096018555846137a3565b905580549260005201602052604060002055600190565b5050600090565b60ff7ff0c57e16840df040f15088dc2f81fe391c3923bec73e23a9662efc9c229c6a005460401c161561394d57565b60046040517fd7e6bcf8000000000000000000000000000000000000000000000000000000008152fd5b9061398257506136b1565b815115806139cd575b613993575090565b6024906001600160a01b03604051917f9996b315000000000000000000000000000000000000000000000000000000008352166004820152fd5b50803b1561398b56fea264697066735822122005418594fc2d37bb8acf3345965a1063d8f5d797762b0fb1572d6ac2c59a7a5764736f6c63430008190033",
  "devdoc": {
    "errors": {
      "AddressEmptyCode(address)": [
        {
          "details": "There's no code at `target` (it is not a contract)."
        }
      ],
      "ERC1967InvalidImplementation(address)": [
        {
          "details": "The `implementation` of the proxy is invalid."
        }
      ],
      "ERC1967NonPayable()": [
        {
          "details": "An upgrade function sees `msg.value > 0` that may be lost."
        }
      ],
      "FailedCall()": [
        {
          "details": "A call to an address target failed. The target may have reverted."
        }
      ],
      "InsufficientBalance(uint256,uint256)": [
        {
          "details": "The ETH balance of the account is not enough to perform the operation."
        }
      ],
      "InvalidInitialization()": [
        {
          "details": "The contract is already initialized."
        }
      ],
      "NotInitializing()": [
        {
          "details": "The contract is not initializing."
        }
      ],
      "SafeERC20FailedOperation(address)": [
        {
          "details": "An operation with an ERC-20 token failed."
        }
      ],
      "UUPSUnauthorizedCallContext()": [
        {
          "details": "The call is from an unauthorized context."
        }
      ],
      "UUPSUnsupportedProxiableUUID(bytes32)": [
        {
          "details": "The storage `slot` is unsupported as a UUID."
        }
      ]
    },
    "events": {
      "Initialized(uint64)": {
        "details": "Triggered when the contract has been initialized or reinitialized."
      },
      "Upgraded(address)": {
        "details": "Emitted when the implementation is upgraded."
      }
    },
    "kind": "dev",
    "methods": {
      "addKeeper(address)": {
        "params": {
          "keeperAddress_": "keeper address to add."
        }
      },
      "approveToken(uint256)": {
        "details": "OnlyKeeper: Approve all required tokens"
      },
      "claimAndSwapRewards(uint256)": {
        "details": "Claim rewardToken and convert rewardToken into collateral token."
      },
      "proxiableUUID()": {
        "details": "Implementation of the ERC-1822 {proxiableUUID} function. This returns the storage slot used by the implementation. It is used to validate the implementation's compatibility when performing an upgrade. IMPORTANT: A proxy pointing at a proxiable contract should not be considered proxiable itself, because this risks bricking a proxy that upgrades to it, by delegating to itself until out of gas. Thus it is critical that this function revert if invoked through a proxy. This is guaranteed by the `notDelegated` modifier."
      },
      "rebalance(uint256,uint256)": {
        "params": {
          "maxLoss_": "Maximum accepted loss for this call.",
          "minProfit_": "Minimum profit expected from this call."
        },
        "returns": {
          "_loss": "Realized loss, if any, in collateral.",
          "_payback": "If strategy has any excess debt, we have to liquidate asset to payback excess debt.",
          "_profit": "Realized profit in collateral."
        }
      },
      "receiptToken()": {
        "details": "override receiptToken as eToken can be updated via migrateReserve function"
      },
      "removeKeeper(address)": {
        "params": {
          "keeperAddress_": "keeper address to remove."
        }
      },
      "sweep(address)": {
        "params": {
          "fromToken_": "token address to sweep"
        }
      },
      "updateFeeCollector(address)": {
        "params": {
          "feeCollector_": "fee collector address"
        }
      },
      "updateSwapper(address)": {
        "params": {
          "swapper_": "swapper address"
        }
      },
      "upgradeToAndCall(address,bytes)": {
        "custom:oz-upgrades-unsafe-allow-reachable": "delegatecall",
        "details": "Upgrade the implementation of the proxy to `newImplementation`, and subsequently execute the function call encoded in `data`. Calls {_authorizeUpgrade}. Emits an {Upgraded} event."
      },
      "withdraw(uint256)": {
        "params": {
          "amount_": "Amount of collateral token"
        }
      }
    },
    "title": "This strategy will deposit collateral token in Extra Finance and earn interest.",
    "version": 1
  },
  "userdoc": {
    "kind": "user",
    "methods": {
      "addKeeper(address)": {
        "notice": "onlyGovernor: Add given address in keepers list."
      },
      "claimAndSwapRewards(uint256)": {
        "notice": "OnlyKeeper: Claim rewards from protocol."
      },
      "isReservedToken(address)": {
        "notice": "Check whether given token is reserved or not. Reserved tokens are not allowed to sweep."
      },
      "keepers()": {
        "notice": "Return list of keepers"
      },
      "migrateReserve(uint256,uint256)": {
        "notice": "Migrate funds to another reserve that supports' the same collateral"
      },
      "rebalance(uint256,uint256)": {
        "notice": "OnlyKeeper: Rebalance profit, loss and investment of this strategy.  Calculate profit, loss and payback of this strategy and realize profit/loss and  withdraw fund for payback, if any, and submit this report to pool."
      },
      "refetchRewardTokens(uint256)": {
        "notice": "Rewards token can be updated any time. This method refresh list"
      },
      "removeKeeper(address)": {
        "notice": "onlyGovernor: Remove given address from keepers list."
      },
      "swapToCollateral(address,uint256)": {
        "notice": "onlyKeeper: Swap given token into collateral token."
      },
      "sweep(address)": {
        "notice": "onlyKeeper: sweep given token to feeCollector of strategy"
      },
      "tvl()": {
        "notice": "Returns total collateral locked in the strategy"
      },
      "updateFeeCollector(address)": {
        "notice": "onlyGovernor: Update fee collector"
      },
      "updateSwapper(address)": {
        "notice": "onlyGovernor: Update swapper"
      },
      "withdraw(uint256)": {
        "notice": "onlyPool: Withdraw collateral token from end protocol."
      }
    },
    "version": 1
  },
  "storageLayout": {
    "storage": [],
    "types": null
  }
}