{
  "address": "0x3Dcb9854BE2616F4e44582d1B050e9B7C81a54a2",
  "abi": [
    {
      "inputs": [
        {
          "internalType": "address",
          "name": "target",
          "type": "address"
        }
      ],
      "name": "AddressEmptyCode",
      "type": "error"
    },
    {
      "inputs": [],
      "name": "AddressIsNull",
      "type": "error"
    },
    {
      "inputs": [],
      "name": "CanNotSweepToken",
      "type": "error"
    },
    {
      "inputs": [
        {
          "internalType": "address",
          "name": "implementation",
          "type": "address"
        }
      ],
      "name": "ERC1967InvalidImplementation",
      "type": "error"
    },
    {
      "inputs": [],
      "name": "ERC1967NonPayable",
      "type": "error"
    },
    {
      "inputs": [],
      "name": "FailedCall",
      "type": "error"
    },
    {
      "inputs": [],
      "name": "FeeCollectorNotSet",
      "type": "error"
    },
    {
      "inputs": [
        {
          "internalType": "uint256",
          "name": "balance",
          "type": "uint256"
        },
        {
          "internalType": "uint256",
          "name": "needed",
          "type": "uint256"
        }
      ],
      "name": "InsufficientBalance",
      "type": "error"
    },
    {
      "inputs": [],
      "name": "InvalidInitialization",
      "type": "error"
    },
    {
      "inputs": [],
      "name": "InvalidStrategy",
      "type": "error"
    },
    {
      "inputs": [],
      "name": "InvalidVault",
      "type": "error"
    },
    {
      "inputs": [],
      "name": "NotEnoughAmountOut",
      "type": "error"
    },
    {
      "inputs": [
        {
          "internalType": "uint256",
          "name": "",
          "type": "uint256"
        }
      ],
      "name": "NotEnoughProfit",
      "type": "error"
    },
    {
      "inputs": [],
      "name": "NotInitializing",
      "type": "error"
    },
    {
      "inputs": [
        {
          "internalType": "address",
          "name": "token",
          "type": "address"
        }
      ],
      "name": "SafeERC20FailedOperation",
      "type": "error"
    },
    {
      "inputs": [
        {
          "internalType": "uint256",
          "name": "",
          "type": "uint256"
        }
      ],
      "name": "TooMuchLoss",
      "type": "error"
    },
    {
      "inputs": [],
      "name": "UUPSUnauthorizedCallContext",
      "type": "error"
    },
    {
      "inputs": [
        {
          "internalType": "bytes32",
          "name": "slot",
          "type": "bytes32"
        }
      ],
      "name": "UUPSUnsupportedProxiableUUID",
      "type": "error"
    },
    {
      "inputs": [],
      "name": "Unauthorized",
      "type": "error"
    },
    {
      "anonymous": false,
      "inputs": [
        {
          "indexed": false,
          "internalType": "uint64",
          "name": "version",
          "type": "uint64"
        }
      ],
      "name": "Initialized",
      "type": "event"
    },
    {
      "anonymous": false,
      "inputs": [
        {
          "indexed": false,
          "internalType": "address",
          "name": "oldFeeCollector",
          "type": "address"
        },
        {
          "indexed": false,
          "internalType": "address",
          "name": "newFeeCollector",
          "type": "address"
        }
      ],
      "name": "UpdatedFeeCollector",
      "type": "event"
    },
    {
      "anonymous": false,
      "inputs": [
        {
          "indexed": false,
          "internalType": "contract ISwapper",
          "name": "oldSwapper",
          "type": "address"
        },
        {
          "indexed": false,
          "internalType": "contract ISwapper",
          "name": "newSwapper",
          "type": "address"
        }
      ],
      "name": "UpdatedSwapper",
      "type": "event"
    },
    {
      "anonymous": false,
      "inputs": [
        {
          "indexed": true,
          "internalType": "address",
          "name": "implementation",
          "type": "address"
        }
      ],
      "name": "Upgraded",
      "type": "event"
    },
    {
      "inputs": [],
      "name": "NAME",
      "outputs": [
        {
          "internalType": "string",
          "name": "",
          "type": "string"
        }
      ],
      "stateMutability": "view",
      "type": "function"
    },
    {
      "inputs": [],
      "name": "UPGRADE_INTERFACE_VERSION",
      "outputs": [
        {
          "internalType": "string",
          "name": "",
          "type": "string"
        }
      ],
      "stateMutability": "view",
      "type": "function"
    },
    {
      "inputs": [],
      "name": "VERSION",
      "outputs": [
        {
          "internalType": "string",
          "name": "",
          "type": "string"
        }
      ],
      "stateMutability": "pure",
      "type": "function"
    },
    {
      "inputs": [
        {
          "internalType": "address",
          "name": "keeperAddress_",
          "type": "address"
        }
      ],
      "name": "addKeeper",
      "outputs": [],
      "stateMutability": "nonpayable",
      "type": "function"
    },
    {
      "inputs": [
        {
          "internalType": "uint256",
          "name": "approvalAmount_",
          "type": "uint256"
        }
      ],
      "name": "approveToken",
      "outputs": [],
      "stateMutability": "nonpayable",
      "type": "function"
    },
    {
      "inputs": [
        {
          "internalType": "uint256",
          "name": "minAmountOut_",
          "type": "uint256"
        }
      ],
      "name": "claimAndSwapRewards",
      "outputs": [
        {
          "internalType": "uint256",
          "name": "_amountOut",
          "type": "uint256"
        }
      ],
      "stateMutability": "nonpayable",
      "type": "function"
    },
    {
      "inputs": [],
      "name": "collateralToken",
      "outputs": [
        {
          "internalType": "contract IERC20",
          "name": "",
          "type": "address"
        }
      ],
      "stateMutability": "view",
      "type": "function"
    },
    {
      "inputs": [],
      "name": "feeCollector",
      "outputs": [
        {
          "internalType": "address",
          "name": "",
          "type": "address"
        }
      ],
      "stateMutability": "view",
      "type": "function"
    },
    {
      "inputs": [],
      "name": "governor",
      "outputs": [
        {
          "internalType": "address",
          "name": "",
          "type": "address"
        }
      ],
      "stateMutability": "view",
      "type": "function"
    },
    {
      "inputs": [
        {
          "internalType": "address",
          "name": "pool_",
          "type": "address"
        },
        {
          "internalType": "address",
          "name": "swapper_",
          "type": "address"
        },
        {
          "internalType": "address",
          "name": "receiptToken_",
          "type": "address"
        },
        {
          "internalType": "string",
          "name": "name_",
          "type": "string"
        }
      ],
      "name": "initialize",
      "outputs": [],
      "stateMutability": "nonpayable",
      "type": "function"
    },
    {
      "inputs": [],
      "name": "isActive",
      "outputs": [
        {
          "internalType": "bool",
          "name": "",
          "type": "bool"
        }
      ],
      "stateMutability": "view",
      "type": "function"
    },
    {
      "inputs": [
        {
          "internalType": "address",
          "name": "token_",
          "type": "address"
        }
      ],
      "name": "isReservedToken",
      "outputs": [
        {
          "internalType": "bool",
          "name": "",
          "type": "bool"
        }
      ],
      "stateMutability": "view",
      "type": "function"
    },
    {
      "inputs": [],
      "name": "keepers",
      "outputs": [
        {
          "internalType": "address[]",
          "name": "",
          "type": "address[]"
        }
      ],
      "stateMutability": "view",
      "type": "function"
    },
    {
      "inputs": [],
      "name": "metaMorpho",
      "outputs": [
        {
          "internalType": "contract IMetaMorpho",
          "name": "",
          "type": "address"
        }
      ],
      "stateMutability": "view",
      "type": "function"
    },
    {
      "inputs": [],
      "name": "pool",
      "outputs": [
        {
          "internalType": "contract IVesperPool",
          "name": "",
          "type": "address"
        }
      ],
      "stateMutability": "view",
      "type": "function"
    },
    {
      "inputs": [],
      "name": "poolAccountant",
      "outputs": [
        {
          "internalType": "address",
          "name": "",
          "type": "address"
        }
      ],
      "stateMutability": "view",
      "type": "function"
    },
    {
      "inputs": [],
      "name": "proxiableUUID",
      "outputs": [
        {
          "internalType": "bytes32",
          "name": "",
          "type": "bytes32"
        }
      ],
      "stateMutability": "view",
      "type": "function"
    },
    {
      "inputs": [
        {
          "internalType": "uint256",
          "name": "minProfit_",
          "type": "uint256"
        },
        {
          "internalType": "uint256",
          "name": "maxLoss_",
          "type": "uint256"
        }
      ],
      "name": "rebalance",
      "outputs": [
        {
          "internalType": "uint256",
          "name": "_profit",
          "type": "uint256"
        },
        {
          "internalType": "uint256",
          "name": "_loss",
          "type": "uint256"
        },
        {
          "internalType": "uint256",
          "name": "_payback",
          "type": "uint256"
        }
      ],
      "stateMutability": "nonpayable",
      "type": "function"
    },
    {
      "inputs": [],
      "name": "receiptToken",
      "outputs": [
        {
          "internalType": "address",
          "name": "",
          "type": "address"
        }
      ],
      "stateMutability": "view",
      "type": "function"
    },
    {
      "inputs": [
        {
          "internalType": "address",
          "name": "keeperAddress_",
          "type": "address"
        }
      ],
      "name": "removeKeeper",
      "outputs": [],
      "stateMutability": "nonpayable",
      "type": "function"
    },
    {
      "inputs": [
        {
          "internalType": "contract IERC20",
          "name": "tokenIn_",
          "type": "address"
        },
        {
          "internalType": "uint256",
          "name": "minAmountOut_",
          "type": "uint256"
        }
      ],
      "name": "swapToCollateral",
      "outputs": [
        {
          "internalType": "uint256",
          "name": "_amountOut",
          "type": "uint256"
        }
      ],
      "stateMutability": "nonpayable",
      "type": "function"
    },
    {
      "inputs": [],
      "name": "swapper",
      "outputs": [
        {
          "internalType": "contract ISwapper",
          "name": "",
          "type": "address"
        }
      ],
      "stateMutability": "view",
      "type": "function"
    },
    {
      "inputs": [
        {
          "internalType": "address",
          "name": "fromToken_",
          "type": "address"
        }
      ],
      "name": "sweep",
      "outputs": [],
      "stateMutability": "nonpayable",
      "type": "function"
    },
    {
      "inputs": [],
      "name": "tvl",
      "outputs": [
        {
          "internalType": "uint256",
          "name": "",
          "type": "uint256"
        }
      ],
      "stateMutability": "view",
      "type": "function"
    },
    {
      "inputs": [
        {
          "internalType": "address",
          "name": "feeCollector_",
          "type": "address"
        }
      ],
      "name": "updateFeeCollector",
      "outputs": [],
      "stateMutability": "nonpayable",
      "type": "function"
    },
    {
      "inputs": [
        {
          "internalType": "contract ISwapper",
          "name": "swapper_",
          "type": "address"
        }
      ],
      "name": "updateSwapper",
      "outputs": [],
      "stateMutability": "nonpayable",
      "type": "function"
    },
    {
      "inputs": [
        {
          "internalType": "address",
          "name": "newImplementation",
          "type": "address"
        },
        {
          "internalType": "bytes",
          "name": "data",
          "type": "bytes"
        }
      ],
      "name": "upgradeToAndCall",
      "outputs": [],
      "stateMutability": "payable",
      "type": "function"
    },
    {
      "inputs": [
        {
          "internalType": "uint256",
          "name": "amount_",
          "type": "uint256"
        }
      ],
      "name": "withdraw",
      "outputs": [],
      "stateMutability": "nonpayable",
      "type": "function"
    }
  ],
  "transactionHash": "0x7ee01f3d887d137db39011864c2dcbdbed5df4cfde2e5ad0a35450f0214d68d8",
  "args": [],
  "numDeployments": 1,
  "solcInputHash": "725f8f63d38575b8fc8480a6dbef98e6",
  "bytecode": "0x60a0806040523460c857306080527ff0c57e16840df040f15088dc2f81fe391c3923bec73e23a9662efc9c229c6a009081549060ff8260401c1660b957506001600160401b036002600160401b0319828216016075575b6040516127ab90816100ce8239608051818181611571015261163c0152f35b6001600160401b031990911681179091556040519081527fc7f505b2f371ae2175ee4913f4499e1f2633a7b5936321eed1cdaeb6115181d290602090a13880806056565b63f92ee8a960e01b8152600490fd5b600080fdfe6080604052600436101561001257600080fd5b6000803560e01c806301681a6214611d275780630c340a2414611cfb5780631026013a14611bf257806314ae9f2e14611ba857806316f0115b14611b8357806322f3e2d414611ace5780632b3297f914611aa95780632e1a7d4d146119335780633ac9fc11146118c05780634032b72b14611876578063440d7248146118485780634f1ef286146115eb57806352d1902d1461155657806365e8e4f414610f88578063951dc22c14610ee0578063a3f4df7e14610e19578063ad3cb1cc14610dc3578063b2016bd414610d96578063b6042b341461060c578063c12d636b14610cf6578063c415b95c14610cd1578063d2c35ce814610c34578063d3033c3914610b7c578063df8879b8146106d9578063e5328e061461063c578063ec78e8321461060c578063ee330ee3146101ad5763ffa1ad741461015157600080fd5b346101aa57806003193601126101aa576101a660405161017081611ec5565b600581527f362e302e31000000000000000000000000000000000000000000000000000000602082015260405191829182611f88565b0390f35b80fd5b50346101aa5760403660031901126101aa576001600160a01b039060043582811690818103610608576024926101fe60056101e66120fa565b01339060019160005201602052604060002054151590565b156105de5761020b6120fa565b9285600481865416950154169084811480156105cf575b6105a557604051936370a0823160e01b9283865230600487015260209889878a818b5afa96871561059a57869761056b575b50604051918583523060048401528a838b81885afa92831561056057908b969594939291889361052f575b508261032e575b5050505050856040518096819382523060048301525afa90811561032257906102ee575b6102b49250612056565b903581106102c457604051908152f35b60046040517f8edbf6d8000000000000000000000000000000000000000000000000000000008152fd5b508382813d831161031b575b6103048183611f13565b81010312610316576102b491516102aa565b600080fd5b503d6102fa565b604051903d90823e3d90fd5b6040517fdd62ed3e0000000000000000000000000000000000000000000000000000000081523060048201526001600160a01b03821660248201529596509394929391929091908b81604481895afa90811561052457908c9493929189916104f0575b509483949560a49411610447575b505060046103ab6120fa565b015416938660405195869485937f6ccb2b0100000000000000000000000000000000000000000000000000000000855260048501528b8d8501526044840152600160648401523060848401525af1801561043c57908791610413575b80808080959495610286565b813d8311610435575b6104268183611f13565b81010312610316578538610407565b503d61041c565b6040513d85823e3d90fd5b604051908c87830188600063095ea7b360e01b928381528785880152811960448801526044875261047787611ef7565b86519082875af16000513d826104d4575b505015610498575b50505061039f565b6104ca946104c592604051928b84015282015260006044820152604481526104bf81611ef7565b8261247f565b61247f565b3880808c81610490565b9091506104e85750893b15155b3880610488565b6001146104e1565b8581959692503d831161051d575b6105088183611f13565b810103126103165791518b93929060a4610391565b503d6104fe565b6040513d8a823e3d90fd5b8781989294503d8311610559575b6105478183611f13565b81010312610316578a9551913861027f565b503d61053d565b6040513d89823e3d90fd5b9096508981813d8311610593575b6105838183611f13565b8101031261031657519538610254565b503d610579565b6040513d88823e3d90fd5b60046040517fb92ab523000000000000000000000000000000000000000000000000000000008152fd5b506105d981612079565b610222565b60046040517f82b42900000000000000000000000000000000000000000000000000000000008152fd5b8280fd5b50346101aa57806003193601126101aa5760206001600160a01b0360026106316120fa565b015416604051908152f35b50346101aa57806003193601126101aa576106556122cf565b90602460206001600160a01b0361066a6120fa565b5416604051928380926370a0823160e01b82523060048301525afa91821561032257916106a6575b602061069e83856120ed565b604051908152f35b90506020813d6020116106d1575b816106c160209383611f13565b8101031261031657516020610692565b3d91506106b4565b50346101aa5760403660031901126101aa576024906106fb60056101e66120fa565b156105de578081926001600160a01b038060016107166120fa565b015416936040517f9f2b2833000000000000000000000000000000000000000000000000000000008152306004820152602092838286818a5afa91821561043c578392610b4d575b50604051917fd53ddc26000000000000000000000000000000000000000000000000000000008352306004840152848387818b5afa928315610b42578493610b0f575b50816107ab6120fa565b541692604051906370a0823160e01b9283835230600484015287838a81895afa928315610560578793610adc575b5082996107ed6107e76122cf565b856120ed565b9082821115610aca57509061080191612056565b915b61080d82846120ed565b818111610a5a575b5050888118818a100218978880821115610a505761083291612056565b8180821091180218975b803b15610a4c576040517f05bed046000000000000000000000000000000000000000000000000000000008152600481018a9052602481018b9052604481018990529085908290606490829084905af18015610a415790869291610a0f575b50866040518095819382523060048301525afa91821561043c5783926109e0575b5081610958575b50505050600435831061092957803584116108fa57506101a690604051938493846040919493926060820195825260208201520152565b83604051907fbfa80dbe0000000000000000000000000000000000000000000000000000000082526004820152fd5b82604051907fcc71aff40000000000000000000000000000000000000000000000000000000082526004820152fd5b82916044859260026109686120fa565b0154169160405195869384927f6e553f650000000000000000000000000000000000000000000000000000000084526004840152308a8401525af190811561032257506109b7575b80806108c3565b813d83116109d9575b6109ca8183611f13565b810103126103165738806109b0565b503d6109c0565b9091508381813d8311610a08575b6109f88183611f13565b81010312610316575190386108bc565b503d6109ee565b9094915067ffffffffffffffff8111610a2e576040529284903861089b565b8682634e487b7160e01b81526041600452fd5b6040513d87823e3d90fd5b8480fd5b505050839761083c565b610a6f929a5090610a6a91612056565b6121c3565b60405182815230600482015286818981885afa90811561059a578691610a99575b50973880610815565b90508681813d8311610ac3575b610ab08183611f13565b81010312610abf575138610a90565b8580fd5b503d610aa6565b939c50610ad691612056565b9a610803565b9092508781813d8311610b08575b610af48183611f13565b81010312610b04575191386107d9565b8680fd5b503d610aea565b9092508481813d8311610b3b575b610b278183611f13565b81010312610b37575191386107a1565b8380fd5b503d610b1d565b6040513d86823e3d90fd5b9091508381813d8311610b75575b610b658183611f13565b810103126106085751903861075e565b503d610b5b565b50346101aa5760203660031901126101aa576004356001600160a01b03908181168091036106085781610bad611ff0565b1633036105de578015610c0a576001600160a01b03196004610bcd6120fa565b01927f6c953b7ec311055c20b96a42cea31e89528e375b1bf953a503db40854b3188fe604085549281519084168152856020820152a11617905580f35b60046040517ffb7566d7000000000000000000000000000000000000000000000000000000008152fd5b50346101aa5760203660031901126101aa57610c4e611eaf565b6001600160a01b0380610c5f611ff0565b1633036105de57808216908115610c0a576001600160a01b0319907f0f06062680f9bd68e786e9980d9bb03d73d5620fc3b345e417b6eacb310b97066003610ca56120fa565b018054604080519482166001600160a01b03908116865297909716602085015290959092a11617905580f35b50346101aa57806003193601126101aa5760206001600160a01b0360036106316120fa565b50346101aa57806003193601126101aa5760046001600160a01b036020816001610d1e6120fa565b015416604051938480927fc12d636b0000000000000000000000000000000000000000000000000000000082525afa91821561043c5760209392610d67575b5060405191168152f35b610d88919250833d8511610d8f575b610d808183611f13565b810190611fd1565b9038610d5d565b503d610d76565b50346101aa57806003193601126101aa5760206001600160a01b03610db96120fa565b5416604051908152f35b50346101aa57806003193601126101aa576101a6604051610de381611ec5565b600581527f352e302e30000000000000000000000000000000000000000000000000000000602082015260405191829182611f88565b50346101aa57806003193601126101aa576007610e346120fa565b0160405190828154610e45816120b3565b91828552602093600192600181169081600014610ebc5750600114610e81575b6101a686610e75818a0382611f13565b60405191829182611f88565b9080949650528483205b828410610ea957505050816101a693610e7592820101933880610e65565b8054858501870152928501928101610e8b565b60ff19168787015250505050151560051b8201019150610e75816101a63880610e65565b50346101aa57806003193601126101aa576005610efb6120fa565b0160405190819281548084526020809401908193835284832090835b818110610f745750505084610f2d910385611f13565b60405193838594850191818652518092526040850193925b828110610f5457505050500390f35b83516001600160a01b031685528695509381019392810192600101610f45565b825484529286019260019283019201610f17565b50346101aa5760803660031901126101aa57610fa2611eaf565b602435906001600160a01b038216809203610608576044356001600160a01b0381168103610b375760643567ffffffffffffffff8111610a4c5736602382011215610a4c57610ffb903690602481600401359101611f51565b927ff0c57e16840df040f15088dc2f81fe391c3923bec73e23a9662efc9c229c6a00549367ffffffffffffffff851680159081611546575b600114908161153c575b159081611533575b5061150957600167ffffffffffffffff198616177ff0c57e16840df040f15088dc2f81fe391c3923bec73e23a9662efc9c229c6a005560ff8560401c16156114ca575b6110906126bd565b6110986126bd565b6001600160a01b0384161580156114c2575b80156114b1575b610c0a576110bd6120fa565b91600183016001600160a01b0386166001600160a01b0319825416179055604051637e062a3560e11b81526020816004816001600160a01b038a165afa8015610524576001600160a01b03918991611492575b50166001600160a01b0319845416178355600283016001600160a01b0385166001600160a01b031982541617905560405163030d028960e21b81526020816004816001600160a01b038a165afa908115610524578891611473575b506001600160a01b036003850191166001600160a01b031982541617905560048301906001600160a01b031982541617905580519067ffffffffffffffff821161145f576111bc60078401546120b3565b601f811161141b575b50602090601f831160011461139e5792826001600160a01b03969593611211936020968b92611393575b50508160011b916000199060031b1c19161760078201555b6005339101612661565b506004604051809581937f38d52e0f000000000000000000000000000000000000000000000000000000008352165afa918215610b42578492611368575b5060206001600160a01b0391600460405180948193637e062a3560e11b8352165afa908115610b42576001600160a01b039182918691611349575b501691160361131f5760401c60ff16156112a15780f35b68ff0000000000000000197ff0c57e16840df040f15088dc2f81fe391c3923bec73e23a9662efc9c229c6a0054167ff0c57e16840df040f15088dc2f81fe391c3923bec73e23a9662efc9c229c6a00557fc7f505b2f371ae2175ee4913f4499e1f2633a7b5936321eed1cdaeb6115181d2602060405160018152a180f35b60046040517fd03a6320000000000000000000000000000000000000000000000000000000008152fd5b611362915060203d602011610d8f57610d808183611f13565b3861128a565b6001600160a01b0391925061138b602091823d8411610d8f57610d808183611f13565b92915061124f565b0151905038806111ef565b906007840188526020882091885b601f198516811061140357508361121193602096936001936001600160a01b039a9997601f198116106113ea575b505050811b016007820155611207565b015160001960f88460031b161c191690553880806113da565b919260206001819286850151815501940192016113ac565b60078401885260208820601f840160051c810160208510611458575b601f830160051c8201811061144d5750506111c5565b898155600101611437565b5080611437565b602487634e487b7160e01b81526041600452fd5b61148c915060203d602011610d8f57610d808183611f13565b3861116b565b6114ab915060203d602011610d8f57610d808183611f13565b38611110565b506001600160a01b038316156110b1565b5081156110aa565b68ffffffffffffffffff19851668010000000000000001177ff0c57e16840df040f15088dc2f81fe391c3923bec73e23a9662efc9c229c6a0055611088565b60046040517ff92ee8a9000000000000000000000000000000000000000000000000000000008152fd5b90501538611045565b303b15915061103d565b604087901c60ff16159150611033565b50346101aa57806003193601126101aa576001600160a01b037f00000000000000000000000000000000000000000000000000000000000000001630036115c15760206040517f360894a13ba1a3210667c828492db98dca3e2076cc3735a920a3ca505d382bbc8152f35b60046040517fe07c8dba000000000000000000000000000000000000000000000000000000008152fd5b5060403660031901126101aa57611600611eaf565b60243567ffffffffffffffff8111610608573660238201121561060857611631903690602481600401359101611f51565b6001600160a01b03807f00000000000000000000000000000000000000000000000000000000000000001680301490811561181a575b506115c15780611675611ff0565b1633036105de578216916040517f52d1902d000000000000000000000000000000000000000000000000000000008152602081600481875afa8591816117e6575b506116d35760248460405190634c9c8ce360e01b82526004820152fd5b9284937f360894a13ba1a3210667c828492db98dca3e2076cc3735a920a3ca505d382bbc908181036117b55750823b1561179d5780546001600160a01b0319168217905560405184917fbc7cd75a20ee27fd9adebab32041f755214dbc6bffa90cc0225b39da2e5c2d3b8380a283511561176857508083602061176495519101845af461175e612193565b91612716565b5080f35b9250505034611775575080f35b807fb398979f0000000000000000000000000000000000000000000000000000000060049252fd5b60248260405190634c9c8ce360e01b82526004820152fd5b602490604051907faa1d49a40000000000000000000000000000000000000000000000000000000082526004820152fd5b9091506020813d602011611812575b8161180260209383611f13565b81010312610abf575190386116b6565b3d91506117f5565b9050817f360894a13ba1a3210667c828492db98dca3e2076cc3735a920a3ca505d382bbc5416141538611667565b50346101aa5760203660031901126101aa57602061186c611867611eaf565b612079565b6040519015158152f35b50346101aa5760203660031901126101aa57611890611eaf565b6001600160a01b0390816118a2611ff0565b1633036105de576117649160056118b76120fa565b01911690612661565b50346101aa5760203660031901126101aa576004356118e260056101e66120fa565b156105de57611930906118f36120fa565b611911826001600160a01b03928360018183541692015416906123b3565b8061191a6120fa565b54169060026119276120fa565b015416906123b3565b80f35b50346101aa57602080600319360112611aa5576004356001600160a01b0380600161195c6120fa565b01541633036105de578060016119706120fa565b0154169060405190637e062a3560e11b82528482600481865afa91821561059a578692611a86575b508116604051946370a0823160e01b8087523060048801528187602481865afa968715610524578897611a53575b508587106119db57505050611930935061213c565b6119ec610a6a879498849698612056565b60246040518098819382523060048301525afa91821561059a578692611a21575b50611930945081808210911802189161213c565b90915084813d8311611a4c575b611a388183611f13565b81010312610a4c5761193093519038611a0d565b503d611a2e565b9096508181813d8311611a7f575b611a6b8183611f13565b81010312611a7b575195386119c6565b8780fd5b503d611a61565b611a9e919250853d8711610d8f57610d808183611f13565b9038611998565b5080fd5b50346101aa57806003193601126101aa5760206001600160a01b0360046106316120fa565b50346101aa57806003193601126101aa576001600160a01b036001611af16120fa565b01541660405180917f228bfd9f0000000000000000000000000000000000000000000000000000000082523060048301528160246101209485935afa91821561043c578392611b48575b6020836040519015158152f35b90809250813d8311611b7c575b611b5f8183611f13565b81010312611aa557518015158103611aa557602091503880611b3b565b503d611b55565b50346101aa57806003193601126101aa5760206001600160a01b0360016106316120fa565b50346101aa5760203660031901126101aa57611bc2611eaf565b6001600160a01b039081611bd4611ff0565b1633036105de57611764916005611be96120fa565b0191169061255a565b50346101aa57602080600319360112611aa557611c1260056101e66120fa565b156105de576001600160a01b03611c276120fa565b5416604051906370a0823160e01b918281523060048201528381602481855afa928315610a415784918694611cca575b5060246040518094819382523060048301525afa908115610b42578491611c96575b50611c85929350612056565b60043581106102c457604051908152f35b90508281813d8311611cc3575b611cad8183611f13565b81010312610b3757611c85929350518392611c79565b503d611ca3565b8281939295503d8311611cf4575b611ce28183611f13565b81010312610a4c578390519238611c57565b503d611cd8565b50346101aa57806003193601126101aa576020611d16611ff0565b6001600160a01b0360405191168152f35b50346101aa5760203660031901126101aa57611d41611eaf565b611d4e60056101e66120fa565b156105de576001600160a01b03806003611d666120fa565b015416918215611e855781611d796120fa565b5416918116918214908115611e75575b506105a55773eeeeeeeeeeeeeeeeeeeeeeeeeeeeeeeeeeeeeeee8103611e0a57504790814710611dd2578280809381935af1611dc3612193565b9015611dcd575080f35b6124f3565b6044824790604051917fcf47918100000000000000000000000000000000000000000000000000000000835260048301526024820152fd5b604051916370a0823160e01b8352306004840152602083602481855afa918215610b42578492611e3f575b611930935061213c565b91506020833d602011611e6d575b81611e5a60209383611f13565b81010312610b3757611930925191611e35565b3d9150611e4d565b611e7f9150612079565b38611d89565b60046040517fb4b53f42000000000000000000000000000000000000000000000000000000008152fd5b600435906001600160a01b038216820361031657565b6040810190811067ffffffffffffffff821117611ee157604052565b634e487b7160e01b600052604160045260246000fd5b6080810190811067ffffffffffffffff821117611ee157604052565b90601f8019910116810190811067ffffffffffffffff821117611ee157604052565b67ffffffffffffffff8111611ee157601f01601f191660200190565b929192611f5d82611f35565b91611f6b6040519384611f13565b829481845281830111610316578281602093846000960137010152565b6020808252825181830181905290939260005b828110611fbd57505060409293506000838284010152601f8019910116010190565b818101860151848201604001528501611f9b565b9081602091031261031657516001600160a01b03811681036103165790565b600460206001600160a01b0360016120066120fa565b0154166040519283809263030d028960e21b82525afa90811561204a5760009161202e575090565b612047915060203d602011610d8f57610d808183611f13565b90565b6040513d6000823e3d90fd5b9190820391821161206357565b634e487b7160e01b600052601160045260246000fd5b6001600160a01b03908180600261208e6120fa565b01541691169081149182156120a257505090565b9091506120ad6120fa565b54161490565b90600182811c921680156120e3575b60208310146120cd57565b634e487b7160e01b600052602260045260246000fd5b91607f16916120c2565b9190820180921161206357565b604051602081017f2406840ad5584694fd0fd68ca814242285d2c2d94aaaee51ccea0b7e08ea3d5b81526020825261213182611ec5565b9051902060ff191690565b6040517fa9059cbb0000000000000000000000000000000000000000000000000000000060208201526001600160a01b03929092166024830152604480830193909352918152612191916104c5606483611f13565b565b3d156121be573d906121a482611f35565b916121b26040519384611f13565b82523d6000602084013e565b606090565b6001600160a01b0360026121d56120fa565b0154166040517fce96cb770000000000000000000000000000000000000000000000000000000081523060048201526020928382602481865afa90811561204a57849260009261229e575b50606490600060405195869485937fb460af94000000000000000000000000000000000000000000000000000000008552818082109118021860048401523060248401523060448401525af1801561204a5761227a575050565b813d8311612297575b61228d8183611f13565b8101031261031657565b503d612283565b91909282813d83116122c8575b6122b58183611f13565b810103126101aa57505183916064612220565b503d6122ab565b6001600160a01b0360026122e16120fa565b015416604051906370a0823160e01b82523060048301526020918281602481855afa801561204a578391600091612384575b506024604051809481937f07a2d13a00000000000000000000000000000000000000000000000000000000835260048301525afa91821561204a5760009261235a57505090565b90809250813d831161237d575b6123718183611f13565b81010312610316575190565b503d612367565b82819392503d83116123ac575b61239b8183611f13565b810103126103165782905138612313565b503d612391565b60405191602060008185016123ff866123f163095ea7b360e01b998a85528760248401602090939291936001600160a01b0360408201951681520152565b03601f198101885287611f13565b85519082865af16000513d8261245a575b50501561241e575b50505050565b612451936001600160a01b036104c59260405192602084015216602482015260006044820152604481526104bf81611ef7565b38808080612418565b90915061247757506001600160a01b0382163b15155b3880612410565b600114612470565b906000602091828151910182855af11561204a576000513d6124ea57506001600160a01b0381163b155b6124b05750565b6024906001600160a01b03604051917f5274afe7000000000000000000000000000000000000000000000000000000008352166004820152fd5b600114156124a9565b80511561250257805190602001fd5b60046040517fd6bda275000000000000000000000000000000000000000000000000000000008152fd5b80548210156125445760005260206000200190600090565b634e487b7160e01b600052603260045260246000fd5b9060018201906000928184528260205260408420549081151560001461265a576000199180830181811161264657825490848201918211612632578181036125e6575b505050805480156125d2578201916125b5838361252c565b909182549160031b1b191690555582526020526040812055600190565b602486634e487b7160e01b81526031600452fd5b61261d6125f6612606938661252c565b90549060031b1c9283928661252c565b819391549060031b91821b91600019901b19161790565b9055865284602052604086205538808061259d565b602488634e487b7160e01b81526011600452fd5b602487634e487b7160e01b81526011600452fd5b5050505090565b60008281526001820160205260409020546126b65780549068010000000000000000821015611ee1578261269f61260684600180960185558461252c565b905580549260005201602052604060002055600190565b5050600090565b60ff7ff0c57e16840df040f15088dc2f81fe391c3923bec73e23a9662efc9c229c6a005460401c16156126ec57565b60046040517fd7e6bcf8000000000000000000000000000000000000000000000000000000008152fd5b9061272157506124f3565b8151158061276c575b612732575090565b6024906001600160a01b03604051917f9996b315000000000000000000000000000000000000000000000000000000008352166004820152fd5b50803b1561272a56fea2646970667358221220e3659dc712e47f285a64ff27f60c638fb2cd002c5dbc89bb9f4a41fd4e52da8264736f6c63430008190033",
  "implementation": "0xf9Ba216BF85Dc41d81E94FAC7D6c4f3aef934087",
  "devdoc": {
    "errors": {
      "AddressEmptyCode(address)": [
        {
          "details": "There's no code at `target` (it is not a contract)."
        }
      ],
      "ERC1967InvalidImplementation(address)": [
        {
          "details": "The `implementation` of the proxy is invalid."
        }
      ],
      "ERC1967NonPayable()": [
        {
          "details": "An upgrade function sees `msg.value > 0` that may be lost."
        }
      ],
      "FailedCall()": [
        {
          "details": "A call to an address target failed. The target may have reverted."
        }
      ],
      "InsufficientBalance(uint256,uint256)": [
        {
          "details": "The ETH balance of the account is not enough to perform the operation."
        }
      ],
      "InvalidInitialization()": [
        {
          "details": "The contract is already initialized."
        }
      ],
      "NotInitializing()": [
        {
          "details": "The contract is not initializing."
        }
      ],
      "SafeERC20FailedOperation(address)": [
        {
          "details": "An operation with an ERC-20 token failed."
        }
      ],
      "UUPSUnauthorizedCallContext()": [
        {
          "details": "The call is from an unauthorized context."
        }
      ],
      "UUPSUnsupportedProxiableUUID(bytes32)": [
        {
          "details": "The storage `slot` is unsupported as a UUID."
        }
      ]
    },
    "events": {
      "Initialized(uint64)": {
        "details": "Triggered when the contract has been initialized or reinitialized."
      },
      "Upgraded(address)": {
        "details": "Emitted when the implementation is upgraded."
      }
    },
    "kind": "dev",
    "methods": {
      "addKeeper(address)": {
        "params": {
          "keeperAddress_": "keeper address to add."
        }
      },
      "approveToken(uint256)": {
        "details": "OnlyKeeper: Approve all required tokens"
      },
      "claimAndSwapRewards(uint256)": {
        "details": "Claim rewardToken and convert rewardToken into collateral token."
      },
      "proxiableUUID()": {
        "details": "Implementation of the ERC-1822 {proxiableUUID} function. This returns the storage slot used by the implementation. It is used to validate the implementation's compatibility when performing an upgrade. IMPORTANT: A proxy pointing at a proxiable contract should not be considered proxiable itself, because this risks bricking a proxy that upgrades to it, by delegating to itself until out of gas. Thus it is critical that this function revert if invoked through a proxy. This is guaranteed by the `notDelegated` modifier."
      },
      "rebalance(uint256,uint256)": {
        "params": {
          "maxLoss_": "Maximum accepted loss for this call.",
          "minProfit_": "Minimum profit expected from this call."
        },
        "returns": {
          "_loss": "Realized loss, if any, in collateral.",
          "_payback": "If strategy has any excess debt, we have to liquidate asset to payback excess debt.",
          "_profit": "Realized profit in collateral."
        }
      },
      "removeKeeper(address)": {
        "params": {
          "keeperAddress_": "keeper address to remove."
        }
      },
      "sweep(address)": {
        "params": {
          "fromToken_": "token address to sweep"
        }
      },
      "updateFeeCollector(address)": {
        "params": {
          "feeCollector_": "fee collector address"
        }
      },
      "updateSwapper(address)": {
        "params": {
          "swapper_": "swapper address"
        }
      },
      "upgradeToAndCall(address,bytes)": {
        "custom:oz-upgrades-unsafe-allow-reachable": "delegatecall",
        "details": "Upgrade the implementation of the proxy to `newImplementation`, and subsequently execute the function call encoded in `data`. Calls {_authorizeUpgrade}. Emits an {Upgraded} event."
      },
      "withdraw(uint256)": {
        "params": {
          "amount_": "Amount of collateral token"
        }
      }
    },
    "title": "Morpho Vault (MetaMorpho) strategy.",
    "version": 1
  },
  "userdoc": {
    "kind": "user",
    "methods": {
      "addKeeper(address)": {
        "notice": "onlyGovernor: Add given address in keepers list."
      },
      "claimAndSwapRewards(uint256)": {
        "notice": "OnlyKeeper: Claim rewards from protocol."
      },
      "isReservedToken(address)": {
        "notice": "Check whether given token is reserved or not. Reserved tokens are not allowed to sweep."
      },
      "keepers()": {
        "notice": "Return list of keepers"
      },
      "rebalance(uint256,uint256)": {
        "notice": "OnlyKeeper: Rebalance profit, loss and investment of this strategy.  Calculate profit, loss and payback of this strategy and realize profit/loss and  withdraw fund for payback, if any, and submit this report to pool."
      },
      "removeKeeper(address)": {
        "notice": "onlyGovernor: Remove given address from keepers list."
      },
      "swapToCollateral(address,uint256)": {
        "notice": "onlyKeeper: Swap given token into collateral token."
      },
      "sweep(address)": {
        "notice": "onlyKeeper: sweep given token to feeCollector of strategy"
      },
      "tvl()": {
        "notice": "Returns total collateral locked in the strategy"
      },
      "updateFeeCollector(address)": {
        "notice": "onlyGovernor: Update fee collector"
      },
      "updateSwapper(address)": {
        "notice": "onlyGovernor: Update swapper"
      },
      "withdraw(uint256)": {
        "notice": "onlyPool: Withdraw collateral token from end protocol."
      }
    },
    "notice": "This strategy will supply collateral in Morpho Vault. Vault is ERC4626 implementation. It may earn some rewards. Anyone can claim rewards on behalf of this address on Universal Reward Distributor(URD).",
    "version": 1
  },
  "storageLayout": {
    "storage": [],
    "types": null
  }
}