{
  "address": "0x23e8ca7540bfcca875835d2e599a5e64b27be250",
  "abi": [
    {
      "inputs": [
        {
          "internalType": "address",
          "name": "target",
          "type": "address"
        }
      ],
      "name": "AddressEmptyCode",
      "type": "error"
    },
    {
      "inputs": [],
      "name": "AddressIsNull",
      "type": "error"
    },
    {
      "inputs": [],
      "name": "BoosterDepositFailed",
      "type": "error"
    },
    {
      "inputs": [],
      "name": "CanNotSweepToken",
      "type": "error"
    },
    {
      "inputs": [],
      "name": "CurveGaugeIsNull",
      "type": "error"
    },
    {
      "inputs": [],
      "name": "CurveLpIsNull",
      "type": "error"
    },
    {
      "inputs": [],
      "name": "CurvePoolZapIsNull",
      "type": "error"
    },
    {
      "inputs": [
        {
          "internalType": "address",
          "name": "implementation",
          "type": "address"
        }
      ],
      "name": "ERC1967InvalidImplementation",
      "type": "error"
    },
    {
      "inputs": [],
      "name": "ERC1967NonPayable",
      "type": "error"
    },
    {
      "inputs": [],
      "name": "FailedCall",
      "type": "error"
    },
    {
      "inputs": [],
      "name": "FeeCollectorNotSet",
      "type": "error"
    },
    {
      "inputs": [],
      "name": "IncorrectLpToken",
      "type": "error"
    },
    {
      "inputs": [
        {
          "internalType": "uint256",
          "name": "balance",
          "type": "uint256"
        },
        {
          "internalType": "uint256",
          "name": "needed",
          "type": "uint256"
        }
      ],
      "name": "InsufficientBalance",
      "type": "error"
    },
    {
      "inputs": [],
      "name": "InvalidCollateral",
      "type": "error"
    },
    {
      "inputs": [],
      "name": "InvalidInitialization",
      "type": "error"
    },
    {
      "inputs": [],
      "name": "InvalidSlippage",
      "type": "error"
    },
    {
      "inputs": [],
      "name": "InvalidStrategy",
      "type": "error"
    },
    {
      "inputs": [],
      "name": "MaxFourCoinsAreAllowed",
      "type": "error"
    },
    {
      "inputs": [],
      "name": "NotAllowedToSendEther",
      "type": "error"
    },
    {
      "inputs": [],
      "name": "NotEnoughAmountOut",
      "type": "error"
    },
    {
      "inputs": [],
      "name": "NotInitializing",
      "type": "error"
    },
    {
      "inputs": [],
      "name": "OnlyOneEthAllowedInUnderlying",
      "type": "error"
    },
    {
      "inputs": [],
      "name": "RewardClaimFailed",
      "type": "error"
    },
    {
      "inputs": [
        {
          "internalType": "address",
          "name": "token",
          "type": "address"
        }
      ],
      "name": "SafeERC20FailedOperation",
      "type": "error"
    },
    {
      "inputs": [],
      "name": "SlippageTooHigh",
      "type": "error"
    },
    {
      "inputs": [],
      "name": "UUPSUnauthorizedCallContext",
      "type": "error"
    },
    {
      "inputs": [
        {
          "internalType": "bytes32",
          "name": "slot",
          "type": "bytes32"
        }
      ],
      "name": "UUPSUnsupportedProxiableUUID",
      "type": "error"
    },
    {
      "inputs": [],
      "name": "Unauthorized",
      "type": "error"
    },
    {
      "inputs": [],
      "name": "UnstakeFromConvexFailed",
      "type": "error"
    },
    {
      "anonymous": false,
      "inputs": [
        {
          "indexed": false,
          "internalType": "uint64",
          "name": "version",
          "type": "uint64"
        }
      ],
      "name": "Initialized",
      "type": "event"
    },
    {
      "anonymous": false,
      "inputs": [
        {
          "indexed": false,
          "internalType": "contract IMasterOracle",
          "name": "oldMasterOracle",
          "type": "address"
        },
        {
          "indexed": false,
          "internalType": "contract IMasterOracle",
          "name": "newMasterOracle",
          "type": "address"
        }
      ],
      "name": "MasterOracleUpdated",
      "type": "event"
    },
    {
      "anonymous": false,
      "inputs": [
        {
          "indexed": false,
          "internalType": "uint256",
          "name": "oldSlippage",
          "type": "uint256"
        },
        {
          "indexed": false,
          "internalType": "uint256",
          "name": "newSlippage",
          "type": "uint256"
        }
      ],
      "name": "SlippageUpdated",
      "type": "event"
    },
    {
      "anonymous": false,
      "inputs": [
        {
          "indexed": false,
          "internalType": "address",
          "name": "oldFeeCollector",
          "type": "address"
        },
        {
          "indexed": false,
          "internalType": "address",
          "name": "newFeeCollector",
          "type": "address"
        }
      ],
      "name": "UpdatedFeeCollector",
      "type": "event"
    },
    {
      "anonymous": false,
      "inputs": [
        {
          "indexed": false,
          "internalType": "contract ISwapper",
          "name": "oldSwapper",
          "type": "address"
        },
        {
          "indexed": false,
          "internalType": "contract ISwapper",
          "name": "newSwapper",
          "type": "address"
        }
      ],
      "name": "UpdatedSwapper",
      "type": "event"
    },
    {
      "anonymous": false,
      "inputs": [
        {
          "indexed": true,
          "internalType": "address",
          "name": "implementation",
          "type": "address"
        }
      ],
      "name": "Upgraded",
      "type": "event"
    },
    {
      "inputs": [],
      "name": "ADDRESS_PROVIDER",
      "outputs": [
        {
          "internalType": "contract IAddressProvider",
          "name": "",
          "type": "address"
        }
      ],
      "stateMutability": "view",
      "type": "function"
    },
    {
      "inputs": [],
      "name": "CRV_MINTER",
      "outputs": [
        {
          "internalType": "contract ITokenMinter",
          "name": "",
          "type": "address"
        }
      ],
      "stateMutability": "view",
      "type": "function"
    },
    {
      "inputs": [],
      "name": "GAUGE_FACTORY",
      "outputs": [
        {
          "internalType": "contract ILiquidityGaugeFactory",
          "name": "",
          "type": "address"
        }
      ],
      "stateMutability": "view",
      "type": "function"
    },
    {
      "inputs": [],
      "name": "NAME",
      "outputs": [
        {
          "internalType": "string",
          "name": "",
          "type": "string"
        }
      ],
      "stateMutability": "view",
      "type": "function"
    },
    {
      "inputs": [],
      "name": "UPGRADE_INTERFACE_VERSION",
      "outputs": [
        {
          "internalType": "string",
          "name": "",
          "type": "string"
        }
      ],
      "stateMutability": "view",
      "type": "function"
    },
    {
      "inputs": [],
      "name": "VERSION",
      "outputs": [
        {
          "internalType": "string",
          "name": "",
          "type": "string"
        }
      ],
      "stateMutability": "pure",
      "type": "function"
    },
    {
      "inputs": [
        {
          "internalType": "address",
          "name": "keeperAddress_",
          "type": "address"
        }
      ],
      "name": "addKeeper",
      "outputs": [],
      "stateMutability": "nonpayable",
      "type": "function"
    },
    {
      "inputs": [
        {
          "internalType": "uint256",
          "name": "approvalAmount_",
          "type": "uint256"
        }
      ],
      "name": "approveToken",
      "outputs": [],
      "stateMutability": "nonpayable",
      "type": "function"
    },
    {
      "inputs": [],
      "name": "booster",
      "outputs": [
        {
          "internalType": "contract IConvex",
          "name": "",
          "type": "address"
        }
      ],
      "stateMutability": "view",
      "type": "function"
    },
    {
      "inputs": [],
      "name": "claimRewards",
      "outputs": [],
      "stateMutability": "nonpayable",
      "type": "function"
    },
    {
      "inputs": [],
      "name": "collateralToken",
      "outputs": [
        {
          "internalType": "contract IERC20",
          "name": "",
          "type": "address"
        }
      ],
      "stateMutability": "view",
      "type": "function"
    },
    {
      "inputs": [],
      "name": "convexPoolId",
      "outputs": [
        {
          "internalType": "uint256",
          "name": "",
          "type": "uint256"
        }
      ],
      "stateMutability": "view",
      "type": "function"
    },
    {
      "inputs": [],
      "name": "convexRewards",
      "outputs": [
        {
          "internalType": "contract IRewards",
          "name": "",
          "type": "address"
        }
      ],
      "stateMutability": "view",
      "type": "function"
    },
    {
      "inputs": [],
      "name": "convexToken",
      "outputs": [
        {
          "internalType": "address",
          "name": "",
          "type": "address"
        }
      ],
      "stateMutability": "view",
      "type": "function"
    },
    {
      "inputs": [],
      "name": "curveGauge",
      "outputs": [
        {
          "internalType": "contract ILiquidityGaugeV2",
          "name": "",
          "type": "address"
        }
      ],
      "stateMutability": "view",
      "type": "function"
    },
    {
      "inputs": [],
      "name": "curveLp",
      "outputs": [
        {
          "internalType": "contract IERC20",
          "name": "",
          "type": "address"
        }
      ],
      "stateMutability": "view",
      "type": "function"
    },
    {
      "inputs": [],
      "name": "curvePool",
      "outputs": [
        {
          "internalType": "address",
          "name": "",
          "type": "address"
        }
      ],
      "stateMutability": "view",
      "type": "function"
    },
    {
      "inputs": [],
      "name": "curvePoolZap",
      "outputs": [
        {
          "internalType": "address",
          "name": "",
          "type": "address"
        }
      ],
      "stateMutability": "view",
      "type": "function"
    },
    {
      "inputs": [],
      "name": "depositAndStake",
      "outputs": [
        {
          "internalType": "address",
          "name": "",
          "type": "address"
        }
      ],
      "stateMutability": "view",
      "type": "function"
    },
    {
      "inputs": [],
      "name": "feeCollector",
      "outputs": [
        {
          "internalType": "address",
          "name": "",
          "type": "address"
        }
      ],
      "stateMutability": "view",
      "type": "function"
    },
    {
      "inputs": [],
      "name": "getUnderlyingTokens",
      "outputs": [
        {
          "internalType": "address[]",
          "name": "",
          "type": "address[]"
        }
      ],
      "stateMutability": "view",
      "type": "function"
    },
    {
      "inputs": [],
      "name": "governor",
      "outputs": [
        {
          "internalType": "address",
          "name": "",
          "type": "address"
        }
      ],
      "stateMutability": "view",
      "type": "function"
    },
    {
      "inputs": [
        {
          "components": [
            {
              "internalType": "address",
              "name": "pool",
              "type": "address"
            },
            {
              "internalType": "address",
              "name": "swapper",
              "type": "address"
            },
            {
              "internalType": "address",
              "name": "curvePool",
              "type": "address"
            },
            {
              "internalType": "address",
              "name": "curvePoolZap",
              "type": "address"
            },
            {
              "internalType": "address",
              "name": "depositAndStake",
              "type": "address"
            },
            {
              "internalType": "bool",
              "name": "useDynamicArray",
              "type": "bool"
            },
            {
              "internalType": "uint256",
              "name": "slippage",
              "type": "uint256"
            },
            {
              "internalType": "address",
              "name": "weth",
              "type": "address"
            },
            {
              "internalType": "address",
              "name": "masterOracle",
              "type": "address"
            },
            {
              "internalType": "string",
              "name": "name",
              "type": "string"
            }
          ],
          "internalType": "struct CurveBase.CurveInitParams",
          "name": "params_",
          "type": "tuple"
        },
        {
          "internalType": "contract IConvex",
          "name": "booster_",
          "type": "address"
        },
        {
          "internalType": "uint256",
          "name": "convexPoolId_",
          "type": "uint256"
        }
      ],
      "name": "initialize",
      "outputs": [],
      "stateMutability": "nonpayable",
      "type": "function"
    },
    {
      "inputs": [],
      "name": "isActive",
      "outputs": [
        {
          "internalType": "bool",
          "name": "",
          "type": "bool"
        }
      ],
      "stateMutability": "view",
      "type": "function"
    },
    {
      "inputs": [
        {
          "internalType": "address",
          "name": "token_",
          "type": "address"
        }
      ],
      "name": "isReservedToken",
      "outputs": [
        {
          "internalType": "bool",
          "name": "",
          "type": "bool"
        }
      ],
      "stateMutability": "view",
      "type": "function"
    },
    {
      "inputs": [],
      "name": "keepers",
      "outputs": [
        {
          "internalType": "address[]",
          "name": "",
          "type": "address[]"
        }
      ],
      "stateMutability": "view",
      "type": "function"
    },
    {
      "inputs": [],
      "name": "lpBalanceHere",
      "outputs": [
        {
          "internalType": "uint256",
          "name": "_lpHere",
          "type": "uint256"
        }
      ],
      "stateMutability": "view",
      "type": "function"
    },
    {
      "inputs": [],
      "name": "lpBalanceHereAndStaked",
      "outputs": [
        {
          "internalType": "uint256",
          "name": "_lpHereAndStaked",
          "type": "uint256"
        }
      ],
      "stateMutability": "view",
      "type": "function"
    },
    {
      "inputs": [],
      "name": "lpBalanceStaked",
      "outputs": [
        {
          "internalType": "uint256",
          "name": "_total",
          "type": "uint256"
        }
      ],
      "stateMutability": "view",
      "type": "function"
    },
    {
      "inputs": [],
      "name": "masterOracle",
      "outputs": [
        {
          "internalType": "contract IMasterOracle",
          "name": "",
          "type": "address"
        }
      ],
      "stateMutability": "view",
      "type": "function"
    },
    {
      "inputs": [],
      "name": "pool",
      "outputs": [
        {
          "internalType": "address",
          "name": "",
          "type": "address"
        }
      ],
      "stateMutability": "view",
      "type": "function"
    },
    {
      "inputs": [],
      "name": "poolAccountant",
      "outputs": [
        {
          "internalType": "address",
          "name": "",
          "type": "address"
        }
      ],
      "stateMutability": "view",
      "type": "function"
    },
    {
      "inputs": [],
      "name": "proxiableUUID",
      "outputs": [
        {
          "internalType": "bytes32",
          "name": "",
          "type": "bytes32"
        }
      ],
      "stateMutability": "view",
      "type": "function"
    },
    {
      "inputs": [],
      "name": "rebalance",
      "outputs": [
        {
          "internalType": "uint256",
          "name": "_profit",
          "type": "uint256"
        },
        {
          "internalType": "uint256",
          "name": "_loss",
          "type": "uint256"
        },
        {
          "internalType": "uint256",
          "name": "_payback",
          "type": "uint256"
        }
      ],
      "stateMutability": "nonpayable",
      "type": "function"
    },
    {
      "inputs": [],
      "name": "receiptToken",
      "outputs": [
        {
          "internalType": "address",
          "name": "",
          "type": "address"
        }
      ],
      "stateMutability": "view",
      "type": "function"
    },
    {
      "inputs": [
        {
          "internalType": "address",
          "name": "keeperAddress_",
          "type": "address"
        }
      ],
      "name": "removeKeeper",
      "outputs": [],
      "stateMutability": "nonpayable",
      "type": "function"
    },
    {
      "inputs": [],
      "name": "slippage",
      "outputs": [
        {
          "internalType": "uint256",
          "name": "",
          "type": "uint256"
        }
      ],
      "stateMutability": "view",
      "type": "function"
    },
    {
      "inputs": [
        {
          "internalType": "contract IERC20",
          "name": "tokenIn_",
          "type": "address"
        },
        {
          "internalType": "uint256",
          "name": "minAmountOut_",
          "type": "uint256"
        }
      ],
      "name": "swapToCollateral",
      "outputs": [
        {
          "internalType": "uint256",
          "name": "_amountOut",
          "type": "uint256"
        }
      ],
      "stateMutability": "nonpayable",
      "type": "function"
    },
    {
      "inputs": [],
      "name": "swapper",
      "outputs": [
        {
          "internalType": "contract ISwapper",
          "name": "",
          "type": "address"
        }
      ],
      "stateMutability": "view",
      "type": "function"
    },
    {
      "inputs": [
        {
          "internalType": "address",
          "name": "fromToken_",
          "type": "address"
        }
      ],
      "name": "sweep",
      "outputs": [],
      "stateMutability": "nonpayable",
      "type": "function"
    },
    {
      "inputs": [],
      "name": "tvl",
      "outputs": [
        {
          "internalType": "uint256",
          "name": "",
          "type": "uint256"
        }
      ],
      "stateMutability": "view",
      "type": "function"
    },
    {
      "inputs": [
        {
          "internalType": "address",
          "name": "feeCollector_",
          "type": "address"
        }
      ],
      "name": "updateFeeCollector",
      "outputs": [],
      "stateMutability": "nonpayable",
      "type": "function"
    },
    {
      "inputs": [
        {
          "internalType": "contract IMasterOracle",
          "name": "newMasterOracle_",
          "type": "address"
        }
      ],
      "name": "updateMasterOracle",
      "outputs": [],
      "stateMutability": "nonpayable",
      "type": "function"
    },
    {
      "inputs": [
        {
          "internalType": "uint256",
          "name": "newSlippage_",
          "type": "uint256"
        }
      ],
      "name": "updateSlippage",
      "outputs": [],
      "stateMutability": "nonpayable",
      "type": "function"
    },
    {
      "inputs": [
        {
          "internalType": "contract ISwapper",
          "name": "swapper_",
          "type": "address"
        }
      ],
      "name": "updateSwapper",
      "outputs": [],
      "stateMutability": "nonpayable",
      "type": "function"
    },
    {
      "inputs": [
        {
          "internalType": "address",
          "name": "newImplementation",
          "type": "address"
        },
        {
          "internalType": "bytes",
          "name": "data",
          "type": "bytes"
        }
      ],
      "name": "upgradeToAndCall",
      "outputs": [],
      "stateMutability": "payable",
      "type": "function"
    },
    {
      "inputs": [
        {
          "internalType": "uint256",
          "name": "amount_",
          "type": "uint256"
        }
      ],
      "name": "withdraw",
      "outputs": [],
      "stateMutability": "nonpayable",
      "type": "function"
    },
    {
      "inputs": [
        {
          "internalType": "uint256",
          "name": "minAmountOut_",
          "type": "uint256"
        }
      ],
      "name": "withdrawAllCoins",
      "outputs": [
        {
          "internalType": "uint256",
          "name": "_amountOut",
          "type": "uint256"
        }
      ],
      "stateMutability": "nonpayable",
      "type": "function"
    },
    {
      "stateMutability": "payable",
      "type": "receive"
    }
  ],
  "transactionHash": "0x876036c538b607913758ddee6f2c6162ccd17662091401bb932fcb1e5395f1ee",
  "args": [],
  "numDeployments": 1,
  "solcInputHash": "ecf5091192b38302caa5845d8c14adeb",
  "bytecode": "0x60a06040523060805234801561001457600080fd5b5061001d610022565b6100d4565b7ff0c57e16840df040f15088dc2f81fe391c3923bec73e23a9662efc9c229c6a00805468010000000000000000900460ff16156100725760405163f92ee8a960e01b815260040160405180910390fd5b80546001600160401b03908116146100d15780546001600160401b0319166001600160401b0390811782556040519081527fc7f505b2f371ae2175ee4913f4499e1f2633a7b5936321eed1cdaeb6115181d29060200160405180910390a15b50565b60805161590f6100fd600039600081816122e30152818161230c015261245d015261590f6000f3fe6080604052600436106102975760003560e01c8063951dc22c1161015a578063d2c35ce8116100c1578063e89133b21161007a578063e89133b21461092a578063eaada3821461093f578063ec78e83214610954578063edb13ecb14610969578063ee330ee31461097e578063ffa1ad741461099e57600080fd5b8063d2c35ce814610896578063d3033c39146108b6578063d95bd6c9146108d6578063de603fdc146108eb578063e529ee9514610900578063e5328e061461091557600080fd5b8063be933ae611610113578063be933ae61461080d578063c12d636b14610822578063c166f3cb14610837578063c415b95c14610857578063c6def0761461086c578063c965fa8a1461088157600080fd5b8063951dc22c14610743578063a3f4df7e14610765578063abc9b45e14610787578063ad3cb1cc146107a7578063b2016bd4146107d8578063be60d36d146107ed57600080fd5b80633ac9fc11116101fe57806352d1902d116101b757806352d1902d1461069757806366519bd6146106ac57806374db9ad4146106c157806379054cc9146106e9578063795dae66146106fe5780637d7c2a1c1461071357600080fd5b80633ac9fc11146105d95780633e032a3b146105f95780634032b72b1461061c578063440d72481461063c5780634a2b9e071461065c5780634f1ef2861461068457600080fd5b8063218751b211610250578063218751b21461054057806322f3e2d414610555578063280718e21461057a5780632b3297f91461058f5780632e1a7d4d146105a4578063372500ab146105c457600080fd5b806301681a62146104785780630c340a241461049857806314ae9f2e146104c357806315b0d496146104e357806316f0115b146105035780631848effa1461051857600080fd5b366104735760006102a66109cc565b604080516101c08101825282546001600160a01b0390811682526001840154811660208084019190915260028501548216838501526003850154821660608401526004850154821660808401526005850154821660a08401526006850154821660c08401526007850154821660e084015260088501549091166101008301526009840154610120830152600a840154600f0b610140830152600b84018054845181840281018401909552808552929493610160860193909283018282801561039757602002820191906000526020600020905b81546001600160a01b03168152600190910190602001808311610379575b5050509183525050600c919091015460ff80821615156020840152610100909104161515604090910152805160a082015191925090336001600160a01b038316148015906103ee5750336001600160a01b03821614155b1561040c5760405163e765476560e01b815260040160405180910390fd5b6001600160a01b038216330361047157806001600160a01b031663d0e30db0476040518263ffffffff1660e01b81526004016000604051808303818588803b15801561045757600080fd5b505af115801561046b573d6000803e3d6000fd5b50505050505b005b600080fd5b34801561048457600080fd5b50610471610493366004614f6e565b610a2e565b3480156104a457600080fd5b506104ad610b99565b6040516104ba9190614f8b565b60405180910390f35b3480156104cf57600080fd5b506104716104de366004614f6e565b610c09565b3480156104ef57600080fd5b506104716104fe366004614f9f565b610c56565b34801561050f57600080fd5b506104ad610d01565b34801561052457600080fd5b506104ad735ffe7fb82894076ecb99a30d6a32e969e6e35e9881565b34801561054c57600080fd5b506104ad610d1d565b34801561056157600080fd5b5061056a610d36565b60405190151581526020016104ba565b34801561058657600080fd5b506104ad610dbd565b34801561059b57600080fd5b506104ad610dd9565b3480156105b057600080fd5b506104716105bf366004614f9f565b610df5565b3480156105d057600080fd5b50610471610f80565b3480156105e557600080fd5b506104716105f4366004614f9f565b610fb2565b34801561060557600080fd5b5061060e610fe6565b6040519081526020016104ba565b34801561062857600080fd5b50610471610637366004614f6e565b610ff9565b34801561064857600080fd5b5061056a610657366004614f6e565b611046565b34801561066857600080fd5b506104ad73abc000d88f23bb45525e447528dbf656a9d55bf581565b61047161069236600461506c565b61108d565b3480156106a357600080fd5b5061060e6110a8565b3480156106b857600080fd5b506104ad6110c5565b3480156106cd57600080fd5b506104ad73d061d61a4d941c39e5453435b6345dc261c2fce081565b3480156106f557600080fd5b506104ad6110cf565b34801561070a57600080fd5b5061060e6110d9565b34801561071f57600080fd5b5061072861114f565b604080519384526020840192909252908201526060016104ba565b34801561074f57600080fd5b5061075861118f565b6040516104ba9190615114565b34801561077157600080fd5b5061077a6111a4565b6040516104ba919061514b565b34801561079357600080fd5b506104716107a2366004614f6e565b61123f565b3480156107b357600080fd5b5061077a604051806040016040528060058152602001640352e302e360dc1b81525081565b3480156107e457600080fd5b506104ad611315565b3480156107f957600080fd5b5061060e610808366004614f9f565b61131f565b34801561081957600080fd5b506104ad6116c0565b34801561082e57600080fd5b506104ad6116dc565b34801561084357600080fd5b506104716108523660046151b7565b611723565b34801561086357600080fd5b506104ad61193b565b34801561087857600080fd5b506104ad611945565b34801561088d57600080fd5b5061060e61194f565b3480156108a257600080fd5b506104716108b1366004614f6e565b611959565b3480156108c257600080fd5b506104716108d1366004614f6e565b611a2f565b3480156108e257600080fd5b50610758611b05565b3480156108f757600080fd5b5061060e611b6f565b34801561090c57600080fd5b5061060e611bf7565b34801561092157600080fd5b5061060e611c0a565b34801561093657600080fd5b506104ad611c24565b34801561094b57600080fd5b506104ad611c2e565b34801561096057600080fd5b506104ad611c4a565b34801561097557600080fd5b506104ad611c50565b34801561098a57600080fd5b5061060e6109993660046152d5565b611c5a565b3480156109aa57600080fd5b506040805180820190915260058152640352e352e360dc1b602082015261077a565b60008060ff196109fd60017fbab41e3047bd82ac921d110ce90c261faaf0692d942b70fdb1fe065d060ad378615317565b604051602001610a0f91815260200190565b60408051601f1981840301815291905280516020909101201692915050565b610a4333610a3a611f01565b60050190611f32565b610a5f576040516282b42960e81b815260040160405180910390fd5b6000610a6961193b565b90506001600160a01b038116610a9257604051635a5a9fa160e11b815260040160405180910390fd5b610a9a611315565b6001600160a01b0316826001600160a01b03161480610abd5750610abd82611046565b15610adb5760405163b92ab52360e01b815260040160405180910390fd5b73eeeeeeeeeeeeeeeeeeeeeeeeeeeeeeeeeeeeeeed196001600160a01b03831601610b0e57610b0a8147611f57565b5050565b6040516370a0823160e01b81526000906001600160a01b038416906370a0823190610b3d903090600401614f8b565b602060405180830381865afa158015610b5a573d6000803e3d6000fd5b505050506040513d601f19601f82011682018060405250810190610b7e919061532a565b9050610b946001600160a01b0384168383611ff2565b505050565b6000610ba3610d01565b6001600160a01b0316630c340a246040518163ffffffff1660e01b8152600401602060405180830381865afa158015610be0573d6000803e3d6000fd5b505050506040513d601f19601f82011682018060405250810190610c049190615343565b905090565b610c11610b99565b6001600160a01b0316336001600160a01b031614610c41576040516282b42960e81b815260040160405180910390fd5b610b0a81610c4d611f01565b6005019061204a565b610c5e610b99565b6001600160a01b0316336001600160a01b031614610c8e576040516282b42960e81b815260040160405180910390fd5b6127108110610cb05760405163334ee9a160e01b815260040160405180910390fd5b6000610cba6109cc565b600981015460408051918252602082018590529192507f07af09e2b23ebab5dd29fa2271d6ca4795031f308caf26ca605f4a719ffeed61910160405180910390a160090155565b6000610d0b611f01565b600101546001600160a01b0316919050565b6000610d276109cc565b546001600160a01b0316919050565b600080610d41610d01565b6001600160a01b031663228bfd9f306040518263ffffffff1660e01b8152600401610d6c9190614f8b565b61012060405180830381865afa158015610d8a573d6000803e3d6000fd5b505050506040513d601f19601f82011682018060405250810190610dae9190615360565b50969998505050505050505050565b6000610dc76109cc565b600201546001600160a01b0316919050565b6000610de3611f01565b600401546001600160a01b0316919050565b610dfd610d01565b6001600160a01b0316336001600160a01b031614610e2d576040516282b42960e81b815260040160405180910390fd5b6000610e37611f01565b805460018201546040516370a0823160e01b81529293506001600160a01b039182169291169060009083906370a0823190610e76903090600401614f8b565b602060405180830381865afa158015610e93573d6000803e3d6000fd5b505050506040513d601f19601f82011682018060405250810190610eb7919061532a565b9050848110610ed957610ed46001600160a01b0384168387611ff2565b610f79565b610eeb610ee68287615317565b61205f565b6040516370a0823160e01b81526001600160a01b038416906370a0823190610f17903090600401614f8b565b602060405180830381865afa158015610f34573d6000803e3d6000fd5b505050506040513d601f19601f82011682018060405250810190610f58919061532a565b9050610f7982610f6887846120c9565b6001600160a01b0386169190611ff2565b5050505050565b610f8c33610a3a611f01565b610fa8576040516282b42960e81b815260040160405180910390fd5b610fb06120d9565b565b610fbe33610a3a611f01565b610fda576040516282b42960e81b815260040160405180910390fd5b610fe381612296565b50565b6000610ff06109cc565b60090154905090565b611001610b99565b6001600160a01b0316336001600160a01b031614611031576040516282b42960e81b815260040160405180910390fd5b610b0a8161103d611f01565b600501906122c3565b6000611050611c4a565b6001600160a01b0316826001600160a01b031614806110875750611072611315565b6001600160a01b0316826001600160a01b0316145b92915050565b6110956122d8565b61109e82612366565b610b0a828261239e565b60006110b2612452565b506000805160206158ba83398151915290565b6000610de36109cc565b6000610dc761249b565b60006110e3611c50565b6001600160a01b03166370a08231306040518263ffffffff1660e01b815260040161110e9190614f8b565b602060405180830381865afa15801561112b573d6000803e3d6000fd5b505050506040513d601f19601f82011682018060405250810190610c04919061532a565b600080600061116033610a3a611f01565b61117c576040516282b42960e81b815260040160405180910390fd5b6111846124cc565b925092509250909192565b6060610c0461119c611f01565b600501612816565b60606111ae611f01565b60070180546111bc906153d4565b80601f01602080910402602001604051908101604052809291908181526020018280546111e8906153d4565b80156112355780601f1061120a57610100808354040283529160200191611235565b820191906000526020600020905b81548152906001019060200180831161121857829003601f168201915b5050505050905090565b611247610b99565b6001600160a01b0316336001600160a01b031614611277576040516282b42960e81b815260040160405180910390fd5b6001600160a01b03811661129e5760405163fb7566d760e01b815260040160405180910390fd5b60006112a86109cc565b60068101546040519192507fc96bca3f57d35a1057a3357bced51fac157918147faa56845639671c516ec69c916112ea916001600160a01b0316908590615408565b60405180910390a160060180546001600160a01b0319166001600160a01b0392909216919091179055565b6000610d27611f01565b600061132d33610a3a611f01565b611349576040516282b42960e81b815260040160405180910390fd5b60006113536110d9565b9050600061135f61194f565b9050600061136b61194f565b6113759084615422565b905081156113865761138682612823565b6000611390611315565b90506000816001600160a01b03166370a08231306040518263ffffffff1660e01b81526004016113c09190614f8b565b602060405180830381865afa1580156113dd573d6000803e3d6000fd5b505050506040513d601f19601f82011682018060405250810190611401919061532a565b9050600061140d6109cc565b604080516101c08101825282546001600160a01b0390811682526001840154811660208084019190915260028501548216838501526003850154821660608401526004850154821660808401526005850154821660a08401526006850154821660c08401526007850154821660e084015260088501549091166101008301526009840154610120830152600a840154600f0b610140830152600b8401805484518184028101840190955280855292949361016086019390928301828280156114fe57602002820191906000526020600020905b81546001600160a01b031681526001909101906020018083116114e0575b5050509183525050600c919091015460ff8082161515602084015261010090910416151560409091015261016081015180519192509061153e81876128c2565b60005b8181101561161657600083828151811061155d5761155d615435565b60200260200101519050866001600160a01b0316816001600160a01b031603611586575061160e565b6040516370a0823160e01b81526000906001600160a01b038316906370a08231906115b5903090600401614f8b565b602060405180830381865afa1580156115d2573d6000803e3d6000fd5b505050506040513d601f19601f820116820180604052508101906115f6919061532a565b9050801561160b57611609828983612cfb565b505b50505b600101611541565b506040516370a0823160e01b815284906001600160a01b038716906370a0823190611645903090600401614f8b565b602060405180830381865afa158015611662573d6000803e3d6000fd5b505050506040513d601f19601f82011682018060405250810190611686919061532a565b6116909190615317565b9850898910156116b35760405163428637bb60e11b815260040160405180910390fd5b5050505050505050919050565b60006116ca6109cc565b600301546001600160a01b0316919050565b60006116e6610d01565b6001600160a01b031663c12d636b6040518163ffffffff1660e01b8152600401602060405180830381865afa158015610be0573d6000803e3d6000fd5b600061172d612d97565b805490915060ff600160401b82041615906001600160401b03166000811580156117545750825b90506000826001600160401b031660011480156117705750303b155b90508115801561177e575080155b1561179c5760405163f92ee8a960e01b815260040160405180910390fd5b845467ffffffffffffffff1916600117855583156117c657845460ff60401b1916600160401b1785555b6117cf88612dbb565b6001600160a01b0387166117f65760405163fb7566d760e01b815260040160405180910390fd5b604051631526fe2760e01b81526004810187905260009081906001600160a01b038a1690631526fe279060240160c060405180830381865afa158015611840573d6000803e3d6000fd5b505050506040513d601f19601f82011682018060405250810190611864919061544b565b5050935050509150611874611c4a565b6001600160a01b0316826001600160a01b0316146118a5576040516389e981ed60e01b815260040160405180910390fd5b60006118af61249b565b6001810180546001600160a01b03808e166001600160a01b031992831617909255600283018054959092169416939093179092555060030187905550831561193157845460ff60401b19168555604051600181527fc7f505b2f371ae2175ee4913f4499e1f2633a7b5936321eed1cdaeb6115181d29060200160405180910390a15b5050505050505050565b60006116ca611f01565b6000610d0b61249b565b60006110e36110cf565b611961610b99565b6001600160a01b0316336001600160a01b031614611991576040516282b42960e81b815260040160405180910390fd5b6001600160a01b0381166119b85760405163fb7566d760e01b815260040160405180910390fd5b60006119c2611f01565b60038101546040519192507f0f06062680f9bd68e786e9980d9bb03d73d5620fc3b345e417b6eacb310b970691611a04916001600160a01b0316908590615408565b60405180910390a160030180546001600160a01b0319166001600160a01b0392909216919091179055565b611a37610b99565b6001600160a01b0316336001600160a01b031614611a67576040516282b42960e81b815260040160405180910390fd5b6001600160a01b038116611a8e5760405163fb7566d760e01b815260040160405180910390fd5b6000611a98611f01565b60048101546040519192507f6c953b7ec311055c20b96a42cea31e89528e375b1bf953a503db40854b3188fe91611ada916001600160a01b0316908590615408565b60405180910390a160040180546001600160a01b0319166001600160a01b0392909216919091179055565b6060611b0f6109cc565b600b0180548060200260200160405190810160405280929190818152602001828054801561123557602002820191906000526020600020905b81546001600160a01b03168152600190910190602001808311611b48575050505050905090565b6000611b7961194f565b611b81611c50565b6001600160a01b03166370a08231306040518263ffffffff1660e01b8152600401611bac9190614f8b565b602060405180830381865afa158015611bc9573d6000803e3d6000fd5b505050506040513d601f19601f82011682018060405250810190611bed919061532a565b610c049190615422565b6000611c0161249b565b60030154905090565b6000611c1c611c17611b6f565b6133a6565b611b81611315565b6000610d2761249b565b6000611c386109cc565b600601546001600160a01b0316919050565b6000610c045b6000610d0b6109cc565b6000611c6833610a3a611f01565b611c84576040516282b42960e81b815260040160405180910390fd5b6000611c8e611f01565b805460048201549192506001600160a01b03908116918116908616821480611cba5750611cba86611046565b15611cd85760405163b92ab52360e01b815260040160405180910390fd5b6040516370a0823160e01b81526000906001600160a01b038416906370a0823190611d07903090600401614f8b565b602060405180830381865afa158015611d24573d6000803e3d6000fd5b505050506040513d601f19601f82011682018060405250810190611d48919061532a565b90506000876001600160a01b03166370a08231306040518263ffffffff1660e01b8152600401611d789190614f8b565b602060405180830381865afa158015611d95573d6000803e3d6000fd5b505050506040513d601f19601f82011682018060405250810190611db9919061532a565b90508015611e5a57604051636eb1769f60e11b81526001600160a01b0389169063dd62ed3e90611def9030908790600401615408565b602060405180830381865afa158015611e0c573d6000803e3d6000fd5b505050506040513d601f19601f82011682018060405250810190611e30919061532a565b811115611e4d57611e4d6001600160a01b03891684600019613609565b611e58888583612cfb565b505b6040516370a0823160e01b815282906001600160a01b038616906370a0823190611e88903090600401614f8b565b602060405180830381865afa158015611ea5573d6000803e3d6000fd5b505050506040513d601f19601f82011682018060405250810190611ec9919061532a565b611ed39190615317565b955086861015611ef6576040516311db7edb60e31b815260040160405180910390fd5b505050505092915050565b60008060ff196109fd60017f2406840ad5584694fd0fd68ca814242285d2c2d94aaaee51ccea0b7e08ea3d5c615317565b6001600160a01b038116600090815260018301602052604081205415155b9392505050565b80471015611f865760405163cf47918160e01b8152476004820152602481018290526044015b60405180910390fd5b600080836001600160a01b03168360405160006040518083038185875af1925050503d8060008114611fd4576040519150601f19603f3d011682016040523d82523d6000602084013e611fd9565b606091505b509150915081611fec57611fec8161369b565b50505050565b610b9483846001600160a01b031663a9059cbb85856040516024016120189291906154d2565b604051602081830303815290604052915060e01b6020820180516001600160e01b0383818316178352505050506136c4565b6000611f50836001600160a01b03841661372c565b60006120696110d9565b9050600061207561194f565b61207f9083615422565b9050600061208c826133a6565b905060006120ae8261209e85886154eb565b6120a89190615502565b846120c9565b9050806000036120bf575050505050565b610f79848261381f565b6000828218828410028218611f50565b60006120e3610dbd565b90504660010361215b576040516335313c2160e11b815273d061d61a4d941c39e5453435b6345dc261c2fce090636a62784290612124908490600401614f8b565b600060405180830381600087803b15801561213e57600080fd5b505af1158015612152573d6000803e3d6000fd5b50505050612242565b604051634b92037960e01b815273abc000d88f23bb45525e447528dbf656a9d55bf590634b92037990612192908490600401614f8b565b602060405180830381865afa1580156121af573d6000803e3d6000fd5b505050506040513d601f19601f820116820180604052508101906121d39190615524565b15612242576040516335313c2160e11b815273abc000d88f23bb45525e447528dbf656a9d55bf590636a6278429061220f908490600401614f8b565b600060405180830381600087803b15801561222957600080fd5b505af115801561223d573d6000803e3d6000fd5b505050505b806001600160a01b031663e6f1daf26040518163ffffffff1660e01b8152600401600060405180830381600087803b15801561227d57600080fd5b505af192505050801561228e575060015b15610fe35750565b61229f816139ed565b610fe36122aa611945565b826122b3611c50565b6001600160a01b03169190613609565b6000611f50836001600160a01b038416613c49565b306001600160a01b037f000000000000000000000000000000000000000000000000000000000000000016148061234857507f00000000000000000000000000000000000000000000000000000000000000006001600160a01b031661233c613c98565b6001600160a01b031614155b15610fb05760405163703e46dd60e11b815260040160405180910390fd5b61236e610b99565b6001600160a01b0316336001600160a01b031614610fe3576040516282b42960e81b815260040160405180910390fd5b816001600160a01b03166352d1902d6040518163ffffffff1660e01b8152600401602060405180830381865afa9250505080156123f8575060408051601f3d908101601f191682019092526123f59181019061532a565b60015b6124175781604051634c9c8ce360e01b8152600401611f7d9190614f8b565b6000805160206158ba833981519152811461244857604051632a87526960e21b815260048101829052602401611f7d565b610b948383613cae565b306001600160a01b037f00000000000000000000000000000000000000000000000000000000000000001614610fb05760405163703e46dd60e11b815260040160405180910390fd5b60008060ff196109fd60017f01191ad2b9c93519c7c8e8e1a3356cfaca04cd0a8d159aa7f8e90f91b5cdf0ef615317565b6000806000806124da610d01565b90506000816001600160a01b031663d53ddc26306040518263ffffffff1660e01b815260040161250a9190614f8b565b602060405180830381865afa158015612527573d6000803e3d6000fd5b505050506040513d601f19601f8201168201806040525081019061254b919061532a565b90506000826001600160a01b0316639f2b2833306040518263ffffffff1660e01b815260040161257b9190614f8b565b602060405180830381865afa158015612598573d6000803e3d6000fd5b505050506040513d601f19601f820116820180604052508101906125bc919061532a565b905060006125c8611315565b905060006125d46110d9565b905060006125e061194f565b6125ea9083615422565b905060006125f782613d04565b90506000846001600160a01b03166370a08231306040518263ffffffff1660e01b81526004016126279190614f8b565b602060405180830381865afa158015612644573d6000803e3d6000fd5b505050506040513d601f19601f82011682018060405250810190612668919061532a565b905060006126768383615422565b9050868111156126915761268a8782615317565b9b5061269e565b61269b8188615317565b9a505b60006126aa898e615422565b9050828111156127675760006126c08483615317565b905060006126e2866126d289856154eb565b6126dc9190615502565b886120c9565b90508015612764576126f4888261381f565b6040516370a0823160e01b81526001600160a01b038a16906370a0823190612720903090600401614f8b565b602060405180830381865afa15801561273d573d6000803e3d6000fd5b505050506040513d601f19601f82011682018060405250810190612761919061532a565b94505b50505b612771838a6120c9565b9a508a8311612781576000612794565b61279461278e8c85615317565b8e6120c9565b6040516302df682360e11b815260048101829052602481018e9052604481018d9052909d506001600160a01b038b16906305bed04690606401600060405180830381600087803b1580156127e757600080fd5b505af11580156127fb573d6000803e3d6000fd5b50505050612807613d78565b50505050505050505050909192565b60606000611f5083613eb1565b8015610fe3576128316110cf565b604051636197390160e11b815260048101839052600060248201526001600160a01b03919091169063c32e7202906044016020604051808303816000875af1158015612881573d6000803e3d6000fd5b505050506040513d601f19601f820116820180604052508101906128a59190615524565b610fe35760405163cba458bf60e01b815260040160405180910390fd5b60006128cc6109cc565b604080516101c08101825282546001600160a01b0390811682526001840154811660208084019190915260028501548216838501526003850154821660608401526004850154821660808401526005850154821660a08401526006850154821660c08401526007850154821660e084015260088501549091166101008301526009840154610120830152600a840154600f0b610140830152600b8401805484518184028101840190955280855292949361016086019390928301828280156129bd57602002820191906000526020600020905b81546001600160a01b0316815260019091019060200180831161299f575b5050509183525050600c919091015460ff8082161515602084015261010090910416151560409091015280516060820151610180830151929350909115612aa457816001600160a01b031663d40ddb8c85876001600160401b03811115612a2657612a26614fb8565b604051908082528060200260200182016040528015612a4f578160200160208202803683370190505b506040518363ffffffff1660e01b8152600401612a6d929190615572565b600060405180830381600087803b158015612a8757600080fd5b505af1158015612a9b573d6000803e3d6000fd5b50505050610f79565b84600203612b8f57612ab4614e75565b6001600160a01b03821615612b28576040516316cd8e2760e21b81526001600160a01b03831690635b36389c90612af1908890859060040161558b565b600060405180830381600087803b158015612b0b57600080fd5b505af1158015612b1f573d6000803e3d6000fd5b50505050612b89565b6040516316cd8e2760e21b81526001600160a01b03841690635b36389c90612b56908890859060040161558b565b600060405180830381600087803b158015612b7057600080fd5b505af1158015612b84573d6000803e3d6000fd5b505050505b50610f79565b84600303612c0c57612b9f614e93565b6001600160a01b03821615612bde576040516347d4495360e11b81526001600160a01b03831690638fa892a690612af1908690899086906004016155e6565b60405163ecb586a560e01b81526001600160a01b0384169063ecb586a590612b56908890859060040161560a565b84600403610f7957612c1c614eb1565b6001600160a01b03821615612c92576040516315ab992360e31b81526001600160a01b0383169063ad5cc91890612c5b90869089908690600401615641565b600060405180830381600087803b158015612c7557600080fd5b505af1158015612c89573d6000803e3d6000fd5b50505050612cf3565b604051637d49d87560e01b81526001600160a01b03841690637d49d87590612cc09088908590600401615665565b600060405180830381600087803b158015612cda57600080fd5b505af1158015612cee573d6000803e3d6000fd5b505050505b505050505050565b6000612d05610dd9565b604051636ccb2b0160e01b81526001600160a01b038681166004830152858116602483015260448201859052600160648301523060848301529190911690636ccb2b019060a4016020604051808303816000875af1158015612d6b573d6000803e3d6000fd5b505050506040513d601f19601f82011682018060405250810190612d8f919061532a565b949350505050565b7ff0c57e16840df040f15088dc2f81fe391c3923bec73e23a9662efc9c229c6a0090565b6000612dc5612d97565b805490915060ff600160401b82041615906001600160401b0316600081158015612dec5750825b90506000826001600160401b03166001148015612e085750303b155b905081158015612e16575080155b15612e345760405163f92ee8a960e01b815260040160405180910390fd5b845467ffffffffffffffff191660011785558315612e5e57845460ff60401b1916600160401b1785555b612e78866000015187602001516001896101200151613f0d565b60408601516001600160a01b03161580612e9d575060808601516001600160a01b0316155b80612eb3575060e08601516001600160a01b0316155b80612eca57506101008601516001600160a01b0316155b15612ee85760405163fb7566d760e01b815260040160405180910390fd5b60405163124fd3dd60e21b815260076004820152600090735ffe7fb82894076ecb99a30d6a32e969e6e35e989063493f4f7490602401602060405180830381865afa158015612f3b573d6000803e3d6000fd5b505050506040513d601f19601f82011682018060405250810190612f5f9190615343565b90506000816001600160a01b0316633795104989604001516040518263ffffffff1660e01b8152600401612f939190614f8b565b602060405180830381865afa158015612fb0573d6000803e3d6000fd5b505050506040513d601f19601f82011682018060405250810190612fd49190615343565b90506001600160a01b038116612ffd576040516302de52d160e01b815260040160405180910390fd5b604080890151905163daf297b960e01b81526000916001600160a01b0385169163daf297b99161302f91600401614f8b565b602060405180830381865afa15801561304c573d6000803e3d6000fd5b505050506040513d601f19601f820116820180604052508101906130709190615343565b90506001600160a01b03811661309957604051631edbf35760e01b815260040160405180910390fd5b60006130a36109cc565b90506000806130bb868d604001518e60e001516140de565b600a870180546001600160801b0319166001600160801b0385161790558351909550909350839085906130f790600b8901906020870190614ecf565b50505050508b604001518360000160006101000a8154816001600160a01b0302191690836001600160a01b03160217905550848360010160006101000a8154816001600160a01b0302191690836001600160a01b03160217905550838360020160006101000a8154816001600160a01b0302191690836001600160a01b031602179055508b606001518360030160006101000a8154816001600160a01b0302191690836001600160a01b031602179055508b608001518360040160006101000a8154816001600160a01b0302191690836001600160a01b031602179055508b60e001518360050160006101000a8154816001600160a01b0302191690836001600160a01b031602179055508b61010001518360060160006101000a8154816001600160a01b0302191690836001600160a01b031602179055508b60c0015183600901819055508b60a0015183600c0160006101000a81548160ff02191690831515021790555080156132cd5760608c01516001600160a01b031661328e5760405163b7fb9bcd60e01b815260040160405180910390fd5b60608c01516007840180546001600160a01b039283166001600160a01b03199182161790915560408e01516008860180549190931691161790556132f4565b60408c01516007840180546001600160a01b0319166001600160a01b039092169190911790555b81801561330d575060608c01516001600160a01b031615155b1561333d5760608c01516007840180546001600160a01b0319166001600160a01b03909216919091179055613353565b600c8301805461ff001916610100841515021790555b5050505050508315612cf357845460ff60401b19168555604051600181527fc7f505b2f371ae2175ee4913f4499e1f2633a7b5936321eed1cdaeb6115181d29060200160405180910390a1505050505050565b6000816000036133b857506000919050565b60006133c26109cc565b604080516101c08101825282546001600160a01b0390811682526001840154811660208084019190915260028501548216838501526003850154821660608401526004850154821660808401526005850154821660a08401526006850154821660c08401526007850154821660e084015260088501549091166101008301526009840154610120830152600a840154600f0b610140830152600b8401805484518184028101840190955280855292949361016086019390928301828280156134b357602002820191906000526020600020905b81546001600160a01b03168152600190910190602001808311613495575b5050509183525050600c919091015460ff8082161515602084015261010090910416151560409091015260608101519091506001600160a01b03161561358357606081015181516101408301516040516341b028f360e01b81526001600160a01b03928316600482015260248101879052600f9190910b60448201529116906341b028f390606401602060405180830381865afa158015613558573d6000803e3d6000fd5b505050506040513d601f19601f8201168201806040525081019061357c919061532a565b9150613603565b805161014082015160405163cc2b27d760e01b815260048101869052600f9190910b60248201526001600160a01b039091169063cc2b27d790604401602060405180830381865afa1580156135dc573d6000803e3d6000fd5b505050506040513d601f19601f82011682018060405250810190613600919061532a565b91505b50919050565b6000836001600160a01b031663095ea7b3848460405160240161362d9291906154d2565b604051602081830303815290604052915060e01b6020820180516001600160e01b03838183161783525050505090506136668482614477565b611fec5761369184856001600160a01b031663095ea7b38660006040516024016120189291906154d2565b611fec84826136c4565b8051156136ab5780518082602001fd5b60405163d6bda27560e01b815260040160405180910390fd5b600080602060008451602086016000885af1806136e7576040513d6000823e3d81fd5b50506000513d915081156136ff57806001141561370c565b6001600160a01b0384163b155b15611fec5783604051635274afe760e01b8152600401611f7d9190614f8b565b60008181526001830160205260408120548015613815576000613750600183615317565b855490915060009061376490600190615317565b90508082146137c957600086600001828154811061378457613784615435565b90600052602060002001549050808760000184815481106137a7576137a7615435565b6000918252602080832090910192909255918252600188019052604090208390555b85548690806137da576137da615679565b600190038181906000526020600020016000905590558560010160008681526020019081526020016000206000905560019350505050611087565b6000915050611087565b81811115613839576138396138348383615317565b612823565b6000613843611315565b9050600061384f6109cc565b604080516101c08101825282546001600160a01b0390811682526001840154811660208084019190915260028501548216838501526003850154821660608401526004850154821660808401526005850154821660a08401526006850154821660c08401526007850154821660e084015260088501549091166101008301526009840154610120830152600a840154600f0b610140830152600b84018054845181840281018401909552808552929493610160860193909283018282801561394057602002820191906000526020600020905b81546001600160a01b03168152600190910190602001808311613922575b5050509183525050600c919091015460ff80821615156020808501919091526101009092041615156040909201919091528101519091506000906139859084866144c6565b9050600061271083610120015161271061399f9190615317565b6139a990846154eb565b6139b39190615502565b905060006139c18487614572565b9050818110156139e45760405163428637bb60e11b815260040160405180910390fd5b50505050505050565b6139f6816146ba565b6000613a006109cc565b604080516101c08101825282546001600160a01b0390811682526001840154811660208084019190915260028501548216838501526003850154821660608401526004850154821660808401526005850154821660a08401526006850154821660c08401526007850154821660e084015260088501549091166101008301526009840154610120830152600a840154600f0b610140830152600b840180548451818402810184019095528085529294936101608601939092830182828015613af157602002820191906000526020600020905b81546001600160a01b03168152600190910190602001808311613ad3575b5050509183525050600c919091015460ff8082161515602084015261010090910416151560409091015260608101519091506001600160a01b031615613b5757613b5781606001518383602001516001600160a01b03166136099092919063ffffffff16565b6000613b61610dd9565b61016083015180519192509060005b81811015613bd7576000838281518110613b8c57613b8c615435565b60200260200101519050613bb48588836001600160a01b03166136099092919063ffffffff16565b6080860151613bce906001600160a01b0383169089613609565b50600101613b70565b5060408085015160808601519151630749d1f560e21b81526001600160a01b03928316600482015260016024820152911690631d2747d490604401600060405180830381600087803b158015613c2c57600080fd5b505af1925050508015613c3d575060015b15610f79575050505050565b6000818152600183016020526040812054613c9057508154600181810184556000848152602080822090930184905584548482528286019093526040902091909155611087565b506000611087565b60006000805160206158ba833981519152610d27565b613cb7826146e5565b6040516001600160a01b038316907fbc7cd75a20ee27fd9adebab32041f755214dbc6bffa90cc0225b39da2e5c2d3b90600090a2805115613cfc57610b948282614741565b610b0a6147b7565b600080613d20613d12611c50565b613d1a611315565b856144c6565b9050613d2b836133a6565b9150612710613d38610fe6565b613d4490612710615317565b613d4e90836154eb565b613d589190615502565b8210156136035760405163428637bb60e11b815260040160405180910390fd5b613d806147d6565b613d886147de565b6000613d92611c50565b6001600160a01b03166370a08231306040518263ffffffff1660e01b8152600401613dbd9190614f8b565b602060405180830381865afa158015613dda573d6000803e3d6000fd5b505050506040513d601f19601f82011682018060405250810190613dfe919061532a565b90508015610fe357613e0e611945565b6001600160a01b03166343a0d066613e24611bf7565b6040516001600160e01b031960e084901b168152600481019190915260248101849052600160448201526064016020604051808303816000875af1158015613e70573d6000803e3d6000fd5b505050506040513d601f19601f82011682018060405250810190613e949190615524565b610fe357604051633fb65bab60e01b815260040160405180910390fd5b606081600001805480602002602001604051908101604052809291908181526020018280548015613f0157602002820191906000526020600020905b815481526020019060010190808311613eed575b50505050509050919050565b613f156148b7565b613f1d6148dc565b6001600160a01b0384161580613f3a57506001600160a01b038316155b80613f4c57506001600160a01b038216155b15613f6a5760405163fb7566d760e01b815260040160405180910390fd5b6000613f74611f01565b9050848160010160006101000a8154816001600160a01b0302191690836001600160a01b03160217905550846001600160a01b031663fc0c546a6040518163ffffffff1660e01b8152600401602060405180830381865afa158015613fdd573d6000803e3d6000fd5b505050506040513d601f19601f820116820180604052508101906140019190615343565b81546001600160a01b03199081166001600160a01b039283161783556002830180549091168583161790556040805163030d028960e21b8152905191871691630c340a24916004808201926020929091908290030181865afa15801561406b573d6000803e3d6000fd5b505050506040513d601f19601f8201168201806040525081019061408f9190615343565b6003820180546001600160a01b03199081166001600160a01b0393841617909155600483018054909116918616919091179055600781016140d083826156d7565b50612cf360058201336122c3565b60606000806000806140ee611315565b90506000886001600160a01b0316630a700c08896040518263ffffffff1660e01b815260040161411e9190614f8b565b602060405180830381865afa15801561413b573d6000803e3d6000fd5b505050506040513d601f19601f8201168201806040525081019061415f919061532a565b905060048111156141835760405163ad4734c160e01b815260040160405180910390fd5b806001600160401b0381111561419b5761419b614fb8565b6040519080825280602002602001820160405280156141c4578160200160208202803683370190505b5095506000896001600160a01b031663a77576ef8a6040518263ffffffff1660e01b81526004016141f59190614f8b565b61010060405180830381865afa158015614213573d6000803e3d6000fd5b505050506040513d601f19601f820116820180604052508101906142379190615796565b905060001960005b838110156143135782816008811061425957614259615435565b602002015189828151811061427057614270615435565b6001600160a01b039283166020918202929092010152851683826008811061429a5761429a615435565b60200201516001600160a01b03161480614302575073eeeeeeeeeeeeeeeeeeeeeeeeeeeeeeeeeeeeeeee8382600881106142d6576142d6615435565b60200201516001600160a01b03161480156143025750896001600160a01b0316856001600160a01b0316145b1561430b578091505b60010161423f565b5082811115614335576040516368f7a67560e11b815260040160405180910390fd5b60405163e4d332a960e01b81526001600160a01b038c169063e4d332a990614361908d90600401614f8b565b602060405180830381865afa15801561437e573d6000803e3d6000fd5b505050506040513d601f19601f820116820180604052508101906143a29190615524565b95508515801561445d5750604051639ac90d3d60e01b81526001600160a01b038c1690639ac90d3d906143d9908d90600401614f8b565b61010060405180830381865afa1580156143f7573d6000803e3d6000fd5b505050506040513d601f19601f8201168201806040525081019061441b9190615796565b816008811061442c5761442c615435565b60200201516001600160a01b031682826008811061444c5761444c615435565b60200201516001600160a01b031614155b1561446757600194505b8096505050505093509350935093565b6000806000806020600086516020880160008a5af192503d915060005190508280156144bc575081156144ad57806001146144bc565b6000866001600160a01b03163b115b9695505050505050565b6000826001600160a01b0316846001600160a01b0316036144e8575080611f50565b6144f0611c2e565b604051632d9198e160e21b81526001600160a01b038681166004830152858116602483015260448201859052919091169063b646638490606401602060405180830381865afa158015614547573d6000803e3d6000fd5b505050506040513d601f19601f8201168201806040525081019061456b919061532a565b9050611f50565b61014082015160608301516000916001916001600160a01b03161561462657606085015185516040516314f6943160e11b81526001600160a01b03918216600482015260248101879052600f84900b6044820152606481018590529116906329ed2862906084015b6020604051808303816000875af11580156145f9573d6000803e3d6000fd5b505050506040513d601f19601f8201168201806040525081019061461d919061532a565b92505050611087565b846101a001511561467957845160405163517a55a360e01b815260048101869052600f83900b602482015260448101849052600160648201526001600160a01b039091169063517a55a3906084016145da565b8451604051630d2680e960e11b815260048101869052600f83900b6024820152604481018490526001600160a01b0390911690631a4d01d2906064016145da565b60006146c4611f01565b60018101548154919250610b0a916001600160a01b03908116911684613609565b806001600160a01b03163b6000036147125780604051634c9c8ce360e01b8152600401611f7d9190614f8b565b6000805160206158ba83398151915280546001600160a01b0319166001600160a01b0392909216919091179055565b6060600080846001600160a01b03168460405161475e919061581d565b600060405180830381855af49150503d8060008114614799576040519150601f19603f3d011682016040523d82523d6000602084013e61479e565b606091505b50915091506147ae8583836148e4565b95945050505050565b3415610fb05760405163b398979f60e01b815260040160405180910390fd5b610fb0614937565b60006147e8610dbd565b90506000816001600160a01b03166370a08231306040518263ffffffff1660e01b81526004016148189190614f8b565b602060405180830381865afa158015614835573d6000803e3d6000fd5b505050506040513d601f19601f82011682018060405250810190614859919061532a565b90508015610b0a57604051632e1a7d4d60e01b8152600481018290526001600160a01b03831690632e1a7d4d90602401600060405180830381600087803b1580156148a357600080fd5b505af1158015612cf3573d6000803e3d6000fd5b6148bf614b26565b610fb057604051631afcd79f60e31b815260040160405180910390fd5b610fb06148b7565b6060826148f9576148f48261369b565b611f50565b815115801561491057506001600160a01b0384163b155b156149305783604051639996b31560e01b8152600401611f7d9190614f8b565b5080611f50565b60006149416109cc565b604080516101c08101825282546001600160a01b0390811682526001840154811660208084019190915260028501548216838501526003850154821660608401526004850154821660808401526005850154821660a08401526006850154821660c08401526007850154821660e084015260088501549091166101008301526009840154610120830152600a840154600f0b610140830152600b840180548451818402810184019095528085529294936101608601939092830182828015614a3257602002820191906000526020600020905b81546001600160a01b03168152600190910190602001808311614a14575b5050509183525050600c919091015460ff808216151560208401526101009091041615156040909101529050606060008080614a6d85614b40565b929650909450925090508015614a84575050505050565b5083608001516001600160a01b03166326a38e64828660e0015187602001518860400151896101600151518a61016001518a8a8d6101a001518e61018001518f61010001516040518c63ffffffff1660e01b8152600401614aee9a99989796959493929190615839565b6000604051808303818588803b158015614b0757600080fd5b505af1158015614b1b573d6000803e3d6000fd5b505050505050505050565b6000614b30612d97565b54600160401b900460ff16919050565b60408051600880825261012082019092526060916000918291829182916020820161010080368337505050610160870151519091506000908190600190825b81811015614e385760008b61016001518281518110614ba057614ba0615435565b6020026020010151905073eeeeeeeeeeeeeeeeeeeeeeeeeeeeeeeeeeeeeeee6001600160a01b0316816001600160a01b031603614d55578415614bf657604051635524c90b60e11b815260040160405180910390fd5b60a08c01516040516370a0823160e01b81526001600160a01b038216906370a0823190614c27903090600401614f8b565b602060405180830381865afa158015614c44573d6000803e3d6000fd5b505050506040513d601f19601f82011682018060405250810190614c68919061532a565b888481518110614c7a57614c7a615435565b602002602001018181525050806001600160a01b0316632e1a7d4d898581518110614ca757614ca7615435565b60200260200101516040518263ffffffff1660e01b8152600401614ccd91815260200190565b600060405180830381600087803b158015614ce757600080fd5b505af1158015614cfb573d6000803e3d6000fd5b50505050878381518110614d1157614d11615435565b60200260200101519550614d43818e602001518a8681518110614d3657614d36615435565b60200260200101516144c6565b614d4d9088615422565b965050614e08565b6040516370a0823160e01b81526001600160a01b038216906370a0823190614d81903090600401614f8b565b602060405180830381865afa158015614d9e573d6000803e3d6000fd5b505050506040513d601f19601f82011682018060405250810190614dc2919061532a565b878381518110614dd457614dd4615435565b602002602001018181525050614dfb818d60200151898581518110614d3657614d36615435565b614e059087615422565b95505b6000878381518110614e1c57614e1c615435565b60200260200101511115614e2f57600093505b50600101614b7f565b506127108a6101200151612710614e4f9190615317565b614e5990866154eb565b614e639190615502565b949a9499509197509550919350505050565b60405180604001604052806002906020820280368337509192915050565b60405180606001604052806003906020820280368337509192915050565b60405180608001604052806004906020820280368337509192915050565b828054828255906000526020600020908101928215614f24579160200282015b82811115614f2457825182546001600160a01b0319166001600160a01b03909116178255602090920191600190910190614eef565b50614f30929150614f34565b5090565b5b80821115614f305760008155600101614f35565b6001600160a01b0381168114610fe357600080fd5b8035614f6981614f49565b919050565b600060208284031215614f8057600080fd5b8135611f5081614f49565b6001600160a01b0391909116815260200190565b600060208284031215614fb157600080fd5b5035919050565b634e487b7160e01b600052604160045260246000fd5b60405161014081016001600160401b0381118282101715614ff157614ff1614fb8565b60405290565b60006001600160401b038084111561501157615011614fb8565b604051601f8501601f19908116603f0116810190828211818310171561503957615039614fb8565b8160405280935085815286868601111561505257600080fd5b858560208301376000602087830101525050509392505050565b6000806040838503121561507f57600080fd5b823561508a81614f49565b915060208301356001600160401b038111156150a557600080fd5b8301601f810185136150b657600080fd5b6150c585823560208401614ff7565b9150509250929050565b60008151808452602080850194506020840160005b838110156151095781516001600160a01b0316875295820195908201906001016150e4565b509495945050505050565b602081526000611f5060208301846150cf565b60005b8381101561514257818101518382015260200161512a565b50506000910152565b602081526000825180602084015261516a816040850160208701615127565b601f01601f19169190910160400192915050565b8015158114610fe357600080fd5b8035614f698161517e565b600082601f8301126151a857600080fd5b611f5083833560208501614ff7565b6000806000606084860312156151cc57600080fd5b83356001600160401b03808211156151e357600080fd5b9085019061014082880312156151f857600080fd5b615200614fce565b61520983614f5e565b815261521760208401614f5e565b602082015261522860408401614f5e565b604082015261523960608401614f5e565b606082015261524a60808401614f5e565b608082015261525b60a0840161518c565b60a082015260c083013560c082015261527660e08401614f5e565b60e0820152610100615289818501614f5e565b9082015261012083810135838111156152a157600080fd5b6152ad8a828701615197565b8284015250508095505050506152c560208501614f5e565b9150604084013590509250925092565b600080604083850312156152e857600080fd5b82356152f381614f49565b946020939093013593505050565b634e487b7160e01b600052601160045260246000fd5b8181038181111561108757611087615301565b60006020828403121561533c57600080fd5b5051919050565b60006020828403121561535557600080fd5b8151611f5081614f49565b60008060008060008060008060006101208a8c03121561537f57600080fd5b895161538a8161517e565b8099505060208a0151975060408a0151965060608a0151955060808a0151945060a08a0151935060c08a0151925060e08a015191506101008a015190509295985092959850929598565b600181811c908216806153e857607f821691505b60208210810361360357634e487b7160e01b600052602260045260246000fd5b6001600160a01b0392831681529116602082015260400190565b8082018082111561108757611087615301565b634e487b7160e01b600052603260045260246000fd5b60008060008060008060c0878903121561546457600080fd5b865161546f81614f49565b602088015190965061548081614f49565b604088015190955061549181614f49565b60608801519094506154a281614f49565b60808801519093506154b381614f49565b60a08801519092506154c48161517e565b809150509295509295509295565b6001600160a01b03929092168252602082015260400190565b808202811582820484141761108757611087615301565b60008261551f57634e487b7160e01b600052601260045260246000fd5b500490565b60006020828403121561553657600080fd5b8151611f508161517e565b60008151808452602080850194506020840160005b8381101561510957815187529582019590820190600101615556565b828152604060208201526000612d8f6040830184615541565b8281526060810160208083018460005b60028110156155b85781518352918301919083019060010161559b565b505050509392505050565b8060005b6003811015611fec5781518452602093840193909101906001016155c7565b6001600160a01b03841681526020810183905260a08101612d8f60408301846155c3565b82815260808101611f5060208301846155c3565b8060005b6004811015611fec578151845260209384019390910190600101615622565b6001600160a01b03841681526020810183905260c08101612d8f604083018461561e565b82815260a08101611f50602083018461561e565b634e487b7160e01b600052603160045260246000fd5b601f821115610b94576000816000526020600020601f850160051c810160208610156156b85750805b601f850160051c820191505b81811015612cf3578281556001016156c4565b81516001600160401b038111156156f0576156f0614fb8565b615704816156fe84546153d4565b8461568f565b602080601f83116001811461573957600084156157215750858301515b600019600386901b1c1916600185901b178555612cf3565b600085815260208120601f198616915b8281101561576857888601518255948401946001909101908401615749565b50858210156157865787850151600019600388901b60f8161c191681555b5050505050600190811b01905550565b60006101008083850312156157aa57600080fd5b83601f8401126157b957600080fd5b6040518181018181106001600160401b03821117156157da576157da614fb8565b6040529083019080858311156157ef57600080fd5b845b8381101561581257805161580481614f49565b8252602091820191016157f1565b509095945050505050565b6000825161582f818460208701615127565b9190910192915050565b6001600160a01b038b811682528a81166020830152898116604083015260608201899052610140608083018190526000916158768483018b6150cf565b915083820360a085015261588a828a615541565b60c085019890985295151560e0840152505091151561010083015290911661012090910152969550505050505056fe360894a13ba1a3210667c828492db98dca3e2076cc3735a920a3ca505d382bbca2646970667358221220d7a690271cfee5b988ba39b11fb6d407db0449517c1811ef56e10b5afbfec57c64736f6c63430008190033",
  "devdoc": {
    "errors": {
      "AddressEmptyCode(address)": [
        {
          "details": "There's no code at `target` (it is not a contract)."
        }
      ],
      "ERC1967InvalidImplementation(address)": [
        {
          "details": "The `implementation` of the proxy is invalid."
        }
      ],
      "ERC1967NonPayable()": [
        {
          "details": "An upgrade function sees `msg.value > 0` that may be lost."
        }
      ],
      "FailedCall()": [
        {
          "details": "A call to an address target failed. The target may have reverted."
        }
      ],
      "InsufficientBalance(uint256,uint256)": [
        {
          "details": "The ETH balance of the account is not enough to perform the operation."
        }
      ],
      "InvalidInitialization()": [
        {
          "details": "The contract is already initialized."
        }
      ],
      "NotInitializing()": [
        {
          "details": "The contract is not initializing."
        }
      ],
      "SafeERC20FailedOperation(address)": [
        {
          "details": "An operation with an ERC-20 token failed."
        }
      ],
      "UUPSUnauthorizedCallContext()": [
        {
          "details": "The call is from an unauthorized context."
        }
      ],
      "UUPSUnsupportedProxiableUUID(bytes32)": [
        {
          "details": "The storage `slot` is unsupported as a UUID."
        }
      ]
    },
    "events": {
      "Initialized(uint64)": {
        "details": "Triggered when the contract has been initialized or reinitialized."
      },
      "Upgraded(address)": {
        "details": "Emitted when the implementation is upgraded."
      }
    },
    "kind": "dev",
    "methods": {
      "addKeeper(address)": {
        "params": {
          "keeperAddress_": "keeper address to add."
        }
      },
      "approveToken(uint256)": {
        "details": "OnlyKeeper: Approve all required tokens"
      },
      "claimRewards()": {
        "details": "This function will only be used when protocol doesn't offer claim by anyone."
      },
      "proxiableUUID()": {
        "details": "Implementation of the ERC-1822 {proxiableUUID} function. This returns the storage slot used by the implementation. It is used to validate the implementation's compatibility when performing an upgrade. IMPORTANT: A proxy pointing at a proxiable contract should not be considered proxiable itself, because this risks bricking a proxy that upgrades to it, by delegating to itself until out of gas. Thus it is critical that this function revert if invoked through a proxy. This is guaranteed by the `notDelegated` modifier."
      },
      "rebalance()": {
        "returns": {
          "_loss": "Realized loss, if any, in collateral.",
          "_payback": "If strategy has any excess debt, we have to liquidate asset to payback excess debt.",
          "_profit": "Realized profit in collateral."
        }
      },
      "removeKeeper(address)": {
        "params": {
          "keeperAddress_": "keeper address to remove."
        }
      },
      "sweep(address)": {
        "params": {
          "fromToken_": "token address to sweep"
        }
      },
      "updateFeeCollector(address)": {
        "params": {
          "feeCollector_": "fee collector address"
        }
      },
      "updateSwapper(address)": {
        "params": {
          "swapper_": "swapper address"
        }
      },
      "upgradeToAndCall(address,bytes)": {
        "custom:oz-upgrades-unsafe-allow-reachable": "delegatecall",
        "details": "Upgrade the implementation of the proxy to `newImplementation`, and subsequently execute the function call encoded in `data`. Calls {_authorizeUpgrade}. Emits an {Upgraded} event."
      },
      "withdraw(uint256)": {
        "params": {
          "amount_": "Amount of collateral token"
        }
      }
    },
    "version": 1
  },
  "userdoc": {
    "kind": "user",
    "methods": {
      "addKeeper(address)": {
        "notice": "onlyGovernor: Add given address in keepers list."
      },
      "claimRewards()": {
        "notice": "OnlyKeeper: Claim rewards from protocol."
      },
      "isReservedToken(address)": {
        "notice": "Check whether given token is reserved or not. Reserved tokens are not allowed to sweep."
      },
      "keepers()": {
        "notice": "Return list of keepers"
      },
      "rebalance()": {
        "notice": "OnlyKeeper: Rebalance profit, loss and investment of this strategy.  Calculate profit, loss and payback of this strategy and realize profit/loss and  withdraw fund for payback, if any, and submit this report to pool."
      },
      "removeKeeper(address)": {
        "notice": "onlyGovernor: Remove given address from keepers list."
      },
      "swapToCollateral(address,uint256)": {
        "notice": "onlyKeeper:: Swap given token into collateral token."
      },
      "sweep(address)": {
        "notice": "onlyKeeper: sweep given token to feeCollector of strategy"
      },
      "tvl()": {
        "notice": "Returns collateral balance + collateral deposited to curve"
      },
      "updateFeeCollector(address)": {
        "notice": "onlyGovernor: Update fee collector"
      },
      "updateSwapper(address)": {
        "notice": "onlyGovernor: Update swapper"
      },
      "withdraw(uint256)": {
        "notice": "onlyPool: Withdraw collateral token from end protocol."
      },
      "withdrawAllCoins(uint256)": {
        "notice": "onlyKeeper:This function will withdraw all underlying tokens from Curve as oppose to regular collateral withdrawal. Caller should call this via callStatic to get values for minAmountsOut. Note: In order to get collaterals, keeper will have swap underlying tokens to collateral."
      }
    },
    "version": 1
  },
  "storageLayout": {
    "storage": [],
    "types": null
  }
}